:100000000C9484000C94A1000C94A1000C943E016B
:100010000C94A1000C94A1000C94A1000C94A100DC
:100020000C94A1000C94A1000C94F4000C94A10079
:100030000C94A1000C94A1000C94A1000C94A100BC
:100040000C94A1000C94A1000C94A1000C94A100AC
:100050000C94A10056186818681868186818681871
:10006000531859185C1868186818651868186218C9
:100070006818681868186818681868186818681880
:100080006818681868186818681868185F18681879
:10009000501868180218051808180B180E181118AF
:1000A000141817181A181D1820182318261829189C
:1000B0002C182F183218351838183B183E184118CC
:1000C000441847184A184D18100804020100180473
:1000D00003000003041800010204081002020408CF
:1000E00008080804020245464765666700202B2D74
:1000F0002E3031323334353637383968006364692D
:100100006E6F70737578580011241FBECFE5D8E06C
:10011000DEBFCDBF10E0A0E6B0E0E4E2FAE302C04B
:1001200005900D92A63BB107D9F710E0A6EBB0E021
:1001300001C01D92AA3FB107E1F70E9412020C9480
:10014000101D0C94000020E030E040EA5FE005C0A4
:10015000FA013197F1F72F5F3F4F28173907C4F3A2
:1001600008958FEF8ABB17BA84BB81BB1BBA15BA3F
:1001700012BAC29A979841E04093D10032E030938E
:10018000D20024E02093D30098E09093D40080E143
:100190008093D5008093EF009093F0002093F100BE
:1001A0003093F2004093F3002093F5009093F60013
:1001B0008093F70080E28093F80080E48093F90058
:1001C00012BE89B7826089BF8AE08CBF83B7846022
:1001D00083BF83B7886083BF8BB780628BBF84B7D0
:1001E0008F7B84BF789408951F920F920FB60F9261
:1001F00011242F938F939F93EF93FF93E091F4003B
:10020000F0E0EB50FF4F808182BB1092B6001EC021
:100210008091F40090E02091B600FC01EE0FFF1FEA
:10022000EE0FFF1FE80FF91FE20FF11DEA52FF4F1B
:1002300080818BBBE091B600F0E0E151FF4F8081FF
:1002400085BB8091B6008F5F8093B6008091B60029
:100250008530F0F28091F4008F5F8093F40081503C
:10026000843011F41092F400FF91EF919F918F91DF
:100270002F910F900FBE0F901F9018951F920F9205
:100280000FB60F9211248F938091D0008F5F8093CF
:10029000D0008150843011F41092D0008F910F90D3
:1002A0000FBE0F901F901895CF93DF93EC018FE155
:1002B0000E94BC0520E030E040EA5FE005C0CA01D2
:1002C0000197F1F72F5F3F4F2C173D07C4F380E0F4
:1002D0000E94BC0520E030E040EA5FE005C0CA01B2
:1002E0000197F1F72F5F3F4F2C173D07C4F3DF91C4
:1002F000CF910895EF92FF920F931F93DF93CF93C7
:10030000CDB7DEB7C555D0400FB6F894DEBF0FBEEF
:10031000CDBFDE015596E0E6F0E09EE101900D9242
:100320009150E1F7DE011196EFE7F0E094E10190E2
:100330000D929150E1F7DE01D396E3E9F0E091E20E
:1003400001900D929150E1F7FE01EC5AFF4F11829E
:100350001082823009F444C0833030F4882359F08D
:10036000813009F051C033C0833009F442C0843079
:1003700009F04AC043C0CE0145966EE170E00E948C
:10038000D61700E010E080EAE82E8FE0F82E8FE12B
:100390000E94BC0580E090E0F7013197F1F70196EB
:1003A00021E0843F9207C1F780E00E94BC0580E015
:1003B00090E0F7013197F1F7019621E0843F920731
:1003C000C1F70F5F1F4F0330110509F71DC081E012
:1003D00090E06AE070E044E650E00E94270614C016
:1003E00081E090E06AE070E044E650E00E94D205CF
:1003F0000BC0CE01019664E170E004C0CE01C3964B
:1004000063E270E00E94D617CB5ADF4F0FB6F89424
:10041000DEBF0FBECDBFCF91DF911F910F91FF9037
:10042000EF9008951092F4001092B6001092D00050
:100430000E94B10084EF91E00E9454018091D000AD
:100440000E947A01FBCFDC0185309105F8F477FD3D
:100450001DC065307105D4F457FD18C045305105F5
:10046000ACF4FA01EE0FFF1FEE0FFF1FE40FF51FB4
:10047000E60FF71FEA52FF4F208181E090E002C0B3
:10048000880F991FAA95E2F7282B20830895DC0195
:100490008530910500F577FD1EC065307105DCF4EF
:1004A00057FD19C045305105B4F4FA01EE0FFF1F96
:1004B000EE0FFF1FE40FF51FE60FF71FEA52FF4F85
:1004C000208181E090E002C0880F991FAA95E2F791
:1004D00080958223808308959C0185309105F0F4F6
:1004E00077FD1CC065307105CCF457FD17C0453051
:1004F0005105A4F4FA01EE0FFF1FEE0FFF1FE40FEA
:10050000F51FE60FF71FEA52FF4F808190E002C00F
:10051000959587952A95E2F78170089580E0089572
:10052000059778F477FD0DC06530710554F457FDDB
:1005300008C090E0453051050CF091E081E098272B
:1005400001C090E0892F0895DC012130310509F5C3
:100550008530910500F577FD1EC065307105DCF42E
:1005600057FD19C045305105B4F4FA01EE0FFF1FD5
:10057000EE0FFF1FE40FF51FE60FF71FEA52FF4FC4
:10058000808102C0220F331FAA95E2F7822B80835D
:1005900008950E9447020895DC0185309105F8F422
:1005A00077FD1DC065307105D4F457FD18C0453086
:1005B0005105ACF4FA01EE0FFF1FEE0FFF1FE40F21
:1005C000F51FE60FF71FEA52FF4F208181E090E010
:1005D00002C0880F991FAA95E2F728272083089563
:1005E000FC01EE0FFF1FEE0FFF1FE80FF91FEA528D
:1005F000FF4F8FE180838183828383838483089587
:10060000FC01EE0FFF1FEE0FFF1FE80FF91FEA526C
:10061000FF4F10821182128213821482089521E00A
:1006200030E002C0220F331F8A95E2F760E070E0ED
:1006300012C0FD01E40FF51FEA52FF4F8081822BAB
:1006400080834F5F5F4F4530510599F76F5F7F4F54
:100650006530710551F040E050E0DB01AA0FBB1F8F
:10066000AA0FBB1FA60FB71FE4CF089521E030E00B
:1006700002C0220F331F8A95E2F7209560E070E0F8
:1006800012C0FD01E40FF51FEA52FF4F8081822363
:1006900080834F5F5F4F4530510599F76F5F7F4F04
:1006A0006530710551F040E050E0DB01AA0FBB1F3F
:1006B000AA0FBB1FA60FB71FE4CF0895FC01EA5293
:1006C000FF4F8FE18083858382878787848B08959E
:1006D000FC01EA52FF4F1082158212861786148A97
:1006E0000895883709F053C01416150664F081E0A8
:1006F00090E002C0880F991F6A95E2F7982F9095B5
:1007000040E050E03AC081E090E002C0880F991FBD
:100710006A95E2F7982F40E050E013C0FB01E20F2A
:10072000F31FEA52FF4F8081892B80832F5F3F4F59
:100730002530310599F74F5F5F4F4530510509F47A
:1007400059C020E030E0BA01660F771F660F771FAF
:10075000640F751FE3CFFB01E20FF31FEA52FF4F57
:100760008081892380832F5F3F4F2530310599F7A2
:100770004F5F5F4F45305105E9F120E030E0BA01AD
:10078000660F771F660F771F640F751FE4CF8937D9
:1007900099F4FB01EA52FF4F141615063CF48FE161
:1007A0008083858382878787848B08951082158252
:1007B00012861786148A08958A37E1F4FB01EE0F3A
:1007C000FF1FEE0FFF1F141615065CF4E60FF71F50
:1007D000EA52FF4F8FE18083818382838383848306
:1007E0000895E60FF71FEA52FF4F1082118212821E
:1007F000138214820895AF92BF92CF92DF92EF924C
:10080000FF920F931F93CF93DF935C016B017901EC
:100810002417350714F47A01A901EA0107C0C501BC
:10082000B601AE0198010E94A4022196EC16FD06C5
:10083000B4F7DF91CF911F910F91FF90EF90DF9070
:10084000CF90BF90AF900895AF92BF92CF92DF92BA
:10085000EF92FF920F931F93CF93DF935C016B0195
:1008600079012417350714F47A01A901EA0107C0B8
:10087000CE01B601A50198010E94A4022196EC16B2
:10088000FD06B4F7DF91CF911F910F91FF90EF908C
:10089000DF90CF90BF90AF900895AF92BF92CF926C
:1008A000DF92EF92FF920F931F93CF93DF935C0140
:1008B0006B0179012417350714F47A01A901EA01C3
:1008C00007C0C601BE01A50198010E94A40221969D
:1008D000EC16FD06B4F7DF91CF911F910F91FF90B9
:1008E000EF90DF90CF90BF90AF9008952F923F92FE
:1008F0004F925F927F928F929F92AF92BF92CF92D0
:10090000DF92EF92FF920F931F93CF93DF93FC013F
:10091000702E841B950B97FF03C0909581959F4F78
:10092000DB01A21BB30BB7FF03C0B095A195BF4F6E
:10093000E417F5073CF488248A94982CAA24AA94F6
:10094000BA2C06C001E0802E912C11E0A12EB12C12
:10095000621773073CF4CC24CA94DC2CEE24EA948E
:10096000FE2C06C0F1E0CF2ED12CE1E0EE2EF12CD2
:100970008A179B075CF0EC01D595C7958C011D018A
:100980002C01EE24FF24AA24BB240AC0ED01D59536
:10099000C7958D011C012D0188249924CC24DD24C8
:1009A000B901A0E0B0E08AE7781611F545305105AD
:1009B00008F072C077FD70C0653071050CF06CC036
:1009C000FB01EA52FF4F248981E090E0042E02C02F
:1009D000880F991F0A94E2F7282B248B2785282B50
:1009E00027872285282B22872581282B25832AC02B
:1009F00088E7781651F54530510508F04DC077FD70
:100A00004BC0653071050CF047C0FB01EE0FFF1FB6
:100A1000EE0FFF1FE60FF71FEA52FF4F248181E020
:100A200090E0042E02C0880F991F0A94E2F7282B49
:100A300024832381282B23832281282B2283218135
:100A4000282B21832081822B26C089E7781621F567
:100A500077FD22C065307105FCF457FD1DC045309F
:100A60005105D4F4FA01EE0FFF1FEE0FFF1FE40F44
:100A7000F51FE60FF71FEA52FF4F808180618083E8
:100A800080818860808380818460808380818260AF
:100A90008083808181608083C20DD31DC017D10700
:100AA00034F0C01BD10B4A0D5B1D6C0D7D1D1196E2
:100AB0004A165B062CF0480D591D6E0D7F1D73CF35
:100AC000DF91CF911F910F91FF90EF90DF90CF902A
:100AD000BF90AF909F908F907F905F904F903F908E
:100AE0002F90089520E030E0F901EE0FFF1FEE0F88
:100AF000FF1FE20FF31FDF01A954BF4F8C91EA5291
:100B0000FF4F808311968C911197818312968C915F
:100B10001297828313968C911397838314968C91EA
:100B200084832F5F3F4F25303105F1F6089520E093
:100B300030E0F901EE0FFF1FEE0FFF1FE20FF31F72
:100B4000DF01AA52BF4F8C91E954FF4F8083119669
:100B50008C911197818312968C91129782831396B0
:100B60008C911397838314968C9184832F5F3F4FCE
:100B700025303105F1F6089520E030E0F901EE0F5F
:100B8000FF1FEE0FFF1FE20FF31FEA52FF4F80839C
:100B900081838283838384832F5F3F4F2530310598
:100BA00069F70895CF92DF92EF92FF920F931F9310
:100BB000CF93DF936B017A01C0E0D0E016C0FD0156
:100BC000EE0FFF1FEE0FFF1FEA0FFB1FEA52FF4F52
:100BD000008311832283938384831196A530B1050A
:100BE00071F7C7010E94A3002196CC15DD0534F5ED
:100BF000CE0166E070E00E94A71CFC01EE0FFF1F13
:100C0000EE0FFF1FE80FF91FCF0187539F4F9F0182
:100C100026533F4FAF0145535F4FBF0164537F4F92
:100C2000A0E0B0E0E853FF4F0491FC011491F901FA
:100C30002491FA019491FB018491C1CFDF91CF916E
:100C40001F910F91FF90EF90DF90CF900895CF927A
:100C5000DF92EF92FF920F931F93CF93DF936B017D
:100C60007A0100E010E043C0C0E0D0E0CE01800F88
:100C7000911F66E070E00E94A71C9C01220F331FA9
:100C8000220F331F280F391FF901E853FF4FE4915A
:100C9000DE01AA0FBB1FAA0FBB1FAC0FBD1FAA52BC
:100CA000BF4FEC93F901E753FF4FE4911196EC939A
:100CB0001197F901E653FF4FE4911296EC931297C6
:100CC000F901E553FF4FE4911396EC9313972453E6
:100CD0003F4FF901849114968C932196C530D1052C
:100CE00009F0C4CFC7010E94A3000F5F1F4F0C156E
:100CF0001D050CF4B9CFDF91CF911F910F91FF909B
:100D0000EF90DF90CF9008950F931F9380E00E94A3
:100D1000BC0586E490E00E94A30080E090E060E0E3
:100D200070E040E050E024E030E001E010E00E949C
:100D3000FB0380E090E060E070E040E050E024E001
:100D400030E00E944D0482E090E060E070E040E01E
:100D500050E024E030E00E944D0484E090E060E048
:100D600070E040E050E024E030E00E944D048AEF63
:100D700090E00E94A30080E00E94BC0586E490E021
:100D80000E94A30080E090E060E070E040E050E06E
:100D900024E030E00E94FB0380E090E060E070E03F
:100DA00040E050E024E030E00E944D0482E090E01A
:100DB00060E070E040E050E024E030E00E944D044C
:100DC00084E090E060E070E040E050E024E030E05B
:100DD0000E944D048AEF90E00E94A30080E00E94F0
:100DE000BC0586E490E00E94A30080E090E060E013
:100DF00070E043E050E00E94230280E090E064E075
:100E000070E041E050E00E94230280E090E060E06A
:100E100070E040E050E024E030E00E944D0482E0C9
:100E200090E060E070E040E050E024E030E00E94BC
:100E30004D0484E090E060E070E040E050E024E0A9
:100E400030E00E944D0480E090E064E070E040E01B
:100E500050E00E94470280E090E060E070E044E0F3
:100E600050E00E9447028AEF90E00E94A30080E0D9
:100E70000E94BC0586E490E00E94A30084E090E01C
:100E800060E070E040E050E024E030E00E944D047B
:100E900080E090E062E070E040E050E024E030E08C
:100EA0000E94FB038AEF90E00E94A30080E00E9472
:100EB000BC0586E490E00E94A30080E090E060E042
:100EC00070E040E050E024E030E00E94FB0380E06E
:100ED00090E060E070E040E050E024E030E00E940C
:100EE0004D0482E090E060E070E040E050E024E0FB
:100EF00030E00E944D0484E090E060E070E040E06B
:100F000050E024E030E00E944D048AEF90E00E941F
:100F1000A30080E00E94BC0586E490E00E94A3004C
:100F200080E090E060E070E040E050E024E030E0FD
:100F30000E94FB0380E090E060E070E040E050E061
:100F400024E030E00E944D0484E090E060E070E036
:100F500040E050E024E030E00E944D048AEF90E051
:100F60000E94A30080E00E94BC058EE091E00E94F8
:100F7000A30080E090E060E070E040E050E024E01A
:100F800030E00E94FB0380E090E064E070E040E02D
:100F900050E024E030E00E94FB0380E090E061E05C
:100FA00070E041E050E00E94230280E090E062E0C7
:100FB00070E042E050E00E94230280E090E063E0B5
:100FC00070E041E050E00E9423028AEF90E00E942E
:100FD000A30080E00E94BC0586E490E00E94A3008C
:100FE00080E090E060E070E040E050E024E030E03D
:100FF0000E94FB0380E090E064E070E040E050E09D
:1010000024E030E00E94FB0382E090E060E070E0CA
:1010100040E050E024E030E00E944D048AEF90E090
:101020000E94A30080E00E94BC0586E490E00E943C
:10103000A30080E090E060E070E040E050E024E059
:1010400030E00E94FB0380E090E064E070E040E06C
:1010500050E024E030E00E94FB0382E090E060E09A
:1010600070E040E050E024E030E00E944D0484E075
:1010700090E060E070E040E050E024E030E00E946A
:101080004D0480E090E060E070E044E050E00E94B9
:10109000470280E090E064E070E044E050E00E94AD
:1010A00047028AEF90E00E94A30080E00E94BC0506
:1010B00080E00E94BC0586E490E00E94A30084E0EA
:1010C00090E060E070E040E050E024E030E00E941A
:1010D0004D0480E090E062E070E040E050E024E009
:1010E00030E00E94FB038AEF90E00E94A30080E0C2
:1010F0000E94BC058EE091E00E94A30080E090E099
:1011000062E070E040E050E024E030E00E94FB0349
:1011100080E090E061E070E040E050E00E94230257
:1011200080E090E063E070E040E050E00E94230245
:1011300080E090E061E070E044E050E00E94230233
:1011400080E090E063E070E044E050E00E94230221
:101150008AEF90E00E94A30080E00E94BC0586E434
:1011600090E00E94A30080E090E060E070E043E047
:1011700050E00E94230280E090E064E070E041E0F3
:1011800050E00E94230280E090E060E070E040E0E8
:1011900050E024E030E00E944D0482E090E060E006
:1011A00070E040E050E024E030E00E944D0484E034
:1011B00090E060E070E040E050E024E030E00E9429
:1011C0004D0480E090E064E070E040E050E00E9478
:1011D000470280E090E060E070E044E050E00E9470
:1011E00047028AEF90E00E94A30080E00E94BC05C5
:1011F0008EE091E00E94A30080E090E062E070E069
:1012000040E050E022E030E00E94FB0380E090E00C
:1012100061E070E043E050E00E94230280E090E053
:1012200063E070E043E050E00E94230280E090E041
:1012300060E070E044E050E00E94230280E090E033
:1012400064E070E044E050E00E9423028AEF90E006
:101250000E94A30080E00E94BC0586E490E00E940A
:10126000A30080E090E060E070E040E050E024E027
:1012700030E00E94FB0380E090E064E070E040E03A
:1012800050E024E030E00E94FB0380E090E060E06A
:1012900070E040E050E024E030E00E944D0484E043
:1012A00090E060E070E040E050E024E030E00E9438
:1012B0004D0480E090E060E070E040E050E00E948B
:1012C000470280E090E060E070E044E050E00E947F
:1012D000470280E090E064E070E040E050E00E946F
:1012E000470280E090E064E070E044E050E00E945B
:1012F00047028AEF90E00E94A30080E00E94BC05B4
:1013000086E490E00E94A30080E090E060E070E05E
:1013100040E050E024E030E00E94FB0380E090E0F9
:1013200064E070E040E050E024E030E00E94FB0325
:1013300080E090E060E070E040E050E024E030E0E9
:101340000E944D0480E090E060E070E040E050E0FA
:101350000E94470280E090E064E070E040E050E0EE
:101360000E9447028AEF90E00E94A30080E00E9462
:10137000BC0586E490E00E94A30080E090E060E07D
:1013800070E040E050E024E030E00E94FB0382E0A7
:1013900090E060E070E040E050E024E030E00E9447
:1013A0004D0484E090E060E070E040E050E024E034
:1013B00030E00E944D0480E090E064E070E042E0A4
:1013C00050E00E94470280E090E064E070E044E07A
:1013D00050E00E94470280E090E064E070E040E06E
:1013E00050E00E94230280E090E063E070E041E082
:1013F00050E00E94230280E090E064E070E043E06F
:1014000050E00E9423028AEF90E00E94A30080E057
:101410000E94BC058EE091E00E94A30080E090E075
:1014200060E070E040E050E024E030E00E94FB0328
:1014300082E090E060E070E040E050E024E030E0E6
:101440000E944D0484E090E060E070E040E050E0F5
:1014500024E030E00E944D0480E090E064E070E021
:1014600042E050E00E94470280E090E064E070E0DB
:1014700044E050E00E94470280E090E064E070E0C9
:1014800043E050E00E9423028AEF90E00E94A30014
:1014900080E00E94BC0586E490E00E94A30080E00A
:1014A00090E060E070E040E050E024E030E00E9436
:1014B000FB0382E090E060E070E040E050E024E078
:1014C00030E00E944D0484E090E060E070E040E095
:1014D00050E024E030E00E944D0480E090E064E0C1
:1014E00070E042E050E00E94470280E090E064E05B
:1014F00070E044E050E00E94470280E090E064E049
:1015000070E040E050E00E94230280E090E063E061
:1015100070E041E050E00E94230280E090E064E04F
:1015200070E043E050E00E9423028AEF90E00E94C6
:10153000A30080E00E94BC0586E490E00E94A30026
:1015400080E090E060E070E040E050E024E030E0D7
:101550000E94FB0380E090E064E070E040E050E037
:1015600024E030E00E94FB0380E090E060E070E067
:1015700040E050E024E030E00E944D0484E090E040
:1015800060E070E040E050E024E030E00E944D0474
:1015900080E090E060E070E040E050E00E944702B0
:1015A00080E090E060E070E044E050E00E9447029C
:1015B00080E090E064E070E040E050E00E9447028C
:1015C00080E090E064E070E044E050E00E94470278
:1015D0008AEF90E00E94A30080E00E94BC0586E4B0
:1015E00090E00E94A30080E090E060E070E040E0C6
:1015F00050E024E030E00E94FB0382E090E060E0F5
:1016000070E040E050E024E030E00E944D0484E0CF
:1016100090E060E070E040E050E024E030E00E94C4
:101620004D048AEF90E00E94A30080E00E94BC0578
:1016300086E490E00E94A30080E090E060E070E02B
:1016400040E050E024E030E00E94FB0380E090E0C6
:1016500060E070E040E050E024E030E00E944D04A3
:1016600082E090E060E070E040E050E024E030E0B4
:101670000E944D0484E090E060E070E040E050E0C3
:1016800024E030E00E944D048AEF90E00E94A30025
:1016900080E00E94BC0586E490E00E94A30080E008
:1016A00090E060E070E043E050E00E94230280E0C0
:1016B00090E064E070E041E050E00E94230280E0AE
:1016C00090E060E070E040E050E024E030E00E9414
:1016D0004D0482E090E060E070E040E050E024E003
:1016E00030E00E944D0484E090E060E070E040E073
:1016F00050E024E030E00E944D0480E090E064E09F
:1017000070E040E050E00E94470280E090E060E03E
:1017100070E044E050E00E9447028AEF90E00E94AF
:10172000A30080E00E94BC0586E490E00E94A30034
:1017300080E090E060E070E043E050E00E9423022F
:1017400080E090E064E070E041E050E00E9423021D
:1017500080E090E060E070E040E050E024E030E0C5
:101760000E944D0482E090E060E070E040E050E0D4
:1017700024E030E00E944D0484E090E060E070E0FE
:1017800040E050E024E030E00E944D0480E090E032
:1017900064E070E040E050E00E94470280E090E0AA
:1017A00060E070E044E050E00E9447028AEF90E081
:1017B0000E94A30080E00E94BC0586E490E00E94A5
:1017C000A30080E090E062E070E040E050E024E0C0
:1017D00030E00E94FB0380E090E061E070E040E0D8
:1017E00050E00E94230280E090E063E070E040E07F
:1017F00050E00E94230280E090E061E070E044E06D
:1018000050E00E94230280E090E063E070E044E05A
:1018100050E00E9423028AEF90E00E94A30080E043
:101820000E94BC0586E490E00E94A30080E090E066
:1018300060E070E040E050E024E030E00E94FB0314
:1018400080E090E064E070E040E050E024E030E0D0
:101850000E94FB0380E090E060E070E040E050E038
:1018600024E030E00E944D0484E090E060E070E00D
:1018700040E050E024E030E00E944D0480E090E041
:1018800060E070E040E050E00E94470280E090E0BD
:1018900060E070E044E050E00E94470280E090E0A9
:1018A00064E070E040E050E00E94470280E090E099
:1018B00064E070E044E050E00E9447028AEF90E06C
:1018C0000E94A30080E00E94BC0586E490E00E9494
:1018D000A30080E090E060E070E040E050E024E0B1
:1018E00030E00E94FB0380E090E064E070E040E0C4
:1018F00050E024E030E00E94FB0380E090E061E0F3
:1019000070E043E050E00E94230280E090E062E05B
:1019100070E042E050E00E94230280E090E063E04B
:1019200070E041E050E00E9423028AEF90E00E94C4
:10193000A30080E00E94BC0586E490E00E94A30022
:1019400084E090E060E070E041E050E023E030E0CF
:101950000E944D0480E090E060E070E043E050E0E1
:101960000E94230280E090E063E070E042E050E0FB
:101970000E94230280E090E062E070E042E050E0EC
:101980000E94230280E090E062E070E040E050E0DE
:101990000E94230280E090E064E070E043E050E0C9
:1019A0000E9423028AE892E00E94A30080E00E9445
:1019B000BC0586E490E00E94A30080E090E060E037
:1019C00070E040E050E024E030E00E94FB0380E063
:1019D00090E064E070E040E050E024E030E00E94FD
:1019E000FB0382E090E060E070E040E050E024E043
:1019F00030E00E944D0484E090E060E070E040E060
:101A000050E024E030E00E944D0480E090E060E08F
:101A100070E044E050E00E94470280E090E064E023
:101A200070E044E050E00E9447028AEF90E00E949C
:101A3000A30080E00E94BC0580E00E94BC0586E413
:101A400090E00E94A30080E090E060E070E040E061
:101A500050E024E030E00E94FB0380E090E064E08E
:101A600070E040E050E024E030E00E94FB0380E0C2
:101A700090E060E070E040E050E024E030E00E9460
:101A80004D0480E090E060E070E040E050E00E94B3
:101A9000470280E090E064E070E040E050E00E94A7
:101AA00047028AEF90E00E94A30080E00E94BC05FC
:101AB00086E490E00E94A30080E090E062E070E0A5
:101AC00040E050E024E030E00E94FB0380E090E042
:101AD00060E070E040E050E024E030E00E94FB0372
:101AE00080E090E062E070E041E050E00E94470258
:101AF00080E090E060E070E041E050E00E9447024A
:101B000080E090E064E070E040E050E024E030E00D
:101B10000E94FB0380E090E064E070E041E050E070
:101B20000E94470280E00E94BC0586E490E00E948B
:101B3000A30080E090E060E070E040E050E024E04E
:101B400030E00E94FB0380E090E064E070E040E061
:101B500050E024E030E00E94FB0382E090E060E08F
:101B600070E040E050E024E030E00E944D0484E06A
:101B700090E060E070E040E050E024E030E00E945F
:101B80004D0480E090E060E070E044E050E00E94AE
:101B9000470280E090E064E070E044E050E00E94A2
:101BA00047028AEF90E00E94A30080E00E94BC05FB
:101BB00080E00E94BC0586E490E00E94A30080E0E3
:101BC00090E060E070E040E050E024E030E00E940F
:101BD000FB0380E090E064E070E040E050E024E04F
:101BE00030E00E94FB0380E090E060E070E040E0C5
:101BF00050E024E030E00E944D0480E090E060E09E
:101C000070E040E050E00E94470280E090E064E035
:101C100070E040E050E00E9447028AEF90E00E94AE
:101C2000A30080E00E94BC0586E490E00E94A3002F
:101C300080E090E062E070E040E050E024E030E0DE
:101C40000E94FB0380E090E060E070E040E050E044
:101C500024E030E00E94FB0380E090E062E070E06E
:101C600041E050E00E94470280E090E060E070E0D8
:101C700041E050E00E94470280E090E064E070E0C4
:101C800040E050E024E030E00E94FB0380E090E080
:101C900064E070E041E050E00E94470280E00E9472
:101CA000BC0586E490E00E94A30080E090E060E044
:101CB00070E040E050E024E030E00E94FB0380E070
:101CC00090E064E070E040E050E024E030E00E940A
:101CD000FB0382E090E060E070E040E050E024E050
:101CE00030E00E944D0484E090E060E070E040E06D
:101CF00050E024E030E00E944D0480E090E060E09D
:101D000070E044E050E00E94470280E090E064E030
:101D100070E044E050E00E9447028AEF90E00E94A9
:101D2000A30080E00E94BC0580E00E94BC0586E420
:101D300090E00E94A30080E090E060E070E040E06E
:101D400050E024E030E00E94FB0380E090E064E09B
:101D500070E040E050E024E030E00E94FB0380E0CF
:101D600090E060E070E040E050E024E030E00E946D
:101D70004D0480E090E060E070E040E050E00E94C0
:101D8000470280E090E064E070E040E050E00E94B4
:101D900047028AEF90E00E94A30080E00E94BC0509
:101DA00086E490E00E94A30080E090E062E070E0B2
:101DB00040E050E024E030E00E94FB0380E090E04F
:101DC00060E070E040E050E024E030E00E94FB037F
:101DD00080E090E062E070E041E050E00E94470265
:101DE00080E090E060E070E041E050E00E94470257
:101DF00080E090E064E070E040E050E024E030E01B
:101E00000E94FB0380E090E064E070E041E050E07D
:101E10000E9447028AE892E00E94A30080E00E94AC
:101E2000BC058AE892E00E94A3001F910F910895DB
:101E3000EF92FF920F931F93CF93DF9304E010E094
:101E40001CC0C70160E070E0AE010E946C028823F4
:101E500039F0C80160E070E0AE010E94230206C0C4
:101E6000C80160E070E0AE010E9447022196C530D3
:101E7000D10539F70150104039F0C0E0D0E07801C9
:101E80000894E108F108DDCFDF91CF911F910F9108
:101E9000FF90EF900895EF92FF920F931F93CF93CF
:101EA000DF9300E010E01EC080E090E0B701AE01DB
:101EB0000E946C02882339F080E090E0B801AE0106
:101EC0000E94230206C080E090E0B801AE010E94AB
:101ED00047022196C530D10539F70F5F1F4F0430F7
:101EE000110539F0C0E0D0E078010894E11CF11C44
:101EF000DBCF0E94180F86E990E00E94A300DF91DB
:101F0000CF911F910F91FF90EF900895CF92DF92A4
:101F1000EF92FF920F931F93CF93DF93EB017A0120
:101F20006901892B49F480E090E064E070E044E0CE
:101F300050E00E94470208C080E090E064E070E05A
:101F400044E050E00E942302CD2B49F480E090E071
:101F500064E070E043E050E00E94470208C080E087
:101F600090E064E070E043E050E00E942302EF283C
:101F700049F480E090E064E070E042E050E00E94CC
:101F8000470208C080E090E064E070E042E050E08A
:101F90000E942302CD2849F480E090E064E070E0E4
:101FA00041E050E00E94470208C080E090E064E019
:101FB00070E041E050E00E942302012B49F480E0F0
:101FC00090E064E070E040E050E00E94470208C00A
:101FD00080E090E064E070E040E050E00E94230286
:101FE0000E944B0FDF91CF911F910F91FF90EF90C7
:101FF000DF90CF9008950F931F9381E090E060E011
:1020000070E040E050E020E030E001E010E00E94AD
:10201000860F80E090E061E070E041E050E021E078
:1020200030E000E010E00E94860F80E090E060E089
:1020300070E040E050E020E030E00E94860F1F9109
:102040000F9108950F931F9380E090E061E070E09E
:1020500041E050E021E030E000E010E00E94860F17
:1020600081E090E060E070E040E050E020E030E0AF
:1020700001E010E00E94860F80E090E060E070E0F8
:1020800040E050E020E030E000E010E00E94860FE9
:102090001F910F9108950F931F9380E090E061E0EE
:1020A00070E040E050E021E030E000E010E00E940D
:1020B000860F80E090E061E070E040E050E021E0D9
:1020C00030E00E94860F80E090E061E070E040E048
:1020D00050E021E030E00E94860F80E090E060E078
:1020E00070E040E050E020E030E00E94860F1F9159
:1020F0000F9108950F931F9380E090E060E070E0EF
:1021000040E050E021E030E001E010E00E94860F66
:1021100080E090E060E070E040E050E020E030E0FF
:1021200000E010E00E94860F1F910F9108950F9319
:102130001F9380E090E060E070E040E050E020E03D
:1021400030E001E010E00E94860F80E090E060E067
:1021500070E040E050E020E030E000E010E00E945D
:10216000860F1F910F9108950F931F9381E090E0C8
:1021700061E070E041E050E020E030E001E010E09C
:102180000E94860F80E090E060E070E040E050E068
:1021900020E030E000E010E00E94860F1F910F91D8
:1021A00008950F931F9380E090E060E070E040E0BE
:1021B00050E020E030E000E010E00E94860F80E078
:1021C00090E060E070E040E050E020E030E00E940D
:1021D000860F80E090E060E070E040E050E020E0BA
:1021E00030E00E94860F80E090E060E070E040E028
:1021F00050E020E030E00E94860F1F910F9108957B
:102200000F931F9381E090E061E070E040E050E0C8
:1022100020E030E000E010E00E94860F80E090E0D7
:1022200060E070E040E050E020E030E00E94860F87
:102230001F910F9108950F931F9380E090E061E04C
:1022400070E040E050E020E030E000E010E00E946C
:10225000860F81E090E060E070E040E050E020E038
:1022600030E00E94860F81E090E060E070E041E0A5
:1022700050E020E030E001E010E00E94860F81E0B5
:1022800090E060E070E041E050E020E030E000E00D
:1022900010E00E94860F80E090E061E070E040E096
:1022A00050E020E030E00E94860F80E090E060E0A7
:1022B00070E040E050E020E030E00E94860F1F9187
:1022C0000F9108950F931F9381E090E060E070E01C
:1022D00040E050E020E030E001E010E00E94860F96
:1022E00081E090E060E070E040E050E021E030E02C
:1022F0000E94860F81E090E060E070E041E050E0F5
:1023000020E030E00E94860F81E090E061E070E024
:1023100040E050E020E030E00E94860F81E090E055
:1023200060E070E040E050E020E030E00E94860F86
:1023300080E090E060E070E040E050E020E030E0DD
:1023400000E010E00E94860F1F910F9108950F93F7
:102350001F9381E090E060E070E040E050E020E01A
:1023600030E000E010E00E94860F80E090E061E045
:1023700070E040E050E020E030E00E94860F80E016
:1023800090E060E070E041E050E021E030E001E00A
:1023900010E00E94860F80E090E061E070E040E095
:1023A00050E020E030E000E010E00E94860F81E085
:1023B00090E060E070E040E050E020E030E00E941B
:1023C000860F80E090E060E070E040E050E020E0C8
:1023D00030E00E94860F1F910F9108950F931F9375
:1023E00081E090E060E070E040E050E020E030E02C
:1023F00001E010E00E94860F80E090E061E070E074
:1024000040E050E021E030E000E010E00E94860F64
:1024100080E090E060E070E041E050E020E030E0FB
:102420000E94860F80E090E061E070E040E050E0C4
:1024300021E030E00E94860F81E090E060E070E0F3
:1024400040E050E020E030E001E010E00E94860F24
:1024500080E090E060E070E040E050E020E030E0BC
:1024600000E010E00E94860F1F910F9108950F93D6
:102470001F9381E090E061E070E041E050E021E0F6
:1024800030E001E010E00E94860F80E090E060E024
:1024900070E040E050E021E030E000E010E00E9419
:1024A000860F80E090E060E070E041E050E020E0E6
:1024B00030E00E94860F80E090E060E070E040E055
:1024C00050E021E030E00E94860F81E090E061E082
:1024D00070E041E050E021E030E001E010E00E94D7
:1024E000860F80E090E060E070E040E050E020E0A7
:1024F00030E000E010E00E94860F1F910F910895D8
:102500000F931F9381E090E061E070E041E050E0C4
:1025100020E030E000E010E00E94860F80E090E0D4
:1025200060E070E040E050E021E030E00E94860F83
:1025300080E090E060E070E040E050E020E030E0DB
:1025400001E010E00E94860F80E090E060E070E023
:1025500040E050E021E030E000E010E00E94860F13
:1025600081E090E061E070E041E050E020E030E0A8
:102570000E94860F80E090E060E070E040E050E074
:1025800020E030E00E94860F1F910F9108950F9375
:102590001F9381E090E061E070E041E050E021E0D5
:1025A00030E000E010E00E94860F80E090E060E004
:1025B00070E040E050E020E030E001E010E00E94F8
:1025C000860F80E090E060E070E040E050E020E0C6
:1025D00030E00E94860F81E090E061E070E041E031
:1025E00050E021E030E000E010E00E94860F80E043
:1025F00090E060E070E040E050E020E030E00E94D9
:10260000860F1F910F9108950F931F9381E090E023
:1026100060E070E040E050E020E030E000E010E0FA
:102620000E94860F81E090E060E070E040E050E0C2
:1026300020E030E00E94860F81E090E061E070E0F1
:1026400041E050E021E030E001E010E00E94860F20
:1026500081E090E060E070E040E050E020E030E0B9
:1026600000E010E00E94860F81E090E060E070E002
:1026700040E050E020E030E00E94860F80E090E0F3
:1026800060E070E040E050E020E030E00E94860F23
:102690001F910F9108950F931F9380E090E061E0E8
:1026A00070E040E050E020E030E001E010E00E9407
:1026B000860F81E090E060E070E041E050E020E0D3
:1026C00030E00E94860F81E090E060E070E041E041
:1026D00050E020E030E00E94860F81E090E060E072
:1026E00070E040E050E021E030E000E010E00E94C7
:1026F000860F80E090E060E070E040E050E020E095
:1027000030E00E94860F1F910F9108950F931F9341
:1027100081E090E061E070E041E050E021E030E0F5
:1027200001E010E00E94860F81E090E060E070E040
:1027300041E050E020E030E000E010E00E94860F31
:1027400081E090E060E070E041E050E021E030E0C6
:102750000E94860F80E090E061E070E040E050E091
:1027600020E030E001E010E00E94860F80E090E081
:1027700060E070E040E050E020E030E000E010E099
:102780000E94860F1F910F9108950F931F9380E071
:1027900090E061E070E041E050E021E030E000E0F6
:1027A00010E00E94860F81E090E060E070E040E081
:1027B00050E020E030E001E010E00E94860F81E070
:1027C00090E060E070E040E050E021E030E00E9406
:1027D000860F80E090E061E070E041E050E021E0B1
:1027E00030E000E010E00E94860F80E090E060E0C2
:1027F00070E040E050E020E030E00E94860F1F9142
:102800000F9108950F931F9381E090E061E070E0D5
:1028100041E050E021E030E001E010E00E94860F4E
:1028200081E090E060E070E041E050E020E030E0E6
:1028300000E010E00E94860F81E090E060E070E030
:1028400041E050E020E030E00E94860F80E090E020
:1028500061E070E040E050E020E030E00E94860F50
:1028600080E090E060E070E040E050E020E030E0A8
:102870000E94860F1F910F9108950F931F9380E080
:1028800090E061E070E041E050E021E030E000E005
:1028900010E00E94860F81E090E060E070E040E090
:1028A00050E020E030E001E010E00E94860F81E07F
:1028B00090E060E070E040E050E020E030E00E9416
:1028C000860F80E090E061E070E041E050E021E0C0
:1028D00030E000E010E00E94860F80E090E060E0D1
:1028E00070E040E050E020E030E00E94860F1F9151
:1028F0000F9108950F931F9381E090E061E070E0E5
:1029000041E050E021E030E001E010E00E94860F5D
:1029100080E090E061E070E040E050E020E030E0F6
:1029200000E010E00E94860F80E090E060E070E040
:1029300041E050E020E030E00E94860F80E090E02F
:1029400060E070E040E050E021E030E00E94860F5F
:1029500081E090E061E070E041E050E021E030E0B3
:1029600001E010E00E94860F80E090E060E070E0FF
:1029700040E050E020E030E000E010E00E94860FF0
:102980001F910F9108950F931F9381E090E061E0F4
:1029900070E041E050E021E030E001E010E00E9412
:1029A000860F80E090E061E070E040E050E020E0E1
:1029B00030E000E010E00E94860F80E090E060E0F0
:1029C00070E041E050E020E030E00E94860F80E0BF
:1029D00090E061E070E040E050E020E030E00E94F4
:1029E000860F81E090E061E070E041E050E021E09E
:1029F00030E001E010E00E94860F80E090E060E0AF
:102A000070E040E050E020E030E000E010E00E94A4
:102A1000860F1F910F9108950F931F9381E090E00F
:102A200061E070E041E050E021E030E001E010E0E2
:102A30000E94860F80E090E060E070E040E050E0AF
:102A400020E030E00E94860F80E090E060E070E0DF
:102A500040E050E020E030E00E94860F80E090E00F
:102A600060E070E040E050E020E030E00E94860F3F
:102A700080E090E060E070E040E050E020E030E096
:102A800000E010E00E94860F1F910F9108950F93B0
:102A90001F9381E090E061E070E041E050E021E0D0
:102AA00030E001E010E00E94860F80E090E060E0FE
:102AB00070E041E050E020E030E000E010E00E94F3
:102AC000860F80E090E061E070E040E050E021E0BF
:102AD00030E00E94860F81E090E060E070E040E02E
:102AE00050E020E030E001E010E00E94860F80E03E
:102AF00090E060E070E040E050E020E030E000E096
:102B000010E00E94860F1F910F9108950F931F935D
:102B100081E090E060E070E040E050E021E030E0F3
:102B200000E010E00E94860F81E090E060E070E03D
:102B300040E050E020E030E001E010E00E94860F2D
:102B400081E090E060E070E040E050E020E030E0C4
:102B50000E94860F81E090E061E070E041E050E08B
:102B600021E030E000E010E00E94860F80E090E07D
:102B700060E070E040E050E020E030E00E94860F2E
:102B80001F910F9108950F931F9381E090E060E0F3
:102B900070E040E050E020E030E001E010E00E9412
:102BA000860F81E090E061E070E041E050E021E0DC
:102BB00030E00E94860F81E090E060E070E040E04D
:102BC00050E020E030E00E94860F1F910F910895A1
:102BD0000F931F9381E090E061E070E041E050E0EE
:102BE00021E030E001E010E00E94860F80E090E0FC
:102BF00060E070E041E050E020E030E000E010E014
:102C00000E94860F80E090E060E070E041E050E0DC
:102C100020E030E00E94860F81E090E061E070E00B
:102C200041E050E021E030E001E010E00E94860F3A
:102C300080E090E060E070E040E050E020E030E0D4
:102C400000E010E00E94860F1F910F9108950F93EE
:102C50001F9380E090E061E070E041E050E021E00F
:102C600030E000E010E00E94860F81E090E060E03C
:102C700070E040E050E020E030E001E010E00E9431
:102C8000860F81E090E060E070E040E050E020E0FE
:102C900030E00E94860F81E090E060E070E041E06B
:102CA00050E020E030E00E94860F81E090E060E09C
:102CB00070E041E050E021E030E000E010E00E94F0
:102CC000860F80E090E060E070E040E050E020E0BF
:102CD00030E00E94860F1F910F9108950F931F936C
:102CE00081E090E061E070E041E050E021E030E020
:102CF00001E010E00E94860F81E090E060E070E06B
:102D000041E050E020E030E000E010E00E94860F5B
:102D100081E090E060E070E041E050E020E030E0F1
:102D20000E94860F81E090E060E070E040E050E0BB
:102D300020E030E00E94860F80E090E060E070E0EC
:102D400040E050E020E030E00E94860F1F910F919C
:102D500008950F931F9381E090E061E070E041E0FF
:102D600050E021E030E001E010E00E94860F81E0B9
:102D700090E060E070E041E050E020E030E00E9450
:102D8000860F81E090E060E070E041E050E020E0FC
:102D900030E00E94860F81E090E060E070E040E06B
:102DA00050E020E030E00E94860F80E090E060E09C
:102DB00070E040E050E020E030E000E010E00E94F1
:102DC000860F1F910F9108950F931F9381E090E05C
:102DD00061E070E041E050E021E030E001E010E02F
:102DE0000E94860F81E090E060E070E040E050E0FB
:102DF00020E030E00E94860F81E090E060E070E02B
:102E000040E050E020E030E00E94860F80E090E05B
:102E100061E070E041E050E021E030E000E010E0EF
:102E20000E94860F80E090E060E070E040E050E0BB
:102E300020E030E00E94860F1F910F9108950F93BC
:102E40001F9380E090E061E070E041E050E021E01D
:102E500030E000E010E00E94860F81E090E060E04A
:102E600070E040E050E020E030E001E010E00E943F
:102E7000860F81E090E060E070E040E050E020E00C
:102E800030E00E94860F81E090E060E070E040E07A
:102E900050E020E030E00E94860F80E090E060E0AB
:102EA00070E040E050E020E030E000E010E00E9400
:102EB000860F1F910F9108950F931F9381E090E06B
:102EC00061E070E041E050E021E030E001E010E03E
:102ED0000E94860F81E090E060E070E041E050E009
:102EE00020E030E00E94860F81E090E060E070E03A
:102EF00041E050E020E030E00E94860F80E090E06A
:102F000061E070E040E050E021E030E000E010E0FF
:102F10000E94860F80E090E060E070E040E050E0CA
:102F200020E030E00E94860F1F910F9108950F93CB
:102F30001F9380E090E061E070E041E050E021E02C
:102F400030E001E010E00E94860F81E090E060E058
:102F500070E041E050E020E030E000E010E00E944E
:102F6000860F81E090E060E070E041E050E020E01A
:102F700030E00E94860F80E090E061E070E041E088
:102F800050E021E030E001E010E00E94860F80E098
:102F900090E060E070E040E050E020E030E000E0F1
:102FA00010E00E94860F1F910F910895CF92DF923B
:102FB000EF92FF920F931F93CF93DF936C018B01DE
:102FC00080E00E94BC05C0E0D0E063E0E62EF12C7A
:102FD000E00EF11E80C0F601EC0FFD1F8081C017CE
:102FE000D10708F075C090E0FC01B197EA33F10514
:102FF00008F06EC0E65DFF4FEE0FFF1F0590F491E5
:10300000E02D09940E94971765C00E945C1762C06A
:103010000E941F175FC00E94E4165CC00E94A916A0
:1030200059C00E946E1656C00E94271653C00E94B7
:10303000E81550C00E94C3154DC00E9486154AC0B5
:103040000E94471547C00E940C1544C00E94C3143B
:1030500041C00E947A143EC00E943D143BC00E94B1
:10306000021438C00E94C51335C00E94861332C0B6
:103070000E944B132FC00E9404132CC00E94C71241
:1030800029C00E94801226C00E94371223C00E94CD
:10309000EE1120C00E94A7111DC00E9462111AC02B
:1030A0000E941B1117C00E94001114C00E94B4108E
:1030B00011C00E9422100EC00E94FB0F0BC00E9484
:1030C0004B1008C00E94971005C00E947A1002C0E1
:1030D0000E94D1102196CE15DF0508F47CCFDF9138
:1030E000CF911F910F91FF90EF90DF90CF900895B7
:1030F000CF92DF92EF92FF920F931F93CF93DF93C4
:1031000074E0E72EF12C24C0C601B801AE010E9484
:103110006C02882331F0C701B801AE010E9423027E
:1031200005C0C701B801AE010E9447022196C53013
:10313000D10551F70F5F1F4F0530110519F0C0E0A1
:10314000D0E0E2CF0894E108F108E114F10439F08D
:1031500000E010E067010894C108D108F0CFDF91CA
:10316000CF911F910F91FF90EF90DF90CF90089536
:10317000ABE0B0E0EEEBF8E10C94BE1C5C014B015F
:103180007A01FC0117821682838181FD08C06FEFEE
:103190007FEF08C142E050E0E40EF51E04C03E019E
:1031A0000894611C711CF501D380F401D3FC859156
:1031B000D3FE81914F01882309F4F1C0853259F47F
:1031C000D3FC6591D3FE61914F01653219F0062F52
:1031D00010E01BC085E290E02BC0002309F4DFC0A3
:1031E0008DEE90E0602F70E00E94B61B892B39F4C1
:1031F000033211F4106103C00C3661F41068F4015D
:10320000D3FC0591D3FE01914F0117FFE6CF0023B8
:1032100009F4C5C086EE90E0602F70E00E94B61BF6
:10322000892B51F044E050E0E40EF51E8FE390E06E
:10323000B5010E94031CB7CF033629F0033779F09C
:103240000335F1F40BC087010E5F1F4FF70180813A
:103250009181B5010E94031C7801A5CF1160F7018F
:10326000C080D18004C090E0B5010E94031CF6012B
:1032700010FD859110FF81916F018823A1F78ACFFE
:10328000043611F0093639F517FF08C0F70120811F
:1032900031814281538184E090E00AC0F70180814E
:1032A00091819C01442737FD4095542F82E090E0A6
:1032B000E80EF91E1F7E57FF08C0509540953095C7
:1032C00021953F4F4F4F5F4F1064CA01B901A301D1
:1032D0002AE030E034C00037A9F0013730F4083577
:1032E000B1F00F3609F05BC006C0053739F008377A
:1032F00009F055C008C028E030E00CC01F7E2AE06D
:1033000030E008C01061146220E130E003C01460B6
:1033100020E132E017FF08C0F701608171818281EE
:10332000938144E050E008C0F70180819181BC01A5
:1033300080E090E042E050E0E40EF51EA3010E9420
:10334000491CD82ED618012F10E006FF05C08DE2CB
:1033500090E0B5010E94031C04FF15C0FE01ED0DB5
:10336000F11D8081803379F080E390E0B5010E9407
:10337000031C02FF08C000721070C801885A9F4FDA
:10338000B5010E94031CDA94F301ED0DF11D80815B
:1033900090E0B5010E94031CDD20A9F704CFF501E0
:1033A00066817781CB012B96EEE00C94DA1CFC0150
:1033B00020FD08C023FD05C022FF02C07383628385
:1033C000518340830895EF92FF920F931F9344FF20
:1033D00002C033E011C046FF02C034E00DC0DB0183
:1033E000FC01AA0FBB1FEE1FFF1F1094D1F76A0F3D
:1033F0007B1F8E1F9F1F31E0660F771F881F991F4D
:103400003150D1F77B018C01E20EF11C011D111D21
:10341000A8019701B701CA011F910F91FF90EF908A
:1034200008950F931F93CF93DF938C01C8010E94DF
:10343000C11BEC0197FD08C00E94051D892BB1F747
:10344000CE01B8010E942F1CCE01DF91CF911F91B8
:103450000F910895A0E0B0E0E0E3FAE10C94C21C03
:10346000EC01C62E5A01122F0E94C11BAC018B32F7
:1034700019F08D3251F41068CA9409F46DC0CE0170
:103480000E94C11BAC0197FD67C06DEFD62ED12203
:103490008D2D807301F54033F1F4CA9409F447C0CF
:1034A000CE010E94C11BAC0197FD41C082E0D82A29
:1034B000483711F0483559F480E4D82ACA94B9F154
:1034C000CE010E94C11BAC0199232CF430C0D6FC64
:1034D00002C080E1D82AEE24FF248701242F205344
:1034E000283088F0D4FC09C02A3068F0D6FE05C028
:1034F0002F7D822F8151863028F0CA01BE010E94A3
:103500002F1C12C02750C801B7014D2D0E94E3198E
:103510007B018C0182E0D82ACA9461F0CE010E941E
:10352000C11BAC0197FFDACFD1FC04C015C0EE245B
:10353000FF248701D7FE08C010950095F094E09411
:10354000E11CF11C011D111DC501B801A7012D2DA4
:103550000E94D71981E001C080E0CDB7DEB7EAE074
:103560000C94DE1CA0E0B0E0E8EBFAE10C94BE1C89
:103570005C016B013A01FC01178216828824DDC0D0
:10358000812F90E00E94051D892B21F0C5010E942A
:10359000111AD3C0153249F4F601F3FC6591F3FE1C
:1035A00061916F01653269F415E2C5010E94C11B8A
:1035B00097FDCFC0181709F4C0C0B5010E942F1C99
:1035C000CDC06A3219F0162F00E006C0F3FC159149
:1035D000F3FE11916F0101E099240FC00260692D83
:1035E00070E080E090E040E20E94E319962EF60140
:1035F000F3FC1591F3FE11916F01212F20532A3016
:1036000068F301FD03C099249A9403C0992009F43A
:10361000A5C0183621F01C3699F4F6010BC0F6014E
:10362000F3FC6591F3FE6191683619F06F01162F76
:1036300007C008600460F3FC1591F3FE11916F015F
:10364000112309F48BC08DEF90E0612F70E00E9490
:10365000B61B892B09F482C0802F00FF03C0EE2423
:10366000FF2407C0F301E080F18022E030E0620E29
:10367000731E1E3651F4F5014681578160E070E0FB
:10368000C701202F0E94D71958C0133691F481FD2D
:1036900002C099249394C5010E94C11B97FD59C093
:1036A000E114F10419F0F70181937F019A9499F7DD
:1036B00042C0C5010E94111A97FD4BC01F3659F137
:1036C000103728F4143629F1193639F527C0133785
:1036D00019F0153711F51DC0C5010E94C11BEC0181
:1036E00097FD11C00E94051D892B29F0CE01B5015F
:1036F0000E942F1C08C0E114F10419F0F701C193D6
:103700007F019A9449F7E114F104A9F0F7011082BE
:1037100012C0006203C0006101C00064C501692DD0
:10372000A701202F0E942A1A882329F4F5018381FA
:10373000807379F413C000FF8394F501F380F601E0
:10374000F3FC1591F3FE11916F01112309F018CFCD
:1037500005C0882019F42FEF3FEF02C0282D30E07C
:10376000C901CDB7DEB7EEE00C94DA1CFC01059080
:10377000061621F00020D9F7C00108953197CF0136
:103780000895CF93DF93EC014B8140FF1AC046FFB1
:103790000AC04F7B4B838E819F8101969F838E83CE
:1037A0008A81282F2BC042FF13C0E881F9818081D4
:1037B000282F332727FD30952115310529F4406244
:1037C0004B832FEF3FEF1BC03196F983E88311C085
:1037D000EA85FB85CE0109959C0197FF0AC09B8174
:1037E0002F5F3F4F11F080E201C080E1892B8B8376
:1037F000E8CF8E819F8101969F838E8330E0C9013F
:10380000DF91CF9108950F931F93CF93DF938C0196
:10381000EB018B8181FF1BC082FF0DC02E813F8198
:103820008C819D812817390764F4E881F98101931F
:10383000F983E88306C0E885F985802F0995892BEF
:1038400031F48E819F8101969F838E8302C00FEF9A
:103850001FEFC801DF91CF911F910F9108959C0137
:10386000FB01838180FF11C086FD0FC09FEF2F3FBA
:10387000390759F0228380648F7D83838681978105
:1038800001979783868330E002C02FEF3FEFC90195
:103890000895FA01AA27283051F1203181F1E894E6
:1038A0006F936E7F6E5F7F4F8F4F9F4FAF4FB1E033
:1038B0003ED0B4E03CD0670F781F891F9A1FA11D2E
:1038C000680F791F8A1F911DA11D6A0F711D811D2F
:1038D000911DA11D20D009F468943F912AE0269FF4
:1038E00011243019305D3193DEF6CF010895462F53
:1038F0004770405D4193B3E00FD0C9F7F6CF462F34
:103900004F70405D4A3318F0495D31FD405241939C
:1039100002D0A9F7EACFB4E0A69597958795779559
:103920006795BA95C9F700976105710508959B01E0
:10393000AC010A2E06945795479537952795BA9569
:10394000C9F7620F731F841F951FA01D089597FB71
:10395000092E07260AD077FD04D043D006D00020D8
:103960001AF4709561957F4F0895F6F790958195BB
:103970009F4F08952F923F924F925F926F927F9246
:103980008F929F92AF92BF92CF92DF92EF92FF926F
:103990000F931F93CF93DF93CDB7DEB7CA1BDB0B1B
:1039A0000FB6F894DEBF0FBECDBF09942A883988C0
:1039B00048885F846E847D848C849B84AA84B984C7
:1039C000C884DF80EE80FD800C811B81AA81B981D3
:1039D000CE0FD11D0FB6F894DEBF0FBECDBFED01E7
:1039E0000895AA1BBB1B51E107C0AA1FBB1FA61746
:1039F000B70710F0A61BB70B881F991F5A95A9F798
:103A000080959095BC01CD010895911106C080323A
:103A100019F089508550D0F708959927882708957F
:043A2000F894FFCF48
:103A24004545535445432057484154275320594F43
:103A340055522050524F46455353494F4E3F004C28
:103A4400432048414D4255524720524F434B532047
:103A54003D29004142434445464748494A4B4C4D61
:103A64004E4F505152535455565758595A2E2C3D77
:063A7400282927000000D4
:00000001FF
