:100000000C9464000C9481000C9481000C94B70350
:100010000C9481000C9481000C9481000C9481005C
:100020000C9481000C9481000C946D030C9481005D
:100030000C9481000C9481000C9481000C9481003C
:100040000C9481000C9481000C9481000C9481002C
:100050000C948100E50C000D1E0D3D0D560D730D29
:10006000920DB10DCD0DE80D080E250E3E0E5B0E66
:100070007A0E970EB50ED50EF50E160F350F530FDF
:10008000720F920FB20FD20F100804020100180471
:10009000030000030418000102040810020204080F
:1000A00008080804020245464765666700202B2DB4
:1000B0002E3031323334353637383968006364696D
:1000C0006E6F70737578580011241FBECFE5D8E0AD
:1000D000DEBFCDBF10E0A0E6B0E0ECEAFEE202C079
:1000E00005900D92A436B107D9F711E0A4E6B0E06F
:1000F00001C01D92AD37B107E1F70E94B9050C941C
:1001000054170C94000080E090E02FEF3FEFFC01CB
:10011000EE0FFF1FE80FF91FEE0FFF1FDF01AC59B5
:10012000BF4F11963C932E93EA59FF4F31832083A2
:1001300015963C932E93149701968E31910539F7BD
:1001400008951F93CF93DF9380916A0090916B0085
:100150008F5F9F4F09F479C181E090E030C0FE01CC
:10016000E20FF31FEE0FFF1FEC59FF4F80819181CB
:100170008F5F9F4F81F080819181FD01E20FF31F1E
:10018000EE0FFF1FEC59FF4F918380832F5F3F4F8E
:100190002E31310521F7FB01EE0FFF1FE60FF71F90
:1001A000E20FF31FEE0FFF1FEC59FF4F808191818B
:1001B0008F5F9F4FB9F06E31710591F0CB01AC01AB
:1001C00020E030E0BC016F5F7F4FEB01CC0FDD1F03
:1001D000C60FD71FDA01AA0FBB1FA40FB51FBFCFD1
:1001E0004EE150E080915D0190915E018230910579
:1001F000A9F18330910534F4009779F0019709F063
:100200006DC019C08430910509F445C08430910552
:10021000B4F1059709F062C04FC0CA010196FC0114
:10022000EE0FFF1FE80FF91FEE0FFF1FEC59FF4FF6
:100230008081918122C0CA010196FC01EE0FFF1F4F
:10024000E80FF91FEE0FFF1FEC59FF4F80819181DE
:100250009183808301979183808340C0CA01019676
:10026000FC01EE0FFF1FE80FF91FEE0FFF1FEA5909
:10027000FF4F80819181918380830196ECCFCA01E9
:100280000196FC01EE0FFF1FE80FF91FEE0FFF1F95
:10029000EA59FF4FDBCFCA010196FC01EE0FFF1FA9
:1002A000E80FF91FEE0FFF1FEC59FF4F8481958176
:1002B00095838483019610C0CA010196FC01EE0F5C
:1002C000FF1FE80FF91FEE0FFF1FEC59FF4F84814E
:1002D0009581958384830197958384839A012F5F09
:1002E0003F4FF901EE0FFF1FE20FF31FEE0FFF1F4D
:1002F000EC59FF4F8081918105975CF0FA01EE0F78
:10030000FF1FE40FF51FEE0FFF1FEC59FF4F118287
:100310001082F901EE0FFF1FE20FF31FEE0FFF1F18
:10032000EA59FF4F8081918105975CF0FA01EE0F49
:10033000FF1FE40FF51FEE0FFF1FEA59FF4F118259
:100340001082F901EE0FFF1FE20FF31FEE0FFF1FE8
:10035000EC59FF4F8481958105975CF0FA01EE0F0F
:10036000FF1FE40FF51FEE0FFF1FEC59FF4F158223
:100370001482F901EE0FFF1FE20FF31FEE0FFF1FB4
:10038000EC59FF4F8081918197FF0DC0FA01EE0F6C
:10039000FF1FE40FF51FEE0FFF1FEC59FF4F84E026
:1003A00090E091838083F901EE0FFF1FE20FF31FAE
:1003B000EE0FFF1FEA59FF4F8081918197FF0DC01B
:1003C000FA01EE0FFF1FE40FF51FEE0FFF1FEA59B2
:1003D000FF4F84E090E091838083F901EE0FFF1FCF
:1003E000E20FF31FEE0FFF1FEC59FF4F8481958141
:1003F00097FF0DC0FA01EE0FFF1FE40FF51FEE0F80
:10040000FF1FEC59FF4F84E090E095838483F9014E
:10041000EE0FFF1FE20FF31FEE0FFF1FDF01AC59BE
:10042000BF4F8D919C91119790936B0180936A01BE
:10043000EA59FF4F8081918190936D0180936C0107
:1004400014968D919C91159795C080915D01909126
:100450005E018230910519F18330910534F40097E3
:1004600071F0019709F074C010C08430910559F102
:1004700084309105E4F0059709F06AC02CC0E4E6E9
:10048000F0E080819181019607C0E4E6F0E0808190
:1004900091819183808301979183808325C0E6E6D3
:1004A000F0E08081918191838083019607C0E6E628
:1004B000F0E0808191819183808301979183808393
:1004C000E4E6F0E011C0E4E6F0E0848195819583F4
:1004D0008483019607C0E4E6F0E0848195819583EA
:1004E000848301979583848380819181059714F09B
:1004F00011821082E6E6F0E080819181059714F088
:1005000011821082E4E6F0E084819581059714F071
:1005100015821482E4E6F0E08081918197FF04C0A7
:1005200084E090E091838083E6E6F0E08081918131
:1005300097FF04C084E090E091838083E4E6F0E0DC
:100540008481958197FF04C084E090E09583848343
:10055000E4E6F0E08081918190936B0180936A01E1
:10056000809166009091670090936D0180936C017B
:100570008481958190936F0180936E01DF91CF917B
:100580001F9108950E94A10008950F931F93CF9388
:10059000DF938C0120E030E0F901EE0FFF1FE20F46
:1005A000F31FEE0FFF1FEC59FF4F808191818F5F8A
:1005B0009F4F29F42F5F3F4F2E31310569F7C90155
:1005C0000197D901AA0FBB1FA20FB31FAA0FBB1F10
:1005D0009D012C593F4FE90148815981FC01EE0FE3
:1005E000FF1FE80FF91FEE0FFF1FBF016C597F4F70
:1005F000EB0159834883AA59BF4F8D919C91119764
:10060000EA59FF4F91838083F901848195819D830D
:100610008C83E80188819981918380838A819B8181
:1006200011969C938E938C819D8195838483DF9119
:10063000CF911F910F91089520E030E040EA5FE0F4
:1006400005C0FA013197F1F72F5F3F4F281739079F
:10065000C4F308958FEF8ABB17BA84BB81BB1BBA62
:1006600015BA12BAC29A979841E04093350132E028
:100670003093360124E02093370198E090933801BD
:1006800080E18093390180935F0190936001209312
:10069000610130936201409363012093780190934C
:1006A000790180937A0180E280937B0180E48093DA
:1006B0007C0112BE89B7826089BF8AE08CBF83B794
:1006C000846083BF83B7886083BF8BB780628BBF32
:1006D00084B78F7B84BF789408951F920F920FB6D2
:1006E0000F9211242F938F939F93EF93FF93E09199
:1006F0007701F0E0E858FE4F808182BB10921A012A
:100700001EC08091770190E020911A01FC01EE0F4C
:10071000FF1FEE0FFF1FE80FF91FE20FF11DEE5B49
:10072000FE4F80818BBBE0911A01F0E0E15AFE4F51
:10073000808185BB80911A018F5F80931A0180911F
:100740001A018530F0F2809177018F5F80937701F5
:100750008150843011F410927701FF91EF919F91B5
:100760008F912F910F900FBE0F901F9018951F9291
:100770000F920FB60F9211248F939F9380915D017A
:1007800090915E01019690935E0180935D010197C7
:10079000059721F410925E0110925D019F918F9157
:1007A0000F900FBE0F901F90189580915D01909152
:1007B0005E018130910551F08230910571F0892BF5
:1007C000A1F480E090E060E070E004C080E090E0A0
:1007D00064E070E040E050E006C080E090E060E05F
:1007E00070E044E050E00E94D00580E090E020EA14
:1007F0003FE0F9013197F1F7019682339105C9F78E
:100800000895EF92FF920F931F93CF93DF93EE24FF
:10081000FF2426C082E090E00BC0F8018081918126
:1008200068817981448155810E94D00583E090E000
:10083000F701EE0FFF1FEE0DFF1DE80FF91FEE0F82
:10084000FF1FEC59FF4F808191818F5F9F4F09F40B
:1008500041C00894E11CF11C2EE1E216F104D1F133
:10086000B701660F771F6E0D7F1D8B01000F111FE3
:100870000C591F4FF801808191818F5F9F4F19F4B0
:1008800080E090E0D5CFF80180819181EB01CC0F21
:10089000DD1FCA59DF4F68817981448155810E94EB
:1008A000D005888199818F5F9F4F19F481E090E096
:1008B000BFCFF80180819181688179814481558120
:1008C0000E94D005F801848195818F5F9F4F09F0C8
:1008D000A4CFA0CFDF91CF911F910F91FF90EF9008
:1008E0000895EF92FF920F931F93CF93DF938C01A4
:1008F000C0E0D0E070EAE72E7FE0F72E8FE10E94A3
:10090000690980E090E004C0F7013197F1F70196A2
:1009100080179107CCF380E00E94690980E090E0A5
:1009200004C0F7013197F1F7019680179107CCF3D6
:100930002196C430D10511F7DF91CF911F910F910E
:10094000FF90EF900895CF92DF92EF92FF920F9376
:100950001F930E948E1565E070E00E948F16D82EBE
:10096000C92E0E948E1565E070E00E948F16F82E49
:10097000E92E0E948E1565E070E00E948F16182FF8
:10098000092F8D2D9C2D6F2D7E2D412F502F0E94D4
:1009900019068130F1F2E4E6F1E0D0926401C092F0
:1009A0006501F0926601E3821093680105838D2D45
:1009B0009C2D6F2D7E2D412F502F0E94D0051F9111
:1009C0000F91FF90EF90DF90CF900895FB01209161
:1009D0006A0130916B018081918128173907D1F428
:1009E00020916C0130916D01828193812817390724
:1009F00089F420916E0130916F01848195812817CF
:100A0000390741F40E9457100E94A3048AE691E03E
:100A10000E94C5020895CF93DF9310923B0110927C
:100A20003A0110923D0110923C0110923F01109248
:100A30003E0180E090E02FEF3FEFFC01EE0FFF1F43
:100A4000E80FF91FEE0FFF1FDF01AC59BF4F1196E2
:100A50003C932E93EA59FF4F3183208315963C93A4
:100A60002E93149701968E31910539F780913A01B2
:100A700090913B01909365008093640080913C01CC
:100A800090913D01909367008093660080913E01B4
:100A900090913F01909369008093680080913A01A2
:100AA00090913B01E0915B01F0915C019183808327
:100AB00080913C0190913D01E0917501F0917601AA
:100AC0009183808380913E0190913F01E0911801D4
:100AD000F091190191838083E0917001F09171018F
:100AE000809164019091650191838083E09173010D
:100AF000F0917401809166019091670191838083E8
:100B0000E0914001F091410180916801909169016B
:100B1000918380830E94A304C0EADFE080E00E940A
:100B200069090E940104609166017091670140911A
:100B300068015091690180916401909165010E9462
:100B4000D0050E94A1008AE391E064E671E00E9472
:100B5000E60480E090E0FE013197F1F7019621E094
:100B6000843F9207C1F7DACF0E940B050E94B511AE
:100B7000FBCF1092770110921A01109234010E945B
:100B80002A031092720110925E0110925D0184EFAF
:100B900091E00E947104809134010E94B405FBCF62
:100BA000DC0185309105F8F477FD1DC065307105D5
:100BB000D4F457FD18C045305105ACF4FA01EE0FDE
:100BC000FF1FEE0FFF1FE40FF51FE60FF71FEE5B91
:100BD000FE4F208181E090E002C0880F991FAA9506
:100BE000E2F7282B20830895DC018530910500F57C
:100BF00077FD1EC065307105DCF457FD19C0453026
:100C00005105B4F4FA01EE0FFF1FEE0FFF1FE40FC2
:100C1000F51FE60FF71FEE5BFE4F208181E090E0AD
:100C200002C0880F991FAA95E2F7809582238083DE
:100C300008959C0185309105F0F477FD1CC0653066
:100C40007105CCF457FD17C045305105A4F4FA01E5
:100C5000EE0FFF1FEE0FFF1FE40FF51FE60FF71F4C
:100C6000EE5BFE4F808190E002C0959587952A95B6
:100C7000E2F78170089580E00895059778F477FD94
:100C80000DC06530710554F457FD08C090E0453043
:100C900051050CF091E081E0982701C090E0892F88
:100CA0000895DC012130310509F58530910500F505
:100CB00077FD1EC065307105DCF457FD19C0453065
:100CC0005105B4F4FA01EE0FFF1FEE0FFF1FE40F02
:100CD000F51FE60FF71FEE5BFE4F808102C0220F6B
:100CE000331FAA95E2F7822B808308950E94F405B2
:100CF0000895DC0185309105F8F477FD1DC065305D
:100D00007105D4F457FD18C045305105ACF4FA0113
:100D1000EE0FFF1FEE0FFF1FE40FF51FE60FF71F8B
:100D2000EE5BFE4F208181E090E002C0880F991FAA
:100D3000AA95E2F7282720830895FC01EE0FFF1FF4
:100D4000EE0FFF1FE80FF91FEE5BFE4F8FE1808370
:100D500081838283838384830895FC01EE0FFF1FC8
:100D6000EE0FFF1FE80FF91FEE5BFE4F108211829E
:100D7000128213821482089521E030E002C0220F13
:100D8000331F8A95E2F760E070E012C0FD01E40FC6
:100D9000F51FEE5BFE4F8081822B80834F5F5F4F9C
:100DA0004530510599F76F5F7F4F6530710551F000
:100DB00040E050E0DB01AA0FBB1FAA0FBB1FA60F2C
:100DC000B71FE4CF089521E030E002C0220F331FA7
:100DD0008A95E2F7209560E070E012C0FD01E40F13
:100DE000F51FEE5BFE4F8081822380834F5F5F4F54
:100DF0004530510599F76F5F7F4F6530710551F0B0
:100E000040E050E0DB01AA0FBB1FAA0FBB1FA60FDB
:100E1000B71FE4CF0895FC01EE5BFE4F8FE18083A6
:100E2000858382878787848B0895FC01EE5BFE4F64
:100E30001082158212861786148A0895883709F061
:100E400053C01416150664F081E090E002C0880FCC
:100E5000991F6A95E2F7982F909540E050E03AC0CC
:100E600081E090E002C0880F991F6A95E2F7982F01
:100E700040E050E013C0FB01E20FF31FEE5BFE4FBA
:100E80008081892B80832F5F3F4F2530310599F773
:100E90004F5F5F4F4530510509F459C020E030E005
:100EA000BA01660F771F660F771F640F751FE3CFB8
:100EB000FB01E20FF31FEE5BFE4F808189238083ED
:100EC0002F5F3F4F2530310599F74F5F5F4F45301A
:100ED0005105E9F120E030E0BA01660F771F660F97
:100EE000771F640F751FE4CF893799F4FB01EE5B20
:100EF000FE4F141615063CF48FE1808385838287AC
:100F00008787848B08951082158212861786148A2B
:100F100008958A37E1F4FB01EE0FFF1FEE0FFF1F6C
:100F2000141615065CF4E60FF71FEE5BFE4F8FE11B
:100F3000808381838283838384830895E60FF71FF0
:100F4000EE5BFE4F1082118212821382148208958A
:100F5000AF92BF92CF92DF92EF92FF920F931F93C7
:100F6000CF93DF935C016B0179012417350714F4EB
:100F70007A01A901EA0107C0C501B601AE019801D5
:100F80000E9451062196EC16FD06B4F7DF91CF9131
:100F90001F910F91FF90EF90DF90CF90BF90AF9097
:100FA0000895AF92BF92CF92DF92EF92FF920F938C
:100FB0001F93CF93DF935C016B01790124173507F1
:100FC00014F47A01A901EA0107C0CE01B601A50116
:100FD00098010E9451062196EC16FD06B4F7DF91A8
:100FE000CF911F910F91FF90EF90DF90CF90BF9026
:100FF000AF900895AF92BF92CF92DF92EF92FF929F
:101000000F931F93CF93DF935C016B01790124173A
:10101000350714F47A01A901EA0107C0C601BE012F
:10102000A50198010E9451062196EC16FD06B4F721
:10103000DF91CF911F910F91FF90EF90DF90CF90B4
:10104000BF90AF9008952F923F925F926F927F92E0
:101050008F929F92AF92BF92CF92DF92EF92FF92C8
:101060000F931F93CF93DF93FC01502E841B950B9E
:1010700097FF03C0909581959F4FDB01A21BB30B97
:10108000B7FF03C0B095A195BF4FE417F5073CF437
:1010900066246A94762C88248A94982C06C001E0F1
:1010A000602E712C11E0812E912C621773073CF495
:1010B000AA24AA94BA2CCC24CA94DC2C06C0F1E051
:1010C000AF2EB12CE1E0CE2ED12C8A179B075CF01D
:1010D000EC01D595C7951D01DC017C0166247724C0
:1010E000CC24DD2409C0ED01D595C7951C017D01F7
:1010F00088249924AA24BB24B90100E010E08AE7DF
:10110000581611F54530510508F072C077FD70C0D2
:10111000653071050CF06CC0FB01EE5BFE4F24895D
:1011200081E090E0042E02C0880F991F0A94E2F734
:10113000282B248B2785282B27872285282B22875D
:101140002581282B25832AC088E7581651F545307C
:10115000510508F04DC077FD4BC0653071050CF0AE
:1011600047C0FB01EE0FFF1FEE0FFF1FE60FF71F3B
:10117000EE5BFE4F248181E090E0042E02C0880FD8
:10118000991F0A94E2F7282B24832381282B238399
:101190002281282B22832181282B21832081822BCD
:1011A00026C089E7581621F577FD22C06530710504
:1011B000FCF457FD1DC045305105D4F4FA01EE0F83
:1011C000FF1FEE0FFF1FE40FF51FE60FF71FEE5B8B
:1011D000FE4F8081806180838081886080838081F0
:1011E000846080838081826080838081816080834D
:1011F000C20DD31DCE15DF0534F0CE19DF09460D23
:10120000571D6A0D7B1D0F5F1F4FA017B1072CF0F4
:10121000480D591D6C0D7D1D72CFDF91CF911F912F
:101220000F91FF90EF90DF90CF90BF90AF909F9085
:101230008F907F906F905F903F902F90089520E067
:1012400030E0F901EE0FFF1FEE0FFF1FE20FF31F5B
:10125000DF01A55EBE4F8C91EE5BFE4F8083119641
:101260008C911197818312968C9112978283139699
:101270008C911397838314968C9184832F5F3F4FB7
:1012800025303105F1F6089520E030E0F901EE0F48
:10129000FF1FEE0FFF1FE20FF31FDF01AE5BBE4F1C
:1012A0008C91E55EFE4F808311968C91119781831E
:1012B00012968C911297828313968C911397838345
:1012C00014968C9184832F5F3F4F25303105F1F6C2
:1012D000089520E030E0F901EE0FFF1FEE0FFF1F31
:1012E000E20FF31FEE5BFE4F808381838283838353
:1012F00084832F5F3F4F2530310569F7089520E043
:1013000030E0F901EE0FFF1FEE0FFF1FE20FF31F9A
:10131000EE5BFE4F108211821282138214822F5FC5
:101320003F4F2530310569F7FC01EE5BFE4F8EE043
:10133000848B91E197878FE18287958390830895CD
:1013400020E030E0F901EE0FFF1FEE0FFF1FE20F6C
:10135000F31FEE5BFE4F1082118212821382148201
:101360002F5F3F4F2530310569F7FC01EE5BFE4FE3
:101370008FE0848B91E1978782879583808308959E
:1013800020E030E0F901EE0FFF1FEE0FFF1FE20F2C
:10139000F31FEE5BFE4F10821182128213821482C1
:1013A0002F5F3F4F2530310569F7FC01EE5BFE4FA3
:1013B0008EE18083848B81E087878287858308958F
:1013C00020E030E0F901EE0FFF1FEE0FFF1FE20FEC
:1013D000F31FEE5BFE4F1082118212821382148281
:1013E0002F5F3F4F2530310569F7FC01EE5BFE4F63
:1013F0009FE0948B81E1878782878583908308951E
:1014000020E030E0F901EE0FFF1FEE0FFF1FE20FAB
:10141000F31FEE5BFE4F1082118212821382148240
:101420002F5F3F4F2530310569F7FC01EE5BFE4F22
:101430002FE1248B91E0978787E082879583208333
:10144000089520E030E0F901EE0FFF1FEE0FFF1FBF
:10145000E20FF31FEE5BFE4F1082118212821382A5
:1014600014822F5F3F4F2530310569F7FC01EE5B99
:10147000FE4F8FE1848B91E0978787E08287958389
:101480009083089520E030E0F901EE0FFF1FEE0F8A
:10149000FF1FE20FF31FEE5BFE4F108211821282DC
:1014A000138214822F5F3F4F2530310569F7FC010D
:1014B000EE5BFE4F9EE0948B81E087878DE1828713
:1014C00081E185839083089520E030E0F901EE0FFB
:1014D000FF1FEE0FFF1FE20FF31FEE5BFE4F1082A8
:1014E00011821282138214822F5F3F4F2530310503
:1014F00069F7FC01EE5BFE4F91E1948B97878FE1DA
:10150000828795839083089520E030E0F901EE0F03
:10151000FF1FEE0FFF1FE20FF31FEE5BFE4F108267
:1015200011821282138214822F5F3F4F25303105C2
:1015300069F7FC01EE5BFE4F9FE1948B84E08787A7
:10154000828785839083089520E030E0F901EE0FD3
:10155000FF1FEE0FFF1FE20FF31FEE5BFE4F108227
:1015600011821282138214822F5F3F4F2530310582
:1015700069F7FC01EE5BFE4F8FE1848B80E187878A
:10158000828781E185838EE08083089520E030E0CA
:10159000F901EE0FFF1FEE0FFF1FE20FF31FEE5BCF
:1015A000FE4F108211821282138214822F5F3F4FEE
:1015B0002530310569F7FC01EE5BFE4F29E0248BF5
:1015C00095E0978783E0828795832083089520E0C4
:1015D00030E0F901EE0FFF1FEE0FFF1FE20FF31FC8
:1015E000EE5BFE4F108211821282138214822F5FF3
:1015F0003F4F2530310569F7FC01EE5BFE4F81E07E
:10160000848B8787828785838FE18083089520E09C
:1016100030E0F901EE0FFF1FEE0FFF1FE20FF31F87
:10162000EE5BFE4F108211821282138214822F5FB2
:101630003F4F2530310569F7FC01EE5BFE4F91E12C
:10164000948B8BE1878785E18287958390830895CA
:1016500020E030E0F901EE0FFF1FEE0FFF1FE20F59
:10166000F31FEE5BFE4F10821182128213821482EE
:101670002F5F3F4F2530310569F7FC01EE5BFE4FD0
:1016800091E1948B83E1878785E1828789E1858376
:101690009083089520E030E0F901EE0FFF1FEE0F78
:1016A000FF1FE20FF31FEE5BFE4F108211821282CA
:1016B000138214822F5F3F4F2530310569F7FC01FB
:1016C000EE5BFE4F9EE0948B81E187878287858366
:1016D0009083089520E030E0F901EE0FFF1FEE0F38
:1016E000FF1FE20FF31FEE5BFE4F1082118212828A
:1016F000138214822F5F3F4F2530310569F7FC01BB
:10170000EE5BFE4F9FE0948B81E18787928781E0BB
:1017100085838083089520E030E0F901EE0FFF1FFC
:10172000EE0FFF1FE20FF31FEE5BFE4F10821182E0
:101730001282138214822F5F3F4F2530310569F7E3
:10174000FC01EE5BFE4F86E0848B89E08787828711
:101750008EE0858380E18083089520E030E0F90108
:10176000EE0FFF1FEE0FFF1FE20FF31FEE5BFE4FAA
:10177000108211821282138214822F5F3F4F253014
:10178000310569F7FC01EE5BFE4F9FE0948B81E130
:101790008787928785E0858389E08083089520E0AC
:1017A00030E0F901EE0FFF1FEE0FFF1FE20FF31FF6
:1017B000EE5BFE4F108211821282138214822F5F21
:1017C0003F4F2530310569F7FC01EE5BFE4F8EE19E
:1017D000848B81E087878EE0828780E185838FE03C
:1017E0008083089520E030E0F901EE0FFF1FEE0F37
:1017F000FF1FE20FF31FEE5BFE4F10821182128279
:10180000138214822F5F3F4F2530310569F7FC01A9
:10181000EE5BFE4F84E080838583828787878FE13C
:10182000848B089520E030E0F901EE0FFF1FEE0FEA
:10183000FF1FE20FF31FEE5BFE4F10821182128238
:10184000138214822F5F3F4F2530310569F7FC0169
:10185000EE5BFE4F81E1848B8787828785838FE1F2
:101860008083089520E030E0F901EE0FFF1FEE0FB6
:10187000FF1FE20FF31FEE5BFE4F108211821282F8
:10188000138214822F5F3F4F2530310569F7FC0129
:10189000EE5BFE4F91E1948B978785E182878BE128
:1018A00085839083089520E030E0F901EE0FFF1F5B
:1018B000EE0FFF1FE20FF31FEE5BFE4F108211824F
:1018C0001282138214822F5F3F4F2530310569F752
:1018D000FC01EE5BFE4F81E1848B878782878AE083
:1018E000858384E08083089520E030E0F901EE0FE5
:1018F000FF1FEE0FFF1FE20FF31FEE5BFE4F108284
:1019000011821282138214822F5F3F4F25303105DE
:1019100069F7FC01EE5BFE4F21E1248B9AE097878B
:1019200084E0828795832083089520E030E0F901E8
:10193000EE0FFF1FEE0FFF1FE20FF31FEE5BFE4FD8
:10194000108211821282138214822F5F3F4F253042
:10195000310569F7FC01EE5BFE4F81E1848B8AE083
:10196000878784E0828785838083089520E030E044
:10197000F901EE0FFF1FEE0FFF1FE20FF31FEE5BEB
:10198000FE4F108211821282138214822F5F3F4F0A
:101990002530310569F7FC01EE5BFE4F9FE1948B2A
:1019A00088E0878784E0828782E08583908308953A
:1019B000FC018A31910508F015C3E65DFF4FEE0F7B
:1019C000FF1F0590F491E02D099480E090E0FC0168
:1019D000EE0FFF1FEE0FFF1FE80FF91FEE5BFE4F2C
:1019E0001082118212821382148201968530910531
:1019F00071F7FB01EE5BFE4F8EE0848B91E1CAC074
:101A000080E090E0FC01EE0FFF1FEE0FFF1FE80FDC
:101A1000F91FEE5BFE4F1082118212821382148234
:101A200001968530910571F7FB01EE5BFE4F8FE06B
:101A3000848B91E1978782879583B2C280E090E0A2
:101A4000FC01EE0FFF1FEE0FFF1FE80FF91FEE5B0B
:101A5000FE4F108211821282138214820196853009
:101A6000910571F7FB01EE5BFE4F8EE18083848B65
:101A700081E0878782878583089580E090E0FC017C
:101A8000EE0FFF1FEE0FFF1FE80FF91FEE5BFE4F7B
:101A90001082118212821382148201968530910580
:101AA00071F7FB01EE5BFE4F9FE03CC180E090E0F0
:101AB000FC01EE0FFF1FEE0FFF1FE80FF91FEE5B9B
:101AC000FE4F108211821282138214820196853099
:101AD000910571F7FB01EE5BFE4F2FE1248B91E046
:101AE000978787E03BC280E090E0FC01EE0FFF1F8C
:101AF000EE0FFF1FE80FF91FEE5BFE4F1082118201
:101B000012821382148201968530910571F7FB01D0
:101B1000EE5BFE4F8FE1848B91E0978787E08287B1
:101B20009583FEC180E090E0FC01EE0FFF1FEE0FF9
:101B3000FF1FE80FF91FEE5BFE4F10821182128229
:101B40001382148201968530910571F7FB01EE5BDB
:101B5000FE4F9EE0948B81E087878DE1828781E153
:101B6000DEC180E090E0FC01EE0FFF1FEE0FFF1FD3
:101B7000E80FF91FEE5BFE4F108211821282138272
:101B8000148201968530910571F7FB01EE5BFE4FE3
:101B900091E1948B97878FE1C2CF80E090E0FC01C8
:101BA000EE0FFF1FEE0FFF1FE80FF91FEE5BFE4F5A
:101BB000108211821282138214820196853091055F
:101BC00071F7FB01EE5BFE4F9FE1948B84E0ACC0AC
:101BD00080E090E0FC01EE0FFF1FEE0FFF1FE80F0B
:101BE000F91FEE5BFE4F1082118212821382148263
:101BF00001968530910571F7FB01EE5BFE4F8FE199
:101C0000848B80E18787828781E185838EE0C8C1EC
:101C100080E090E0FC01EE0FFF1FEE0FFF1FE80FCA
:101C2000F91FEE5BFE4F1082118212821382148222
:101C300001968530910571F7FB01EE5BFE4F29E0BF
:101C4000248B95E0978783E089C180E090E0FC01D8
:101C5000EE0FFF1FEE0FFF1FE80FF91FEE5BFE4FA9
:101C600010821182128213821482019685309105AE
:101C700071F7FB01EE5BFE4F81E00FC180E090E069
:101C8000FC01EE0FFF1FEE0FFF1FE80FF91FEE5BC9
:101C9000FE4F1082118212821382148201968530C7
:101CA000910571F7FB01EE5BFE4F91E1948B8BE1A7
:101CB000878785E134CF80E090E0FC01EE0FFF1FC5
:101CC000EE0FFF1FE80FF91FEE5BFE4F108211822F
:101CD00012821382148201968530910571F7FB01FF
:101CE000EE5BFE4F91E1948B83E1878785E18287EC
:101CF00089E115C180E090E0FC01EE0FFF1FEE0FBF
:101D0000FF1FE80FF91FEE5BFE4F10821182128257
:101D10001382148201968530910571F7FB01EE5B09
:101D2000FE4F9EE0948B81E187878287F8C080E038
:101D300090E0FC01EE0FFF1FEE0FFF1FE80FF91FF1
:101D4000EE5BFE4F10821182128213821482019682
:101D50008530910571F7FB01EE5BFE4F9FE0948BA0
:101D600081E18787928781E01AC180E090E0FC01E1
:101D7000EE0FFF1FEE0FFF1FE80FF91FEE5BFE4F88
:101D8000108211821282138214820196853091058D
:101D900071F7FB01EE5BFE4F86E0848B89E087875D
:101DA00082878EE0858380E1FBC080E090E0FC01CB
:101DB000EE0FFF1FEE0FFF1FE80FF91FEE5BFE4F48
:101DC000108211821282138214820196853091054D
:101DD00071F7FB01EE5BFE4F9FE0948B81E18787FB
:101DE000928785E0858389E0DBC080E090E0FC019C
:101DF000EE0FFF1FEE0FFF1FE80FF91FEE5BFE4F08
:101E0000108211821282138214820196853091050C
:101E100071F7FB01EE5BFE4F8EE1848B81E08787DB
:101E20008EE0828780E185838FE0BAC080E090E019
:101E3000FC01EE0FFF1FEE0FFF1FE80FF91FEE5B17
:101E4000FE4F108211821282138214820196853015
:101E5000910571F7FB01EE5BFE4F84E08083858383
:101E6000828787878FE1848B089580E090E0FC0172
:101E7000EE0FFF1FEE0FFF1FE80FF91FEE5BFE4F87
:101E8000108211821282138214820196853091058C
:101E900071F7FB01EE5BFE4F81E1848B87878287C0
:101EA00085838FE17DC080E090E0FC01EE0FFF1F95
:101EB000EE0FFF1FE80FF91FEE5BFE4F108211823D
:101EC00012821382148201968530910571F7FB010D
:101ED000EE5BFE4F81E1848B878782878AE0858372
:101EE00084E05EC080E090E0FC01EE0FFF1FEE0F8B
:101EF000FF1FE80FF91FEE5BFE4F10821182128266
:101F00001382148201968530910571F7FB01EE5B17
:101F1000FE4F91E1948B978785E182878BE18583E2
:101F20009083089580E090E0FC01EE0FFF1FEE0F1C
:101F3000FF1FE80FF91FEE5BFE4F10821182128225
:101F40001382148201968530910571F7FB01EE5BD7
:101F5000FE4F21E1248B9AE0978784E08287958366
:101F60002083089580E090E0FC01EE0FFF1FEE0F4C
:101F7000FF1FE80FF91FEE5BFE4F108211821282E5
:101F80001382148201968530910571F7FB01EE5B97
:101F9000FE4F81E1848B8AE0878784E08287858396
:101FA0008083089580E090E0FC01EE0FFF1FEE0FAC
:101FB000FF1FE80FF91FEE5BFE4F108211821282A5
:101FC0001382148201968530910571F7FB01EE5B57
:101FD000FE4F9FE1948B88E0878784E0828782E0D0
:101FE000858390830895282F30E021543040C90123
:101FF0000895EF92FF920F931F93CF93DF93EE24F8
:10200000FF242FC0C701B801AE010E941906882322
:10201000A9F0209739F4C701B80140E050E00E94D0
:10202000F4050CC0C701B801AE010E94F405AE0171
:1020300041505040C701B8010E94D0052196C530DB
:10204000D10501F70F5F1F4F0530110519F0C0E0F2
:10205000D0E0D8CF0894E11CF11C85E0E816F1042B
:1020600019F000E010E0F3CFDF91CF911F910F91B5
:10207000FF90EF9008950F931F930E948E158C018F
:102080000E948E159C01C80165E070E00E948F16C9
:10209000FC01C90165E070E00E948F16BC01CF0110
:1020A00044E050E00E94D0051F910F91089580E018
:1020B0000E9469090E943B108AE590E00E941C037F
:1020C0000E94F90FF7CF80E00E94690984E893E04D
:1020D0000E941C030895FF920F931F93CF93DF93E9
:1020E000C0E0D0E00FE111E087E0F82E80E00E9430
:1020F0006909FE01EE5BFE4F00831583F2861787A8
:10210000048B84EF91E00E941C032196C530D10519
:1021100069F7DF91CF911F910F91FF900895CF92B2
:10212000DF92EF92FF920F931F93CF93DF936B0198
:102130007A01C0E0D0E016C0FD01EE0FFF1FEE0FE8
:10214000FF1FEA0FFB1FEE5BFE4F0083118322830C
:10215000938384831196A530B10571F7C7010E945E
:102160001C032196CC15DD0534F5CE0166E070E048
:102170000E948F16FC01EE0FFF1FEE0FFF1FE80FEE
:10218000F91FCF0187579F4F9F0126573F4FAF0140
:1021900045575F4FBF0164577F4FA0E0B0E0E8575D
:1021A000FF4F0491FC011491F9012491FA019491DB
:1021B000FB018491C1CFDF91CF911F910F91FF90CF
:1021C000EF90DF90CF900895CF92DF92EF92FF9241
:1021D0000F931F93CF93DF936B017A0100E010E020
:1021E00043C0C0E0D0E0CE01800F911F66E070E0F8
:1021F0000E948F169C01220F331F220F331F280FBE
:10220000391FF901E857FF4FE491DE01AA0FBB1F08
:10221000AA0FBB1FAC0FBD1FAE5BBE4FEC93F90105
:10222000E757FF4FE4911196EC931197F901E657A8
:10223000FF4FE4911296EC931297F901E557FF4F87
:10224000E4911396EC93139724573F4FF90184912F
:1022500014968C932196C530D10509F0C4CFC701DF
:102260000E941C030F5F1F4F0C151D050CF4B9CF06
:10227000DF91CF911F910F91FF90EF90DF90CF9062
:1022800008950F931F93CF93DF9390E00E94F30F75
:102290008C01C0E0D0E0C801BE010E94D80C80E5EE
:1022A00090E00E941C032196C430D105A1F7C8011B
:1022B00064E070E00E94D80C84EF91E00E941C035F
:1022C000DF91CF911F910F91089585E40E944111F4
:1022D00085E40E94411183E50E94411184E50E943A
:1022E000411185E40E94411183E40E9441110E9442
:1022F00063108CE40E94411183E40E9441110E940A
:1023000063108BE40E94411182E50E94411181E437
:102310000E9441118BE40E9441118FE40E944111FF
:1023200087E50E944111089586E40E94411189E4E5
:102330000E9441118CE40E94411182E50E944111EA
:102340008FE40E94411183E50E9441110E946310B5
:1023500082E50E94411185E50E9441118CE40E94B2
:1023600041118AE50E944111089585E40E944111BE
:1023700085E40E94411183E50E94411184E50E9499
:10238000411185E40E94411183E40E9441110E94A1
:102390000B0508950F931F93CF93DF938C01C0E03B
:1023A000D0E0C801BE010E94D80C80E590E00E94F8
:1023B0001C032196C430D105A1F7C80164E070E088
:1023C0000E94D80C84EF91E00E941C03DF91CF9112
:1023D0001F910F910895CF93DF93C0E0D0E0CE011D
:1023E00064E070E00E94D80C8CEB92E00E941C0329
:1023F0002196C831D10599F7DF91CF9108950F93B8
:102400001F93CF93DF93C0E0D0E000E010E00530F1
:10241000110511F400E010E0C630D10519F4C0E058
:10242000D0E01EC0C230D10599F0C330D10534F4DC
:102430002097B1F0C130D105D1F412C0C430D1051C
:1024400079F0C430D10544F0C530D10581F40CC019
:10245000C8010E94CF0B0BC0C8010E94F20B07C03D
:10246000C8010E94000A03C0C8010E94C009219649
:102470000F5F1F4F84EF91E00E941C03C8CFABE0B9
:10248000B0E0E5E4F2E10C94A6165C014B017A01A0
:10249000FC0117821682838181FD08C06FEF7FEFF8
:1024A00008C142E050E0E40EF51E04C03E0108946D
:1024B000611C711CF501D380F401D3FC8591D3FE1E
:1024C00081914F01882309F4F1C0853259F4D3FC7E
:1024D0006591D3FE61914F01653219F0062F10E02E
:1024E0001BC085E290E02BC0002309F4DFC08DEA19
:1024F00090E0602F70E00E949E15892B39F4033222
:1025000011F4106103C00C3661F41068F401D3FCBF
:102510000591D3FE01914F0117FFE6CF002309F487
:10252000C5C086EA90E0602F70E00E949E15892B5E
:1025300051F044E050E0E40EF51E8FE390E0B50169
:102540000E94EB15B7CF033629F0033779F0033536
:10255000F1F40BC087010E5F1F4FF701808191815D
:10256000B5010E94EB157801A5CF1160F701C0807D
:10257000D18004C090E0B5010E94EB15F60110FD7A
:10258000859110FF81916F018823A1F78ACF0436CE
:1025900011F0093639F517FF08C0F70120813181A4
:1025A0004281538184E090E00AC0F70180819181EB
:1025B0009C01442737FD4095542F82E090E0E80EBF
:1025C000F91E1F7E57FF08C0509540953095219504
:1025D0003F4F4F4F5F4F1064CA01B901A3012AE07A
:1025E00030E034C00037A9F0013730F40835B1F0DD
:1025F0000F3609F05BC006C0053739F0083709F01F
:1026000055C008C028E030E00CC01F7E2AE030E052
:1026100008C01061146220E130E003C0146020E1C2
:1026200032E017FF08C0F7016081718182819381D8
:1026300044E050E008C0F70180819181BC0180E056
:1026400090E042E050E0E40EF51EA3010E94311636
:10265000D82ED618012F10E006FF05C08DE290E0BD
:10266000B5010E94EB1504FF15C0FE01ED0DF11D33
:102670008081803379F080E390E0B5010E94EB1512
:1026800002FF08C000721070C801885A9F4FB50140
:102690000E94EB15DA94F301ED0DF11D808190E0BD
:1026A000B5010E94EB15DD20A9F704CFF501668185
:1026B0007781CB012B96EEE00C94C216FC0120FD35
:1026C00008C023FD05C022FF02C0738362835183CB
:1026D00040830895EF92FF920F931F9344FF02C02F
:1026E00033E011C046FF02C034E00DC0DB01FC0145
:1026F000AA0FBB1FEE1FFF1F1094D1F76A0F7B1F9D
:102700008E1F9F1F31E0660F771F881F991F315062
:10271000D1F77B018C01E20EF11C011D111DA801F6
:102720009701B701CA011F910F91FF90EF90089593
:102730000F931F93CF93DF938C01C8010E94A915BB
:10274000EC0197FD08C00E94ED16892BB1F7CE0170
:10275000B8010E941716CE01DF91CF911F910F9102
:102760000895A0E0B0E0E7EBF3E10C94AA16EC01C9
:10277000C62E5A01122F0E94A915AC018B3219F0F6
:102780008D3251F41068CA9409F46DC0CE010E94D4
:10279000A915AC0197FD67C06DEFD62ED1228D2D06
:1027A000807301F54033F1F4CA9409F447C0CE01B7
:1027B0000E94A915AC0197FD41C082E0D82A483794
:1027C00011F0483559F480E4D82ACA94B9F1CE0101
:1027D0000E94A915AC0199232CF430C0D6FC02C08C
:1027E00080E1D82AEE24FF248701242F20532830AB
:1027F00088F0D4FC09C02A3068F0D6FE05C02F7DD1
:10280000822F8151863028F0CA01BE010E9417161E
:1028100012C02750C801B7014D2D0E946A137B01D9
:102820008C0182E0D82ACA9461F0CE010E94A915D9
:10283000AC0197FFDACFD1FC04C015C0EE24FF2411
:102840008701D7FE08C010950095F094E094E11C34
:10285000F11C011D111DC501B801A7012D2D0E94FC
:102860005E1381E001C080E0CDB7DEB7EAE00C94F2
:10287000C616A0E0B0E0EFE3F4E10C94A6165C010C
:102880006B013A01FC01178216828824DDC0812F7A
:1028900090E00E94ED16892B21F0C5010E9498134B
:1028A000D3C0153249F4F601F3FC6591F3FE619152
:1028B0006F01653269F415E2C5010E94A91597FD03
:1028C000CFC0181709F4C0C0B5010E941716CDC0BB
:1028D0006A3219F0162F00E006C0F3FC1591F3FEE2
:1028E00011916F0101E099240FC00260692D70E021
:1028F00080E090E040E20E946A13962EF601F3FC1D
:102900001591F3FE11916F01212F20532A3068F3A6
:1029100001FD03C099249A9403C0992009F4A5C02D
:10292000183621F01C3699F4F6010BC0F601F3FCC1
:102930006591F3FE6191683619F06F01162F07C09B
:1029400008600460F3FC1591F3FE11916F011123EF
:1029500009F48BC08DEB90E0612F70E00E949E1512
:10296000892B09F482C0802F00FF03C0EE24FF24CE
:1029700007C0F301E080F18022E030E0620E731EB8
:102980001E3651F4F5014681578160E070E0C701C1
:10299000202F0E945E1358C0133691F481FD02C0AF
:1029A00099249394C5010E94A91597FD59C0E1147B
:1029B000F10419F0F70181937F019A9499F742C0CD
:1029C000C5010E94981397FD4BC01F3659F110376F
:1029D00028F4143629F1193639F527C0133719F0C0
:1029E000153711F51DC0C5010E94A915EC0197FD11
:1029F00011C00E94ED16892B29F0CE01B5010E946D
:102A0000171608C0E114F10419F0F701C1937F0112
:102A10009A9449F7E114F104A9F0F701108212C069
:102A2000006203C0006101C00064C501692DA701F7
:102A3000202F0E94B113882329F4F501838180732C
:102A400079F413C000FF8394F501F380F601F3FCE1
:102A50001591F3FE11916F01112309F018CF05C0F4
:102A6000882019F42FEF3FEF02C0282D30E0C90174
:102A7000CDB7DEB7EEE00C94C216A0E0B0E0E3E420
:102A8000F5E10C94AA16EC01A880B980CA80DB801D
:102A9000A114B104C104D10441F484E2A82E89ED4B
:102AA000B82E8BE5C82E87E0D82EC601B5012DE1E2
:102AB00033EF41E050E00E94171727EA31E440E08D
:102AC00050E00E94F8167B018C01C601B5012DE192
:102AD00033EF41E050E00E941717CA01B9012CEE14
:102AE00034EF4FEF5FEF0E94F8166E0D7F1D801FD1
:102AF000911F97FF04C061507040804090486883E8
:102B000079838A839B839B013F77C901CDB7DEB769
:102B1000EAE00C94C6160E943D15089580E690E008
:102B20000E943D150895A0E0B0E08093600090936E
:102B30006100A0936200B09363000895FC010590CA
:102B4000061621F00020D9F7C00108953197CF0172
:102B50000895CF93DF93EC014B8140FF1AC046FFED
:102B60000AC04F7B4B838E819F8101969F838E830A
:102B70008A81282F2BC042FF13C0E881F981808110
:102B8000282F332727FD30952115310529F4406280
:102B90004B832FEF3FEF1BC03196F983E88311C0C1
:102BA000EA85FB85CE0109959C0197FF0AC09B81B0
:102BB0002F5F3F4F11F080E201C080E1892B8B83B2
:102BC000E8CF8E819F8101969F838E8330E0C9017B
:102BD000DF91CF9108950F931F93CF93DF938C01D3
:102BE000EB018B8181FF1BC082FF0DC02E813F81D5
:102BF0008C819D812817390764F4E881F98101935C
:102C0000F983E88306C0E885F985802F0995892B2B
:102C100031F48E819F8101969F838E8302C00FEFD6
:102C20001FEFC801DF91CF911F910F9108959C0173
:102C3000FB01838180FF11C086FD0FC09FEF2F3FF6
:102C4000390759F0228380648F7D83838681978141
:102C500001979783868330E002C02FEF3FEFC901D1
:102C60000895FA01AA27283051F1203181F1E89422
:102C70006F936E7F6E5F7F4F8F4F9F4FAF4FB1E06F
:102C80003ED0B4E03CD0670F781F891F9A1FA11D6A
:102C9000680F791F8A1F911DA11D6A0F711D811D6B
:102CA000911DA11D20D009F468943F912AE0269F30
:102CB00011243019305D3193DEF6CF010895462F8F
:102CC0004770405D4193B3E00FD0C9F7F6CF462F70
:102CD0004F70405D4A3318F0495D31FD40524193D9
:102CE00002D0A9F7EACFB4E0A69597958795779596
:102CF0006795BA95C9F700976105710508959B011D
:102D0000AC010A2E06945795479537952795BA95A5
:102D1000C9F7620F731F841F951FA01D089597FBAD
:102D2000092E07260AD077FD04D043D006D0002014
:102D30001AF4709561957F4F0895F6F790958195F7
:102D40009F4F08952F923F924F925F926F927F9282
:102D50008F929F92AF92BF92CF92DF92EF92FF92AB
:102D60000F931F93CF93DF93CDB7DEB7CA1BDB0B57
:102D70000FB6F894DEBF0FBECDBF09942A883988FC
:102D800048885F846E847D848C849B84AA84B98403
:102D9000C884DF80EE80FD800C811B81AA81B9810F
:102DA000CE0FD11D0FB6F894DEBF0FBECDBFED0123
:102DB0000895AA1BBB1B51E107C0AA1FBB1FA61782
:102DC000B70710F0A61BB70B881F991F5A95A9F7D4
:102DD00080959095BC01CD010895911106C0803277
:102DE00019F089508550D0F70895992788270895BC
:102DF000629FD001739FF001829FE00DF11D649FDF
:102E0000E00DF11D929FF00D839FF00D749FF00D6A
:102E1000659FF00D9927729FB00DE11DF91F639F0B
:102E2000B00DE11DF91FBD01CF011124089597FBDD
:102E3000092E05260ED057FD04D014D00AD0001C50
:102E400038F450954095309521953F4F4F4F5F4F47
:102E50000895F6F790958095709561957F4F8F4F07
:102E60009F4F0895A1E21A2EAA1BBB1BFD010DC0A6
:102E7000AA1FBB1FEE1FFF1FA217B307E407F5072A
:102E800020F0A21BB30BE40BF50B661F771F881F06
:102E9000991F1A9469F760957095809590959B019C
:0C2EA000AC01BD01CF010895F894FFCFF4
:042EAC000100000021
:0400000300000A16D9
:00000001FF
