:100000000C94B0000C94CD000C94CD000C946B01BA
:100010000C94CD000C94CD000C94CD000C94CD002C
:100020000C94CD000C94CD000C9421010C94CD00C7
:100030000C94CD000C94CD000C94CD000C94CD000C
:100040000C94CD000C94CD000C94CD000C94CD00FC
:100050000C94CD00B201B501BF01D701E001E90167
:10006000F401FD010002130250026A026D027602E1
:100070007F02880291029A020D08100813081608E0
:1000800019081C081F082208250828082B082E0814
:100090003108340837083A083D0840084308460844
:1000A00049084C084F08520855085808CE16E01663
:1000B000E016E016E016E016CB16D116D416E016C0
:1000C000E016DD16E016DA16E016E016E016E01689
:1000D000E016E016E016E016E016E016E016E01670
:1000E000E016E016D716E016C816E0167A167D164A
:1000F00080168316861689168C168F1692169516FC
:1001000098169B169E16A116A416A716AA16AD162B
:10011000B016B316B616B916BC16BF16C216C5165B
:100120001008040201001804030000030418000171
:1001300002040810020204080808080402024546E6
:100140004765666700202B2D2E303132333435362B
:1001500037383968006364696E6F7073757858005A
:1001600011241FBECFE5D8E0DEBFCDBF11E0A0E671
:10017000B0E0E8E0F8E502C005900D92A239B107C1
:10018000D9F711E0A2E9B1E001C01D92AE3DB1077F
:10019000E1F70E94AD020C94022C0C94000020E0C8
:1001A00030E008C0EFE9FFE03197F1F700C0000050
:1001B0002F5F3F4F28173907ACF308958FEF8ABBA5
:1001C00017BA84BB81BB1BBA15BA12BAC29A9798E8
:1001D00031E03093B50142E04093B60124E0209332
:1001E000B70198E09093B80180E18093B9018093C2
:1001F000D3019093D4012093D5014093D60130933D
:10020000D7012093D9019093DA018093DB0180E23A
:100210008093DC0180E48093DD0112BE89B78260A7
:1002200089BF8AE08CBF83B7846083BF83B788604F
:1002300083BF8BB780628BBF84B78F7B84BF78947A
:1002400008951F920F920FB60F9211242F938F9340
:100250009F93EF93FF93E091D801F0E0E752FE4FB8
:10026000808182BB10929A011EC08091D80190E0DB
:1002700020919A01FC01EE0FFF1FEE0FFF1FE80F08
:10028000F91FE20FF11DE654FE4F80818BBBE09118
:100290009A01F0E0ED52FE4F808185BB80919A017A
:1002A0008F5F80939A0180919A018530F0F280915E
:1002B000D801982F9F5F9093D801843011F4109249
:1002C000D801FF91EF919F918F912F910F900FBEC9
:1002D0000F901F9018951F920F920FB60F92112436
:1002E0008F939F938091B401982F9F5F9093B40157
:1002F000813111F41092B4019F918F910F900FBE34
:100300000F901F901895CF93DF93EC018FE10E941F
:100310001606CE010E94CF00DF91CF9108950F9372
:100320001F93DF93CF93CDB7DEB76E970FB6F894D8
:10033000DEBF0FBECDBFFE013196A0E6B0E09EE16C
:100340000D9001929150E1F7E82FF0E0E231F105D4
:1003500008F0F8C0E65DFF4FEE0FFF1F0590F49127
:10036000E02D09940E94A115EDC00EE110E088E295
:1003700090E00E943D1401501040C9F7E3C080E0B6
:100380000E94160684E690E061E070E042E350E0EF
:1003900021E030E00E947A1384E690E061E070E0B2
:1003A00042E350E020E030E00E947A13CBC086E9BF
:1003B00090E062E370E044E150E00E948E12C2C01F
:1003C00084E690E06BE470E044E650E00E94B410F4
:1003D000B9C084E190E069E170E044E650E029E1D1
:1003E00030E00E946D11AEC081E090E062E370E009
:1003F00042E350E00E941411A5C00E945F13A2C006
:1004000084E690E061E070E00E94D51380ED97E013
:100410000E94CF0084E690E060E070E00E94D51377
:1004200088EE93E03AC08AE761E048EC50E00E9431
:1004300083148CE291E00E94CF0089E761E048ECF0
:1004400050E00E9483148CE291E00E94CF0088E784
:1004500061E048EC50E00E9483148CE291E00E943D
:10046000CF008AE760E048EC50E00E9483148CE201
:1004700091E00E94CF0089E760E048EC50E00E94E4
:1004800083148CE291E00E94CF0088E760E048ECA2
:1004900050E00E9483148CE291E00E94CF0052C091
:1004A000CE0101966EE170E00E94461603E010E076
:1004B0008FE10E94160684EF91E00E94CF0080E059
:1004C0000E94160684EF91E00E94CF000150104078
:1004D00079F738C00E94511B35C081E090E06AE096
:1004E00070E04AE050E00E9455202CC081E090E08E
:1004F0006AE070E04AE050E00E940E2023C081E0F4
:1005000090E06AE070E040E050E00E943D1D1AC0BB
:1005100081E090E06AE070E040E050E00E94621EFE
:1005200011C081E090E06AE070E042E751E00E9493
:100530009E1F08C081E090E06AE070E04AE050E071
:100540000E94691F6E960FB6F894DEBF0FBECDBF36
:10055000CF91DF911F910F9108951092D8011092C1
:100560009A011092B4010E94DE0084E690E00E949D
:1005700083011092B40107C00E948F018091B401E1
:100580008F5F8093B4018091B4018231A8F3F1CFE1
:1005900080E090E0FC01EE0FFF1FEE0FFF1FE80F61
:1005A000F91FE654FE4F10821182128213821482C8
:1005B00001968530910571F708958530910558F4BD
:1005C00077FD09C06530710534F457FD06C081E040
:1005D000453051051CF080E0089580E00895FF92B9
:1005E0000F931F93CF93DF93F82E8B01EA010E94A4
:1005F000DD028823A1F0FE01EE0FFF1FEE0FFF1FAB
:10060000EC0FFD1FE00FF11FE654FE4F808190E0DC
:1006100002C095958795FA94E2F7817001C080E059
:10062000DF91CF911F910F91FF900895FF920F934B
:100630001F93CF93DF93F82E8B01EA010E94DD0216
:100640008823B1F0FE01EE0FFF1FEE0FFF1FEC0F2E
:10065000FD1FE00FF11FE654FE4F208181E090E086
:1006600002C0880F991FFA94E2F780958223808355
:10067000DF91CF911F910F91FF900895FF920F93FB
:100680001F93CF93DF93F82E8B01EA010E94DD02C6
:100690008823A9F0FE01EE0FFF1FEE0FFF1FEC0FE6
:1006A000FD1FE00FF11FE654FE4F208181E090E036
:1006B00002C0880F991FFA94E2F7282B2083DF915C
:1006C000CF911F910F91FF9008952130310519F4BA
:1006D0000E943E0308950E9416030895FF920F930F
:1006E0001F93CF93DF93F82E8B01EA010E94DD0266
:1006F0008823A9F0FE01EE0FFF1FEE0FFF1FEC0F86
:10070000FD1FE00FF11FE654FE4F208181E090E0D5
:1007100002C0880F991FFA94E2F728272083DF91FF
:10072000CF911F910F91FF900895FC01EE0FFF1FD5
:10073000EE0FFF1FE80FF91FE654FE4F8FE1808395
:1007400081838283838384830895FC01EE0FFF1FDE
:10075000EE0FFF1FE80FF91FE654FE4F10821182C3
:10076000128213821482089521E030E002C0220F29
:10077000331F8A95E2F780E090E011C0FB01E40F9F
:10078000F51FE654FE4F3081322B30834F5F5F4FB1
:100790004530510599F701968530910551F040E0BB
:1007A00050E0BC01660F771F660F771F680F791F37
:1007B000E5CF089521E030E002C0220F331F8A9573
:1007C000E2F7209580E090E011C0FB01E40FF51FF7
:1007D000E654FE4F3081322330834F5F5F4F453008
:1007E000510599F701968530910551F040E050E0B0
:1007F000BC01660F771F660F771F680F791FE5CF63
:100800000895FC01E654FE4F8FE180838583828743
:100810008787848B0895FC01E654FE4F1082158271
:1008200012861786148A0895282FCB01283749F499
:10083000141615061CF40E94B40308950E94DA03EE
:100840000895293749F4141615061CF40E94010472
:1008500008950E940B0408952A3741F414161506D2
:100860001CF40E94950308950E94A5030895AF9279
:10087000BF92CF92DF92EF92FF920F931F93CF938D
:10088000DF935C016B0179012417350734F4342FB1
:10089000252FA701C901E92EF82EEA0107C0C501DD
:1008A000B601AE0198010E9465032196EC16FD0683
:1008B000B4F7DF91CF911F910F91FF90EF90DF90F0
:1008C000CF90BF90AF900895AF92BF92CF92DF923A
:1008D000EF92FF920F931F93CF93DF935C016B0115
:1008E00079012417350734F4342F252FA701C901C6
:1008F000E92EF82EEA0107C0CE01B601A501980144
:100900000E9465032196EC16FD06B4F7DF91CF91A6
:100910001F910F91FF90EF90DF90CF90BF90AF901D
:100920000895AF92BF92CF92DF92EF92FF920F9312
:100930001F93CF93DF935C016B0179012417350777
:1009400034F4342F252FA701C901E92EF82EEA012E
:1009500007C0C601BE01A50198010E94650321964A
:10096000EC16FD06B4F7DF91CF911F910F91FF9028
:10097000EF90DF90CF90BF90AF9008952F923F926D
:100980004F925F927F928F929F92AF92BF92CF923F
:10099000DF92EF92FF920F931F93DF93CF9300D0DC
:1009A00000D000D0CDB7DEB75A013E832D83702E24
:1009B000FC01E41BF50BF7FF03C0F095E195FF4F39
:1009C0009B014D815E81241B350B37FF03C03095A1
:1009D00021953F4F8A159B0524F0A1E04A2E512C0A
:1009E00003C044244A94542C8D819E816817790752
:1009F00024F051E0852E912C03C088248A94982CF1
:100A0000E217F3076CF07F01F594E7943C832B83A6
:100A10006F015A82498222243324442455240EC073
:100A2000C90162E070E00E9426297B01FC83EB8310
:100A300069011401882499241A8219828501AA2443
:100A4000BB248EC0972D9A3711F5C8016D817E8128
:100A500044E050E00E943E03C8016D817E8143E086
:100A600050E00E943E03C8016D817E8142E050E06B
:100A70000E943E03C8016D817E8141E050E00E94EA
:100A80003E03C8016D817E8140E050E049C0A72D42
:100A9000A83711F5C80164E070E04D815E810E94C5
:100AA0003E03C80163E070E04D815E810E943E0319
:100AB000C80162E070E04D815E810E943E03C80182
:100AC00061E070E04D815E810E943E03C80160E0FC
:100AD00070E04D815E8124C0B72DB93719F584E0EF
:100AE00090E06D817E81A8010E943E0383E090E04A
:100AF0006D817E81A8010E943E0382E090E06D81BD
:100B00007E81A8010E943E0381E090E06D817E819C
:100B1000A8010E943E0380E090E06D817E81A801E3
:100B20000E943E03EB81FC81EE0EFF1EEC14FD04DF
:100B300054F0EC18FD08040D151D4D815E81480D23
:100B4000591D5E834D8389819A81080F191FAD81DC
:100B5000BE81A20DB31DBE83AD830894A11CB11C40
:100B6000CA14DB040CF06ECF26960FB6F894DEBFE5
:100B70000FBECDBFCF91DF911F910F91FF90EF90EE
:100B8000DF90CF90BF90AF909F908F907F905F90BD
:100B90004F903F902F90089580E090E0FC01EE0F81
:100BA000FF1FEE0FFF1FE80FF91FDF01A556BE4F15
:100BB0002C91E654FE4F208311962C91119721839E
:100BC00012962C911297228313962C9113972383BC
:100BD00014962C9114972483019685309105F1F693
:100BE000089580E090E0FC01EE0FFF1FEE0FFF1F65
:100BF000E80FF91FDF01A654BE4F2C91E556FE4FBA
:100C0000208311962C911197218312962C91129783
:100C1000228313962C911397238314962C91149767
:100C20002483019685309105F1F6089520E030E0A7
:100C3000F901EE0FFF1FEE0FFF1FE20FF31FE65447
:100C4000FE4F808381838283838384832F5F3F4F22
:100C50002530310569F70895CF93DF93EC010E94A9
:100C6000C802C654DE4F8EE08C8B81E18F879FE1F6
:100C70009A878D838883DF91CF910895CF93DF93F7
:100C8000EC010E94C802C654DE4F8FE08C8B91E1CC
:100C90009F878A879D838883DF91CF910895CF9323
:100CA000DF93EC010E94C802C654DE4F8EE18883B8
:100CB0008C8B81E08F878A878D83DF91CF91089518
:100CC000CF93DF93EC010E94C802C654DE4F9FE031
:100CD0009C8B81E18F878A878D839883DF91CF9169
:100CE0000895CF93DF93EC010E94C802C654DE4FF3
:100CF0008FE18C8B91E09F8727E02A879D838883F3
:100D0000DF91CF910895CF93DF93EC010E94C80249
:100D1000C654DE4F8FE18C8B81E08F8797E09A87F6
:100D20008D838883DF91CF910895CF93DF93EC017A
:100D30000E94C802C654DE4F8EE08C8B91E09F87E4
:100D40009DE19A8791E19D838883DF91CF910895FA
:100D5000CF93DF93EC010E94C802C654DE4F81E1BD
:100D60008C8B8F879FE19A878D838883DF91CF91CA
:100D70000895CF93DF93EC010E94C802C654DE4F62
:100D80009FE19C8B84E08F878A878D839883DF9196
:100D9000CF910895CF93DF93EC010E94C802C6540F
:100DA000DE4F8FE18C8B80E18F878A8781E18D8395
:100DB0008EE08883DF91CF910895CF93DF93EC018C
:100DC0000E94C802C654DE4F89E08C8B95E09F8755
:100DD00023E02A879D838883DF91CF910895CF9365
:100DE000DF93EC010E94C802C654DE4F81E08C8B79
:100DF0008F878A878D838FE18883DF91CF910895D4
:100E0000CF93DF93EC010E94C802C654DE4F81E10C
:100E10008C8B9BE19F8795E19A878D838883DF91F7
:100E2000CF910895CF93DF93EC010E94C802C6547E
:100E3000DE4F81E18C8B93E19F8795E19A8799E161
:100E40009D838883DF91CF910895CF93DF93EC0149
:100E50000E94C802C654DE4F9EE09C8B81E18F87C2
:100E60008A878D839883DF91CF910895CF93DF9305
:100E7000EC010E94C802C654DE4F8FE08C8B91E1DA
:100E80009F878A8781E08D838883DF91CF91089542
:100E9000CF93DF93EC010E94C802C654DE4F86E078
:100EA0008C8B89E08F878A878EE08D8380E18883B1
:100EB000DF91CF910895CF93DF93EC010E94C80298
:100EC000C654DE4F8FE08C8B91E19F878A8785E047
:100ED0008D8389E08883DF91CF910895CF93DF934D
:100EE000EC010E94C802C654DE4F8EE18C8B81E07B
:100EF0008F878EE08A8780E18D838FE08883DF9102
:100F0000CF910895CF93DF93EC010E94C802C6549D
:100F1000DE4F84E088838D838A878F878FE18C8B77
:100F2000DF91CF910895CF93DF93EC010E94C80227
:100F3000C654DE4F81E18C8B8F878A878D838FE14A
:100F40008883DF91CF910895CF93DF93EC010E94C6
:100F5000C802C654DE4F81E18C8B8F8795E19A875A
:100F60009BE19D838883DF91CF910895CF93DF9399
:100F7000EC010E94C802C654DE4F81E18C8B8F8742
:100F80008A878AE08D8384E08883DF91CF910895FA
:100F9000CF93DF93EC010E94C802C654DE4F81E17B
:100FA0008C8B9AE09F8724E02A879D838883DF913A
:100FB000CF910895CF93DF93EC010E94C802C654ED
:100FC000DE4F81E18C8B8AE08F8784E08A878D8376
:100FD0008883DF91CF910895CF93DF93EC010E9436
:100FE000C802C654DE4F8FE18C8B98E09F8794E057
:100FF0009A8792E09D838883DF91CF910895FC01C9
:10100000CB01EA31F10508F055C0E45CFF4FEE0F6B
:10101000FF1F0590F491E02D09940E942C0608957D
:101020000E943E0608950E944F0608950E946006A1
:1010300008950E94710608950E94830608950E94F3
:10104000950608950E94A80608950E94B90608957D
:101050000E94CA0608950E94DD0608950E94EF06C8
:1010600008950E94000708950E94120708950E94A3
:10107000250708950E94360708950E94480708959D
:101080000E945B0708950E946E0708950E948207E0
:1010900008950E94930708950E94B60708950E943C
:1010A000A40708950E94C80708950E94DA070895CA
:1010B0000E94EC070895282F30E021543040C901E8
:1010C0000895CF92DF92EF92FF920F931F93CF93E9
:1010D000DF937B016A01E901009749F480E090E029
:1010E00064E070E044E050E00E94160308C080E035
:1010F00090E064E070E044E050E00E943E03E114C0
:10110000F10449F480E090E064E070E043E050E0F6
:101110000E94160308C080E090E064E070E043E0C5
:1011200050E00E943E03C114D10449F480E090E0F5
:1011300064E070E042E050E00E94160308C080E0E6
:1011400090E064E070E042E050E00E943E032097AF
:1011500049F480E090E064E070E041E050E00E94FB
:10116000160308C080E090E064E070E041E050E0E9
:101170000E943E030115110549F480E090E064E00F
:1011800070E040E050E00E94160308C080E090E06C
:1011900064E070E040E050E00E943E030E940B16C5
:1011A000DF91CF911F910F91FF90EF90DF90CF9043
:1011B00008950F931F9380E090E061E070E041E0BC
:1011C00050E021E030E001E010E00E94610881E0A1
:1011D00090E060E070E041E050E020E030E000E0CE
:1011E00010E00E94610881E090E060E070E041E082
:1011F00050E020E030E00E94610880E090E061E093
:1012000070E041E050E021E030E001E010E00E94B9
:10121000610880E090E060E070E040E050E020E0B5
:1012200030E000E010E00E9461081F910F910895E6
:101230000F931F9381E090E061E070E041E050E0A7
:1012400021E030E001E010E00E94610881E090E0E0
:1012500060E070E041E050E020E030E00E94610892
:1012600081E090E060E070E041E050E020E030E0BC
:101270000E94610880E090E061E070E040E050E0B2
:1012800021E030E000E010E00E94610880E090E0A2
:1012900060E070E040E050E020E030E00E94610853
:1012A0001F910F9108950F931F9380E090E061E0EC
:1012B00070E041E050E021E030E000E010E00E940A
:1012C000610881E090E060E070E040E050E020E004
:1012D00030E001E010E00E94610881E090E060E011
:1012E00070E040E050E020E030E00E94610881E0E2
:1012F00090E060E070E040E050E020E030E00E94EC
:10130000610880E090E060E070E040E050E020E0C4
:1013100030E000E010E00E9461081F910F910895F5
:101320000F931F9381E090E061E070E041E050E0B6
:1013300021E030E001E010E00E94610881E090E0EF
:1013400060E070E040E050E020E030E00E946108A2
:1013500081E090E060E070E040E050E020E030E0CC
:101360000E94610880E090E061E070E041E050E0C0
:1013700021E030E000E010E00E94610880E090E0B1
:1013800060E070E040E050E020E030E00E94610862
:101390001F910F9108950F931F9381E090E061E0FA
:1013A00070E041E050E021E030E001E010E00E9418
:1013B000610881E090E060E070E041E050E020E012
:1013C00030E00E94610881E090E060E070E041E080
:1013D00050E020E030E00E94610881E090E060E0B1
:1013E00070E040E050E020E030E00E94610880E0E2
:1013F00090E060E070E040E050E020E030E000E0AD
:1014000010E00E9461081F910F9108950F931F93A0
:1014100081E090E061E070E041E050E021E030E008
:1014200001E010E00E94610881E090E060E070E07F
:1014300041E050E020E030E000E010E00E94610870
:1014400081E090E060E070E041E050E020E030E0DA
:101450000E94610881E090E060E070E040E050E0D0
:1014600020E030E00E94610880E090E060E070E001
:1014700040E050E020E030E00E9461081F910F91B1
:1014800008950F931F9380E090E061E070E041E0E9
:1014900050E021E030E000E010E00E94610881E0CF
:1014A00090E060E070E040E050E020E030E001E0FB
:1014B00010E00E94610881E090E060E070E040E0B0
:1014C00050E020E030E00E94610881E090E060E0C0
:1014D00070E041E050E020E030E00E94610881E0EF
:1014E00090E060E070E041E050E021E030E000E0BA
:1014F00010E00E94610880E090E060E070E040E071
:1015000050E020E030E00E9461081F910F910895A3
:101510000F931F9381E090E061E070E041E050E0C4
:1015200021E030E001E010E00E94610880E090E0FE
:1015300060E070E041E050E020E030E000E010E0EA
:101540000E94610880E090E060E070E041E050E0DF
:1015500020E030E00E94610881E090E061E070E00E
:1015600041E050E021E030E001E010E00E9461083D
:1015700080E090E060E070E040E050E020E030E0AB
:1015800000E010E00E9461081F910F9108950F93F1
:101590001F9381E090E060E070E040E050E020E0E8
:1015A00030E001E010E00E94610881E090E061E03D
:1015B00070E041E050E021E030E00E94610881E00D
:1015C00090E060E070E040E050E020E030E00E9419
:1015D00061081F910F9108950F931F9381E090E090
:1015E00060E070E040E050E021E030E000E010E03A
:1015F0000E94610881E090E060E070E040E050E02F
:1016000020E030E001E010E00E94610881E090E01D
:1016100060E070E040E050E020E030E00E946108CF
:1016200081E090E061E070E041E050E021E030E0F6
:1016300000E010E00E94610880E090E060E070E06F
:1016400040E050E020E030E00E9461081F910F91DF
:1016500008950F931F9381E090E061E070E041E016
:1016600050E021E030E001E010E00E94610880E0FD
:1016700090E060E070E041E050E020E030E000E029
:1016800010E00E94610880E090E061E070E040E0DE
:1016900050E021E030E00E94610881E090E060E0ED
:1016A00070E040E050E020E030E001E010E00E9417
:1016B000610880E090E060E070E040E050E020E011
:1016C00030E000E010E00E9461081F910F91089542
:1016D0000F931F9381E090E061E070E041E050E003
:1016E00021E030E001E010E00E94610880E090E03D
:1016F00060E070E040E050E020E030E00E946108EF
:1017000080E090E060E070E040E050E020E030E019
:101710000E94610880E090E060E070E040E050E00E
:1017200020E030E00E94610880E090E060E070E03E
:1017300040E050E020E030E000E010E00E9461086E
:101740001F910F9108950F931F9381E090E061E046
:1017500070E041E050E021E030E001E010E00E9464
:10176000610880E090E061E070E040E050E020E05F
:1017700030E000E010E00E94610880E090E060E06E
:1017800070E041E050E020E030E00E94610880E03D
:1017900090E061E070E040E050E020E030E00E9446
:1017A000610881E090E061E070E041E050E021E01C
:1017B00030E001E010E00E94610880E090E060E02D
:1017C00070E040E050E020E030E000E010E00E94F7
:1017D00061081F910F9108950F931F9381E090E08E
:1017E00061E070E041E050E021E030E001E010E035
:1017F0000E94610880E090E061E070E040E050E02D
:1018000020E030E000E010E00E94610880E090E01D
:1018100060E070E041E050E020E030E00E946108CC
:1018200080E090E060E070E040E050E021E030E0F7
:101830000E94610881E090E061E070E041E050E0EA
:1018400021E030E001E010E00E94610880E090E0DB
:1018500060E070E040E050E020E030E000E010E0C8
:101860000E9461081F910F9108950F931F9380E0CC
:1018700090E061E070E041E050E021E030E000E025
:1018800010E00E94610881E090E060E070E040E0DC
:1018900050E020E030E001E010E00E94610881E0CB
:1018A00090E060E070E040E050E020E030E00E9436
:1018B000610880E090E061E070E041E050E021E00C
:1018C00030E000E010E00E94610880E090E060E01D
:1018D00070E040E050E020E030E00E9461081F919D
:1018E0000F9108950F931F9381E090E061E070E005
:1018F00041E050E021E030E001E010E00E946108AA
:1019000081E090E060E070E041E050E020E030E015
:1019100000E010E00E94610881E090E060E070E08B
:1019200041E050E020E030E00E94610880E090E07B
:1019300061E070E040E050E020E030E00E946108AB
:1019400080E090E060E070E040E050E020E030E0D7
:101950000E9461081F910F9108950F931F9380E0DB
:1019600090E061E070E041E050E021E030E000E034
:1019700010E00E94610881E090E060E070E040E0EB
:1019800050E020E030E001E010E00E94610881E0DA
:1019900090E060E070E040E050E021E030E00E9444
:1019A000610880E090E061E070E041E050E021E01B
:1019B00030E000E010E00E94610880E090E060E02C
:1019C00070E040E050E020E030E00E9461081F91AC
:1019D0000F9108950F931F9381E090E061E070E014
:1019E00041E050E021E030E001E010E00E946108B9
:1019F00081E090E060E070E041E050E020E030E025
:101A000000E010E00E94610881E090E060E070E09A
:101A100041E050E021E030E00E94610880E090E089
:101A200061E070E040E050E020E030E001E010E0F4
:101A30000E94610880E090E060E070E040E050E0EB
:101A400020E030E000E010E00E9461081F910F915B
:101A500008950F931F9380E090E061E070E040E014
:101A600050E020E030E001E010E00E94610881E0F9
:101A700090E060E070E041E050E020E030E00E9463
:101A8000610881E090E060E070E041E050E020E03B
:101A900030E00E94610881E090E060E070E040E0AA
:101AA00050E021E030E000E010E00E94610880E0BA
:101AB00090E060E070E040E050E020E030E00E9424
:101AC00061081F910F9108950F931F9381E090E09B
:101AD00060E070E040E050E020E030E000E010E046
:101AE0000E94610881E090E060E070E040E050E03A
:101AF00020E030E00E94610881E090E061E070E069
:101B000041E050E021E030E001E010E00E94610897
:101B100081E090E060E070E040E050E020E030E004
:101B200000E010E00E94610881E090E060E070E079
:101B300040E050E020E030E00E94610880E090E06A
:101B400060E070E040E050E020E030E00E9461089A
:101B50001F910F9108950F931F9381E090E061E032
:101B600070E041E050E021E030E000E010E00E9451
:101B7000610880E090E060E070E040E050E020E04C
:101B800030E001E010E00E94610880E090E060E059
:101B900070E040E050E020E030E00E94610881E029
:101BA00090E061E070E041E050E021E030E000E0F2
:101BB00010E00E94610880E090E060E070E040E0AA
:101BC00050E020E030E00E9461081F910F910895DD
:101BD0000F931F9381E090E061E070E041E050E0FE
:101BE00020E030E000E010E00E94610880E090E03A
:101BF00060E070E040E050E021E030E00E946108E9
:101C000080E090E060E070E040E050E020E030E014
:101C100001E010E00E94610880E090E060E070E088
:101C200040E050E021E030E000E010E00E94610878
:101C300081E090E061E070E041E050E020E030E0E1
:101C40000E94610880E090E060E070E040E050E0D9
:101C500020E030E00E9461081F910F9108950F93DA
:101C60001F9381E090E061E070E041E050E021E00E
:101C700030E001E010E00E94610880E090E060E068
:101C800070E040E050E021E030E000E010E00E9431
:101C9000610880E090E060E070E041E050E020E02A
:101CA00030E00E94610880E090E060E070E040E099
:101CB00050E021E030E00E94610881E090E061E0C6
:101CC00070E041E050E021E030E001E010E00E94EF
:101CD000610880E090E060E070E040E050E020E0EB
:101CE00030E000E010E00E9461081F910F9108951C
:101CF0000F931F9381E090E060E070E040E050E0DF
:101D000020E030E001E010E00E94610880E090E017
:101D100061E070E040E050E021E030E000E010E001
:101D20000E94610880E090E060E070E041E050E0F7
:101D300020E030E00E94610880E090E061E070E027
:101D400040E050E021E030E00E94610881E090E056
:101D500060E070E040E050E020E030E001E010E0C2
:101D60000E94610880E090E060E070E040E050E0B8
:101D700020E030E000E010E00E9461081F910F9128
:101D800008950F931F9381E090E060E070E040E0E1
:101D900050E020E030E000E010E00E94610880E0C8
:101DA00090E061E070E040E050E020E030E00E9430
:101DB000610880E090E060E070E041E050E021E008
:101DC00030E001E010E00E94610880E090E061E016
:101DD00070E040E050E020E030E000E010E00E94E1
:101DE000610881E090E060E070E040E050E020E0D9
:101DF00030E00E94610880E090E060E070E040E048
:101E000050E020E030E00E9461081F910F9108959A
:101E10000F931F9381E090E060E070E040E050E0BD
:101E200020E030E001E010E00E94610881E090E0F5
:101E300060E070E040E050E021E030E00E946108A6
:101E400081E090E060E070E041E050E020E030E0D0
:101E50000E94610881E090E061E070E040E050E0C5
:101E600020E030E00E94610881E090E060E070E0F6
:101E700040E050E020E030E00E94610880E090E027
:101E800060E070E040E050E020E030E000E010E092
:101E90000E9461081F910F9108950F931F9380E096
:101EA00090E061E070E040E050E020E030E000E0F1
:101EB00010E00E94610881E090E060E070E040E0A6
:101EC00050E020E030E00E94610881E090E060E0B6
:101ED00070E041E050E020E030E001E010E00E94DE
:101EE000610881E090E060E070E041E050E020E0D7
:101EF00030E000E010E00E94610880E090E061E0E6
:101F000070E040E050E020E030E00E94610880E0B6
:101F100090E060E070E040E050E020E030E00E94BF
:101F200061081F910F9108950F931F9381E090E036
:101F300061E070E040E050E020E030E000E010E0E0
:101F40000E94610880E090E060E070E040E050E0D6
:101F500020E030E00E9461081F910F9108950F93D7
:101F60001F9380E090E060E070E040E050E020E00F
:101F700030E000E010E00E94610880E090E060E066
:101F800070E040E050E020E030E00E94610880E036
:101F900090E060E070E040E050E020E030E00E943F
:101FA000610880E090E060E070E040E050E020E018
:101FB00030E00E9461081F910F9108950F931F93C5
:101FC00081E090E061E070E041E050E020E030E04E
:101FD00001E010E00E94610880E090E060E070E0C5
:101FE00040E050E020E030E000E010E00E946108B6
:101FF0001F910F9108950F931F9380E090E060E090
:1020000070E040E050E020E030E001E010E00E94AD
:10201000610880E090E060E070E040E050E020E0A7
:1020200030E000E010E00E9461081F910F910895D8
:102030000F931F9380E090E060E070E040E050E09C
:1020400021E030E001E010E00E94610880E090E0D3
:1020500060E070E040E050E020E030E000E010E0C0
:102060000E9461081F910F9108950F931F9380E0C4
:1020700090E061E070E040E050E021E030E000E01E
:1020800010E00E94610880E090E061E070E040E0D4
:1020900050E021E030E00E94610880E090E061E0E3
:1020A00070E040E050E021E030E00E94610880E014
:1020B00090E060E070E040E050E020E030E00E941E
:1020C00061081F910F9108950F931F9380E090E096
:1020D00061E070E041E050E021E030E000E010E03D
:1020E0000E94610881E090E060E070E040E050E034
:1020F00020E030E001E010E00E94610880E090E024
:1021000060E070E040E050E020E030E000E010E00F
:102110000E9461081F910F9108950F931F9381E012
:1021200090E060E070E040E050E020E030E001E06E
:1021300010E00E94610880E090E061E070E041E022
:1021400050E021E030E000E010E00E94610880E013
:1021500090E060E070E040E050E020E030E00E947D
:1021600061081F910F910895CF92DF92EF92FF9235
:102170000F931F93CF93DF936B018A01C0E0D0E0F0
:1021800076E0E72EF12C43C020E030E0C9018C0F4F
:102190009D1FB7010E942629AC01440F551F440F13
:1021A000551F480F591FFA01E05EFE4FE491D90117
:1021B000AA0FBB1FAA0FBB1FA20FB31FA654BE4F6F
:1021C000EC93FA01EF5DFE4FE4911196EC931197B9
:1021D000FA01EE5DFE4FE4911296EC931297FA012C
:1021E000ED5DFE4FE4911396EC9313974C5D5E4FBB
:1021F000FA01449114964C9314972F5F3F4F25306A
:10220000310509F0C3CFC8010E94CF002196CC153B
:10221000DD050CF4B9CFDF91CF911F910F91FF90A5
:10222000EF90DF90CF900895BF92CF92DF92EF9220
:10223000FF920F931F93CF93DF936B018A01C0E04E
:10224000D0E086E0E82EF12C16C0FC01EE0FFF1F57
:10225000EE0FFF1FE80FF91FE654FE4FB082A18377
:1022600062834383248301968530910571F7C80109
:102270000E94CF002196CC15DD052CF5CE01B701CB
:102280000E9426299C01220F331F220F331F280F83
:10229000391FF901E05EFE4FD901AF5DBE4FB901B4
:1022A0006E5D7E4FA9014D5D5E4F2C5D3E4F80E01F
:1022B00090E0B490FD01A491FB016491FA01449176
:1022C000F9012491C2CFDF91CF911F910F91FF901F
:1022D000EF90DF90CF90BF9008956F927F928F9292
:1022E0009F92AF92BF92CF92DF92EF92FF920F93A5
:1022F0001F93CF93DF935C014B013A01790180E09A
:102300000E94160600E010E085E0C82ED12C65C0C2
:102310000E94052AEC010E94052AFC01CE01B601AB
:102320000E9426299C01CF01B6010E942629BC01EA
:10233000C90144E050E00E943E03C3010E94CF0067
:10234000C1E0D0E03FC0DB01A20FB31FA654BE4FD7
:102350008C91DA01A20FB31FA654BE4F8C932F5F4E
:102360003F4F2530310579F7CF01E430F10599F081
:1023700020E030E0FC013196BF01660F771F660F49
:10238000771F6E0F7F1FAC01440F551F440F551F61
:10239000480F591FD8CF1092CE011092CF01109242
:1023A000D0011092D1011092D201C701BE010E944A
:1023B0002629CB018E0D9F1D0E94CF002196C5308E
:1023C000D10519F080E090E0D3CF80E00E9416069E
:1023D000C4010E94CF000F5F1F4F0A151B050CF4AC
:1023E00097CFDF91CF911F910F91FF90EF90DF90EA
:1023F000CF90BF90AF909F908F907F906F900895F7
:102400007F928F929F92AF92BF92CF92DF92EF9284
:10241000FF920F931F93CF93DF93F82EE62E742E27
:10242000490105E010E025E0C22ED12C94E0A92E50
:10243000B12CE601C01BD10B872D843041F4E8019B
:1024400021978F2D90E06E2D70E0A80107C0A501A7
:10245000401B510B8F2D90E06E2D70E00E941603F3
:102460008F2D90E06E2D70E0AE010E943E03C401FE
:102470000E94CF0001501040E1F6DF91CF911F91F3
:102480000F91FF90EF90DF90CF90BF90AF909F9013
:102490008F907F900895AF92BF92CF92DF92EF928C
:1024A000FF920F931F93CF93DF93082F7B015A0165
:1024B00080E00E941606802F90E00E94950319E1AB
:1024C000C5E0D0E00E94052ABE010E942629C82E40
:1024D0000E94052ABE010E942629D82E8C2D90E04C
:1024E0006D2D70E0402F50E00E94EF02882351F3E1
:1024F0008C2D6D2D402F97010E940012C5010E9466
:10250000CF001150F9F6DF91CF911F910F91FF90FD
:10251000EF90DF90CF90BF90AF9008954F925F9271
:102520006F927F929F92AF92BF92CF92DF92EF9283
:10253000FF920F931F93CF93DF932C015B013A011E
:1025400080E00E94160600E010E01CC00E94052AF0
:1025500080FD05C0C801BE0140E050E004C0C801D4
:10256000BE0144E050E00E943E032196C530D105F3
:1025700069F70F5F1F4F0530110521F400E0C5E03A
:10258000D0E030C0C0E0D0E0E1CF0E94052A7C015D
:102590000E94052ABE010E942629D82E182F8C15CC
:1025A00001F1C701BE010E942629E82EF82E8915E7
:1025B000C1F090E06D2D70E040E050E00E94EF022D
:1025C000882321F08E2D6D2D40E003C08E2D6D2DC2
:1025D00044E095010E940012C3010E94CF00C12E69
:1025E0009F2C0F5F802F90E08415950574F2DF918A
:1025F000CF911F910F91FF90EF90DF90CF90BF9000
:10260000AF909F907F906F905F904F9008954F9202
:102610005F926F927F928F929F92AF92BF92CF9272
:10262000DF92EF92FF920F931F93CF93DF934C01B2
:102630003B012A0100E010E035E0E32EF12C28C038
:102640000E94052A6C010E94052A5C010E94052A4D
:10265000FC01C601B7010E9426299C01C501B701F2
:102660000E9426296C01CF01B7010E942629AC01E6
:10267000C901B6010E943E0321966C167D0604F73F
:10268000C2010E94CF0080E00E9416060F5F1F4F1C
:10269000081519051CF4C0E0D0E0EFCFDF91CF9111
:1026A0001F910F91FF90EF90DF90CF90BF90AF9070
:1026B0009F908F907F906F905F904F900895CF93F1
:1026C000DF93C1E0D0E085E090E0BE0144EF51E04F
:1026D0000E9407132196C931D105A9F785E090E042
:1026E000BE0144EF51E00E9407132197B9F7DF9133
:1026F000CF9108952F923F924F925F926F927F9267
:102700008F929F92AF92BF92CF92DF92EF92FF9201
:102710000F931F93CF93DF934C013B012A011901C3
:1027200000E010E045E0E42EF12C26C00E94052ACE
:102730006C010E94052A5C010E94052AFC01C60169
:10274000B7010E9426299C01C501B7010E942629D4
:102750006C01CF01B7010E942629AC01C901B60165
:1027600091010E94650321966C167D06FCF6C2015C
:102770000E94CF000F5F1F4F081519051CF4C0E021
:10278000D0E0F2CFDF91CF911F910F91FF90EF90AA
:10279000DF90CF90BF90AF909F908F907F906F9081
:1027A0005F904F903F902F9008952F923F924F92BD
:1027B0005F926F927F928F929F92AF92BF92CF92D1
:1027C000DF92EF92FF920F931F93CF93DF931C0141
:1027D000EB0100E010E055E0E52EF12C0E94052A07
:1027E000B7010E9426295C01782E6B2C0E94052AD5
:1027F000B7010E9426296C01582E4D2C0E94052AF3
:10280000B7010E942629AC01982E852E209739F415
:10281000C501B6010E94EF028130C1F409C0C13088
:10282000D105A1F4C501B6010E94EF02882371F41D
:10283000872D962D652D742D492D582D9E010E94B2
:102840006503C1010E94CF000F5F1F4F0C371105B8
:102850002CF2DF91CF911F910F91FF90EF90DF90BD
:10286000CF90BF90AF909F908F907F906F905F9030
:102870004F903F902F9008950895FF920F931F93CC
:10288000CF93DF938C0180E00E941606C0E0D0E079
:10289000FF24FA94FE01EE0FFF1FEE0FFF1FEC0F57
:1028A000FD1FE654FE4FF082F182F282F382F48241
:1028B000C8010E94CF002196C530D10559F7C80143
:1028C000880F991F800F911F0E94CF00C0E0D0E0B9
:1028D000FE01EE0FFF1FEE0FFF1FEC0FFD1FE65472
:1028E000FE4F10821182128213821482C8010E944C
:1028F000CF002196C530D10559F7DF91CF911F91B7
:102900000F91FF900895AF92BF92CF92DF92EF9216
:10291000FF920F931F93CF93DF93F82EE62E5A0169
:1029200080E00E94160600E010E084E0C82ED12C62
:10293000EE2021F0E601C01BD10B01C0E8018F2D74
:10294000BE0141E050E00E941404C5010E94CF0086
:102950008F2DBE0140E050E00E9414040F5F1F4F16
:102960000530110529F703E010E0B4E0CB2ED12C9F
:10297000EE2021F0E601C01BD10B01C0E8018F2D34
:10298000BE0141E050E00E941404C5010E94CF0046
:102990008F2DBE0140E050E00E9414040150104011
:1029A0008FEF0F3F180721F7DF91CF911F910F9104
:1029B000FF90EF90DF90CF90BF90AF900895CF93AE
:1029C000DF9380E00E94160680ED97E00E94CF0022
:1029D000C4E0D0E08FE10E94160682E390E00E94FE
:1029E000CF0080E00E9416068CED95E00E94CF009B
:1029F0008FE10E9416068EE190E00E94CF0080E0F9
:102A00000E94160688E59BE10E94CF00219711F7EE
:102A1000DF91CF910895AF92BF92CF92DF92EF9264
:102A2000FF920F931F93CF93DF9380E00E941606CF
:102A300005E010E036EFE32E3FEFF32E28EEC22E36
:102A400023E0D22E9FEEA92E92E0B92E41C080E065
:102A50000E941606CE010E94CF008FE10E9416064A
:102A600084E690E00E94CF00CE01B7010E942629A3
:102A7000C6010E9426296F507040C60FD71F1C1632
:102A80001D062CF388EE93E00E94CF00CEEED2E03C
:102A900080E00E941606C5018C1B9D0B0E94CF0092
:102AA0008FE10E94160684E690E00E94CF00CE01DE
:102AB000B7010E942629C6010E9426296F50704046
:102AC000C60FD71F1C161D061CF30150104019F02D
:102AD000CEEED2E0BCCFDF91CF911F910F91FF904E
:102AE000EF90DF90CF90BF90AF9008950F931F931A
:102AF000CF93DF930E945B088C01C0E0D0E0C80157
:102B0000BE010E94FF0780E590E00E94CF00219661
:102B1000C430D105A1F7C80164E070E00E94FF074E
:102B200084EF91E00E94CF00DF91CF911F910F9130
:102B3000089580E00E94160684E893E00E94CF008A
:102B4000089585E40E94761585E40E94761583E554
:102B50000E94761584E50E94761585E40E9476151C
:102B600083E40E9476150E9499158CE40E947615E4
:102B700083E40E9476150E94991588E40E947615D8
:102B800081E40E9476158DE40E94761582E40E940D
:102B9000761585E50E94761582E50E94761587E414
:102BA0000E9476150895CF92DF92EF92FF920F93D5
:102BB0001F93CF93DF9304E010E01CC0C70160E0D7
:102BC00070E0AE010E94EF02882339F0C60160E098
:102BD00070E0AE010E943E0306C0C60160E070E0F6
:102BE000AE010E9416032196C530D10539F7015078
:102BF000104041F06801C0E0D0E078010894E1089D
:102C0000F108DCCFDF91CF911F910F91FF90EF90F2
:102C1000DF90CF900895EF92FF920F931F93CF9381
:102C2000DF93C0E0D0E01EC080E090E0B701A801D3
:102C30000E94EF02882339F080E090E0BE01A801F5
:102C40000E943E0306C080E090E0BE01A8010E9401
:102C500016030F5F1F4F0530110531F72196C43061
:102C6000D10539F000E010E07E010894E11CF11C70
:102C7000DBCF0E94D31586E990E00E94CF00DF9160
:102C8000CF911F910F91FF90EF900895AF92BF9257
:102C9000CF92DF92EF92FF920F931F93DF93CF9328
:102CA0000F92CDB7DEB7082F5B0180E099830E94B9
:102CB00016069981E02EF92E00E010E043E0C42EC4
:102CC000D12CCA0CDB1C80C0F70181917F010A1551
:102CD0001B0508F075C090E081978A33910508F0D4
:102CE0006FC08A5A9F4FFC01EE0FFF1F0590F491B1
:102CF000E02D09940E94D90865C00E94180962C09D
:102D00000E9453095FC00E9490095CC00E94CB09D9
:102D100059C00E94060A56C00E94410A53C00E9430
:102D2000880A50C00E94C70A4DC00E94EC0A4AC0DF
:102D30000E94290B47C00E94680B44C00E94A30B4D
:102D400041C00E94EC0B3EC00E94350C3BC00E946B
:102D5000720C38C00E94AD0C35C00E94EA0C32C023
:102D60000E94290D2FC00E94640D2CC00E94AB0D43
:102D700029C00E94E80D26C00E942F0E23C00E9489
:102D8000780E20C00E94C10E1DC00E94080F1AC0FC
:102D90000E944D0F17C00E94940F14C00E94DE0FB6
:102DA00011C00E9464100EC00E948D100BC00E94C2
:102DB000351008C00E94FB0F05C00E94181002C009
:102DC0000E94AF0F0F5F1F4F0C151D0508F47CCF3D
:102DD0000F90CF91DF911F910F91FF90EF90DF90B7
:102DE000CF90BF90AF900895AF92BF92CF92DF92F5
:102DF000EF92FF920F931F93CF93DF93EC018B0120
:102E00007A0180E00E941606CE01B801A7010E9457
:102E10003E0357010894A11CB11CCE01B801A501C5
:102E20000E943E0368010894C11CD11CCE01B6016A
:102E3000A7010E943E03CE01B601A5010E943E03F8
:102E40002196CE01B801A7010E943E03CE01B80130
:102E5000A5010E943E03CE01B601A7010E943E03D8
:102E6000CE01B601A5010E943E03DF91CF911F91D3
:102E70000F91FF90EF90DF90CF90BF90AF900895AB
:102E8000AF92BF92CF92DF92EF92FF920F931F9378
:102E9000CF93DF93C0E0D0E063E0C62ED12C52E0A8
:102EA000A52EB12C01E010E0609196017091970180
:102EB00040919401509195018091980190919901D0
:102EC0000E94F4160E94052A7C010E94052AB60180
:102ED0000E9426299C01C701B5010E94262900975E
:102EE00099F52115310579F4809198019091990116
:102EF0009C012F5F3F4F2430310578F530939901C5
:102F0000209398015CC02130310559F480919601DD
:102F1000909197019C012F5F3F4F2430310588F538
:102F200036C02230310509F04AC080919401909159
:102F300095019C012F5F3F4F24303105B0F5309350
:102F40009501209394013BC02115310589F48091AE
:102F5000980190919901009731F001979093990110
:102F6000809398012CC0109399010093980127C079
:102F70002130310589F48091960190919701009755
:102F800031F00197909397018093960118C0309388
:102F900097012093960113C02230310581F480916E
:102FA000940190919501009731F0019790939501CC
:102FB0008093940104C010939501009394018FE3D2
:102FC00090E00E94CF002196C233D10509F06CCF6A
:102FD000DF91CF911F910F91FF90EF90DF90CF90F5
:102FE000BF90AF900895CF92DF92EF92FF920F9330
:102FF0001F93CF93DF93C7E0D0E080E00E941606D6
:1030000082E090E062E070E042E050E00E943E0327
:1030100082E090E063E070E043E050E00E943E0315
:1030200082E090E061E070E043E050E00E943E0307
:1030300082E090E064E070E042E050E00E943E03F5
:1030400082E090E060E070E042E050E00E943E03E9
:1030500082E090E063E070E041E050E00E943E03D7
:1030600082E090E061E070E041E050E00E943E03C9
:1030700082E090E062E070E040E050E00E943E03B9
:1030800084E690E00E94CF0080E00E94160682E075
:1030900090E062E070E042E050E00E943E0382E097
:1030A00090E062E070E040E050E00E943E0382E089
:1030B00090E063E070E043E050E00E943E0382E075
:1030C00090E061E070E043E050E00E943E0383E066
:1030D00090E064E070E042E050E00E943E0381E056
:1030E00090E060E070E042E050E00E943E0382E049
:1030F00090E063E070E041E050E00E943E0382E037
:1031000090E061E070E041E050E00E943E0384E620
:1031100090E00E94CF0080E00E94160682E090E0DE
:1031200062E070E042E050E00E943E0382E090E006
:1031300062E070E040E050E00E943E0383E090E0F7
:1031400063E070E043E050E00E943E0381E090E0E5
:1031500061E070E043E050E00E943E0384E090E0D4
:1031600064E070E042E050E00E943E0380E090E0C6
:1031700060E070E042E050E00E943E0383E090E0B7
:1031800063E070E041E050E00E943E0381E090E0A7
:1031900061E070E041E050E00E943E0384E690E090
:1031A0000E94CF0080E00E94160682E090E062E07C
:1031B00070E042E050E00E943E0382E090E062E076
:1031C00070E040E050E00E943E0383E090E063E066
:1031D00070E043E050E00E943E0381E090E061E057
:1031E00070E043E050E00E943E0384E090E063E042
:1031F00070E042E050E00E943E0380E090E061E039
:1032000070E042E050E00E943E0383E090E063E023
:1032100070E041E050E00E943E0381E090E061E018
:1032200070E041E050E00E943E0384E690E00E949E
:10323000CF0080E00E94160682E090E062E070E03D
:1032400042E050E00E943E0382E090E062E070E0E5
:1032500040E050E00E943E0383E090E062E070E0D6
:1032600043E050E00E943E0381E090E062E070E0C5
:1032700043E050E00E943E0384E090E062E070E0B2
:1032800042E050E00E943E0380E090E062E070E0A7
:1032900042E050E00E943E0383E090E062E070E094
:1032A00041E050E00E943E0381E090E062E070E087
:1032B00041E050E00E943E0384E690E00E94CF008F
:1032C00080E00E94160682E090E062E070E042E05A
:1032D00050E00E943E0382E090E062E070E040E057
:1032E00050E00E943E0383E090E062E070E043E043
:1032F00050E00E943E0381E090E062E070E043E035
:1033000050E00E943E0384E090E061E070E042E023
:1033100050E00E943E0380E090E063E070E042E015
:1033200050E00E943E0383E090E062E070E041E004
:1033300050E00E943E0381E090E062E070E041E0F6
:1033400050E00E943E0384E690E00E94CF0080E0BF
:103350000E94160682E090E062E070E042E050E0F9
:103360000E943E0382E090E062E070E040E050E0C6
:103370000E943E0383E090E061E070E043E050E0B3
:103380000E943E0381E090E063E070E043E050E0A3
:103390000E943E0384E090E060E070E042E050E094
:1033A0000E943E0380E090E064E070E042E050E084
:1033B0000E943E0383E090E061E070E041E050E075
:1033C0000E943E0381E090E063E070E041E050E065
:1033D0000E943E0384E690E00E94CF0080E00E94BD
:1033E000160682E090E062E070E042E050E00E9469
:1033F0003E0382E090E062E070E040E050E00E9436
:103400003E0383E090E061E070E043E050E00E9422
:103410003E0381E090E063E070E043E050E00E9412
:103420003E0383E090E060E070E042E050E00E9404
:103430003E0381E090E064E070E042E050E00E94F2
:103440003E0383E090E061E070E041E050E00E94E4
:103450003E0381E090E063E070E041E050E00E94D4
:103460003E0384E690E00E94CF00219709F0C5CD8D
:1034700080E00E941606E5E0EE2EF12C74E0C72EE7
:10348000D12C03C1E601C01BD10BCE0162E070E07C
:1034900042E050E00E943E03CE0163E070E043E072
:1034A00050E00E943E03CE0161E070E043E050E056
:1034B0000E943E03CE0164E070E042E050E00E94D2
:1034C0003E03CE0160E070E042E050E00E943E0327
:1034D000CE0163E070E041E050E00E943E03CE0187
:1034E00061E070E041E050E00E943E03CE0162E006
:1034F00070E040E050E00E943E03C80162E070E0EE
:1035000042E050E00E943E03C80163E070E043E007
:1035100050E00E943E03C80161E070E043E050E0EB
:103520000E943E03C80164E070E042E050E00E9467
:103530003E03C80160E070E042E050E00E943E03BC
:10354000C80163E070E041E050E00E943E03C80122
:1035500061E070E041E050E00E943E03C80162E09B
:1035600070E040E050E00E943E0384E690E00E945C
:10357000CF00015010408FEF0F3F180709F082CFA6
:1035800000E010E0E601C01BD10BCE0162E070E06C
:1035900042E050E00E941603CE0163E070E043E099
:1035A00050E00E941603CE0161E070E043E050E07D
:1035B0000E941603CE0164E070E042E050E00E94F9
:1035C0001603CE0160E070E042E050E00E94160376
:1035D000CE0163E070E041E050E00E941603CE01AE
:1035E00061E070E041E050E00E941603CE0162E02D
:1035F00070E040E050E00E941603C80162E070E015
:1036000042E050E00E941603C80163E070E043E02E
:1036100050E00E941603C80161E070E043E050E012
:103620000E941603C80164E070E042E050E00E948E
:103630001603C80160E070E042E050E00E9416030B
:10364000C80163E070E041E050E00E941603C80149
:1036500061E070E041E050E00E941603C80162E0C2
:1036600070E040E050E00E94160384E690E00E9483
:10367000CF000F5F1F4F0330110509F083CF08946F
:10368000E108F108E114F10419F002E010E0FACECB
:10369000DF91CF911F910F91FF90EF90DF90CF902E
:1036A00008950E94401782E090E062E070E042E0FE
:1036B00050E00E94F4160E94F31708952F923F9253
:1036C0004F925F926F927F928F929F92AF92BF9232
:1036D000CF92DF92EF92FF920F931F93DF93CF93DE
:1036E000CDB7DEB72E970FB6F894DEBF0FBECDBFB5
:1036F00089879A8778876F83AEE26A2E712C198248
:103700001A821B821C82552444243324222499C00B
:10371000C7010297889FB001899F700D989F700D17
:1037200011246A0D7B1D882777FD8095982F0E94B4
:1037300096230E94682BE981FA812B812B873C819B
:103740003C879F014B855C850E94662387FD04C0F2
:10375000D8018C91813039F4C6016D857E85A70131
:103760000E943E0306C0C6016D857E85A7010E94AA
:1037700016030894E11CF11C0F5F1F4FB5E0EB1618
:10378000F10431F62D853E852F5F3F4F2530310501
:10379000D9F0C9010297889F5001899FB00C989F6A
:1037A000B00C1124ED81FE81AE0EBF1E8901000F09
:1037B000111F000F111F020F131F080D191DEE24FA
:1037C000FF243E872D87A4CF0894C11CD11C29E17A
:1037D00030E0820E931E35E0C316D10471F0C601AD
:1037E0000297889FD001899FB00D989FB00D11243A
:1037F000BE83AD8320E030E0CCCFA2019101652FE4
:10380000742D832F922D20E030E040E251E40E949D
:10381000B82269837A838B839C838F8198850E94E9
:10382000CF00A2019101652F742D832F922D20E0EE
:1038300030E040E85FE30E945A22562E472E382E91
:10384000292E0894610871086114710439F0998572
:103850008A85892E982ECC24DD24C1CF2E960FB6D2
:10386000F894DEBF0FBECDBFCF91DF911F910F91B6
:10387000FF90EF90DF90CF90BF90AF909F908F9090
:103880007F906F905F904F903F902F9008952F9270
:103890003F924F925F926F927F928F929F92AF92E0
:1038A000BF92CF92DF92EF92FF920F931F93DF931D
:1038B000CF93CDB7DEB72A970FB6F894DEBF0FBE11
:1038C000CDBF78876F83B1E26B2E712C55244424D1
:1038D0003324222419821A8220E82B8330E43C838B
:1038E000ADC089859A850297889FB001899F700D28
:1038F000989F700D11246C0D7D1D882777FD809594
:10390000982F0E9496234B015C010E94682BE52DA5
:10391000F42DA32DB22D9F01AD010E94662387FFD8
:1039200007C0C701B80149855A850E943E0306C0F9
:10393000C701B80149855A850E941603C501B40123
:103940000E94682B4B015C01A2019101652F742D2F
:10395000832F922D23E333E343E35FE30E94872227
:103960009B01AC01C501B4010E94662387FF06C01C
:10397000C701B80149855A850E94160389859A8531
:1039800001969A8789878530910509F0AACF0F5F44
:103990001F4F0530110591F0C8010297889F600103
:1039A000899FD00C989FD00C1124ED81FE81CE0E02
:1039B000DF1E80E090E09A87898793CF0894E11C0E
:1039C000F11CF5E0EF16F10419F410C0EE24FF2409
:1039D000C7010297889F9001899F300D989F300DF5
:1039E00011243E832D8300E010E0D6CF59814A8117
:1039F0003B812C81652F742F832F922F20E030E0A4
:103A000040E251E40E94B822562E472E382E292E2D
:103A10008F8198850E94CF0059814A813B812C81FA
:103A2000652F742F832F922F20E030E040E85FE372
:103A30000E945A2269837A838B839C83089461084D
:103A400071086114710411F62A960FB6F894DEBF5E
:103A50000FBECDBFCF91DF911F910F91FF90EF90DF
:103A6000DF90CF90BF90AF909F908F907F906F909E
:103A70005F904F903F902F900895DF93CF93CDB7F5
:103A8000DEB7CD57D0400FB6F894DEBF0FBECDBF26
:103A9000BA0180E090E0A9E1B0E0AE014F5F5F4F76
:103AA0000FC0108211821282138214822150304082
:103AB000359621153105A9F701968530910561F0FC
:103AC0008A9FF0018B9FF00D9A9FF00D1124E40F57
:103AD000F51F25E030E0E5CFCE0101960E94471C9E
:103AE000C358DF4F0FB6F894DEBF0FBECDBFCF91E6
:103AF000DF9108952F923F924F925F926F927F9243
:103B00008F929F92AF92BF92CF92DF92EF92FF92ED
:103B10000F931F93DF93CF93CDB7DEB72E970FB6DA
:103B2000F894DEBF0FBECDBF8D839E837C836B83F5
:103B30003FE2632E712C5524442424E3322E92E478
:103B4000292EA0C0A2019101652F742D832F922DE3
:103B500020E030E040E251E40E94B8226F83788791
:103B600089879A879D818E81892E982ECC24DD2489
:103B700067C0C7010297889FB001899F700D989F09
:103B8000700D11246A0D7B1D882777FD8095982F75
:103B90000E9496230E94682BEF81F88529852B8748
:103BA0003A853C879F014B855C850E94662387FD93
:103BB00004C0D8018C91813039F4C6016D857E85B1
:103BC000A7010E943E0306C0C6016D857E85A70140
:103BD0000E9416030894E11CF11C0F5F1F4FB5E013
:103BE000EB16F10431F62D853E852F5F3F4F2530D2
:103BF0003105D9F0C9010297889F5001899FB00C07
:103C0000989FB00C1124E981FA81AE0EBF1E890184
:103C1000000F111F000F111F020F131F080D191D98
:103C2000EE24FF243E872D87A4CF0894C11CD11C0D
:103C300029E130E0820E931E35E0C316D10471F005
:103C4000C6010297889FD001899FB00D989FB00D43
:103C50001124BA83A98320E030E0CCCF8B819C81F2
:103C60000E94CF00A2019101652F742D832F922D08
:103C700020E030E040E85FE30E948722562E472E86
:103C8000382E292E0894610871086114710409F016
:103C900059CF2E960FB6F894DEBF0FBECDBFCF9191
:103CA000DF911F910F91FF90EF90DF90CF90BF9029
:103CB000AF909F908F907F906F905F904F903F90CC
:103CC0002F9008952F923F924F925F926F927F9222
:103CD0008F929F92AF92BF92CF92DF92EF92FF921C
:103CE0000F931F93DF93CF93CDB7DEB7CD57D0405F
:103CF0000FB6F894DEBF0FBECDBF5A0180E090E052
:103D000069E170E0AE014F5F5F4F0FC0108211821A
:103D100012821382148221503040359621153105CC
:103D2000A9F701968530910561F0869FF001879F84
:103D3000F00D969FF00D1124E40FF51F25E030E003
:103D4000E5CF8E010F5F1F4FC801B5010E945E1BBA
:103D5000CC24DD2463E0462E512C612C712C4501CE
:103D600039C00E945C2AA30192010E943929611581
:103D7000710521F481E0F801808302C0F80110820E
:103D80000894C108D1080F5F1F4FC114D10449F72F
:103D90000894E11CF11CF5E0EF16F10499F087019D
:103DA000000F111F000F111F0E0D1F1D020D131DFF
:103DB00081E090E08C0F9D1F080F191F45E0C42E75
:103DC000D12CCFCF65010894C11CD11C95E0C91638
:103DD000D10469F0EE24FF24E9E1F0E0CE9E100169
:103DE000CF9E300CDE9E300C11245601D8CF5401EA
:103DF0008E010F5F1F4FC801B4010E947A1DC801D8
:103E0000B4010E945E1B80E090E049E150E00FC0E9
:103E10001082118212821382148221503040359612
:103E200021153105A9F701968530910561F0849F30
:103E3000F001859FF00D949FF00D1124E00FF11F0C
:103E400025E030E0E5CFCE010196B5010E947A1D54
:103E5000C358DF4F0FB6F894DEBF0FBECDBFCF9172
:103E6000DF911F910F91FF90EF90DF90CF90BF9067
:103E7000AF909F908F907F906F905F904F903F900A
:103E80002F900895EF92FF920F931F93CF93DF939C
:103E90007C01CAE0D0E00AE010E0C701B8010E944E
:103EA00026297C018FE10E941606C7010E94CF00DF
:103EB00080E00E941606C8018E199F090E94CF005B
:103EC000219759F7DF91CF911F910F91FF90EF90BC
:103ED000089580919201909193010E94421F8091D8
:103EE0007F00909180008130910581F48091920152
:103EF0009091930101969093930180939201893060
:103F0000910521F41092800010927F0080917F0033
:103F100090918000009789F4809192019091930193
:103F200001979093930180939201009731F481E07F
:103F300090E09093800080937F000895AF92BF92AD
:103F4000CF92DF92EF92FF920F931F93CF93DF9365
:103F50005A0100E010E027C0760167010894C11CF7
:103F6000D11CC801BE01A6010E94EF02882331F0D6
:103F7000C801BE01A7010E943E0305C0C801BE01E1
:103F8000A7010E94160384E0C816D10429F72196E0
:103F9000C530D10519F0EE24FF24DFCF0F5F1F4F8E
:103FA0000530110519F1C0E0D0E0F5CF0E945C2A80
:103FB000A70196010E9439296115710539F4C801DC
:103FC000BE0144E050E00E943E0306C0C801BE01AD
:103FD00044E050E00E9416032196C530D10531F728
:103FE0000F5F1F4F0530110541F40AC000E010E0DB
:103FF00078E0C72ED12CE12CF12CC0E0D0E0D6CF58
:10400000C5010E94CF00DF91CF911F910F91FF90CA
:10401000EF90DF90CF90BF90AF900895AF92BF9296
:10402000CF92DF92EF92FF920F931F93CF93DF9384
:10403000EE24FF24E2E0AE2EB12CC12CD12C27C0FF
:104040000E945C2AA60195010E943929611571051B
:1040500031F0C701B801AE010E943E0305C0C7019F
:10406000B801AE010E9416032196C530D10541F773
:104070000F5F1F4F0530110519F0C0E0D0E0E0CF11
:104080000894E11CF11C85E0E816F10419F000E049
:1040900010E0F3CFDF91CF911F910F91FF90EF9040
:1040A000DF90CF90BF90AF900895CF93DF93C4E09F
:1040B000D0E081E090E06AE070E040E050E00E94F3
:1040C0003D1D2197B1F7C4E0D0E081E090E06AE0C7
:1040D00070E040E050E00E94621E2197B1F7C0E11D
:1040E000D0E081E090E06AE070E041E851E00E94B9
:1040F0009E1F2197B1F7C0E4D0E081E090E06AE034
:1041000070E04AE050E00E94691F2197B1F7C0E8D3
:10411000D0E081E090E06AE070E04AE050E00E9488
:104120000E202197B1F7DF91CF910895AF92BF9202
:10413000CF92DF92EF92FF920F931F93CF93DF9373
:10414000EE24FF24F2E0AF2EB12CC12CD12C21C0E3
:104150000E945C2AA60195010E943929611571050A
:1041600029F0C701B801AE010E943E032196C53077
:10417000D10571F70F5F1F4F0530110519F0C0E031
:10418000D0E0E6CF0894E11CF11C85E0E816F104CC
:1041900019F000E010E0F3CF88EE93E00E94CF002A
:1041A00080E00E941606DF91CF911F910F91FF9042
:1041B000EF90DF90CF90BF90AF900895EF92FF9275
:1041C0000F931F93CF93DF93EE24FF241FC0C701EB
:1041D000B801AE010E943E0384E190E00E94CF004E
:1041E00080E00E9416062196C530D10581F70F5F49
:1041F0001F4F0530110519F0C0E0D0E0E8CF08945A
:10420000E11CF11C85E0E816F10419F000E010E073
:10421000F3CFDF91CF911F910F91FF90EF90089511
:10422000A0E0B0E0E6E1F1E20C945829FC01EA01DB
:104230008081823008F438C1DB019C91923008F40F
:1042400030C1843059F4943009F02EC19181119617
:104250008C911197981709F021C126C1943009F467
:1042600020C19230B1F4823009F01EC1CA01AF0101
:1042700028E0DA010D90AD01DC010D92CD01215055
:10428000C1F7DB0111968C91119791818923898364
:104290000AC1823009F405C1C280D380DB011296C5
:1042A0006D907C90139724813581468157811496B7
:1042B000ED90FD900D911C911797C60186199709F5
:1042C0005C0197FF04C0AA24BB24A81AB90AB0E273
:1042D000AB16B1040CF061C0181619066CF5370165
:1042E00048010A2C04C096948794779467940A94A2
:1042F000D2F781E090E0A0E0B0E00A2C04C0880F83
:10430000991FAA1FBB1F0A94D2F70197A109B109EF
:104310008E219F21A023B123EE24FF248701E39463
:104320000097A105B10519F4EE24FF248701E628C2
:10433000F728082919293CC00097D1F1CA0CDB1CC9
:1043400039014A010A2C04C09694879477946794A3
:104350000A94D2F781E090E0A0E0B0E00A2C04C01B
:10436000880F991FAA1FBB1F0A94D2F70197A109B2
:10437000B10982239323A423B52321E030E040E058
:1043800050E00097A105B10519F420E030E0A90143
:1043900026293729482959290BC06C147D0424F497
:1043A000EE24FF24870104C0630120E030E0A9016E
:1043B0008181FB019181891709F445C0882349F067
:1043C000D801C701821B930BA40BB50B9C01AD0157
:1043D00004C02E193F09400B510B57FD04C0198230
:1043E000DB82CA820BC081E08983DB82CA8250955E
:1043F0004095309521953F4F4F4F5F4F2C833D8324
:104400004E835F830DC0880F991FAA1FBB1F8C832B
:104410009D83AE83BF838A819B8101979B838A831F
:104420008C819D81AE81BF819C01AD0121503040C6
:10443000404050402F3FEFEF3E07EFEF4E07EFE3D6
:104440005E0708F30BC08983DB82CA822E0D3F1DF5
:10445000401F511F2C833D834E835F8383E08883FD
:104460002C813D814E815F8157FF1DC0DA01C9015A
:1044700081709070A070B0705695479537952795CC
:10448000822B932BA42BB52B8C839D83AE83BF8370
:104490008A819B8101969B838A8305C0E1E8F0E0D5
:1044A00003C0FB0101C0FE01CF01CDB7DEB7EEE0D6
:1044B0000C947429A0E2B0E0E0E6F2E20C946029EA
:1044C00069837A838B839C832D833E834F835887B4
:1044D00089E0E82EF12CEC0EFD1ECE010196B7010D
:1044E0000E941E258E010F5E1F4FCE010596B8015A
:1044F0000E941E25C701B801AE01475E5F4F0E94B2
:1045000010210E945024A096E6E00C947C29A0E2A1
:10451000B0E0EDE8F2E20C94602969837A838B8342
:104520009C832D833E834F8358878E01075F1F4FE7
:10453000CE010196B8010E941E2591E1E92EF12CD1
:10454000EC0EFD1ECE010596B7010E941E258A893C
:1045500091E089278A8BC801B701AE01475E5F4FA2
:104560000E9410210E945024A096E6E00C947C2921
:10457000A8E1B0E0EEEBF2E20C945C2969837A8367
:104580008B839C832D833E834F8358878E01075FE7
:104590001F4FCE010196B8010E941E2581E1E82E31
:1045A000F12CEC0EFD1ECE010596B7010E941E25D2
:1045B0009985923008F483C08989823008F47BC0E1
:1045C0002A853A8923272A87943011F0923021F4E2
:1045D000981709F06CC071C0843039F41D861E86AE
:1045E0001F86188A1C861B866AC0823019F484E0F4
:1045F000898765C08B859C852B893C89821B930BA1
:104600009C878B872D853E854F855889ED88FE8850
:104610000F89188D2E153F054007510738F4220FDA
:10462000331F441F551F01979C878B876FE170E0F4
:10463000A12CB12CC12CA0E4DA2E80E090E0DC01AA
:104640002E153F054007510740F08A299B29AC29C8
:10465000BD292E193F09400B510BD694C794B7942E
:10466000A794220F331F441F551F6150704041F71C
:104670006FE7E62EF12C012D112DE822F9220A23F5
:104680001B2360E4E616F1040105110561F487FDC2
:104690000AC0211531054105510529F0805C9F4F65
:1046A000AF4FBF4F80788D879E87AF87B88B8E01C5
:1046B000075F1F4F04C0870102C001E810E0C80176
:1046C0000E9450246896EAE00C947829A8E1B0E0B2
:1046D000ECE6F3E20C94602969837A838B839C83F4
:1046E0002D833E834F8358878E01075F1F4FCE0176
:1046F0000196B8010E941E2581E1E82EF12CEC0EF6
:10470000FD1ECE010596B7010E941E2589858230C7
:1047100040F08989823028F0C801B7010E948725BE
:1047200001C081E06896E6E00C947C29A8E0B0E046
:10473000ECE9F3E20C9460297B018C0183E089832E
:10474000D801C7018827B7FD83959927AA27BB27DA
:10475000282F8A83E114F1040105110519F482E080
:10476000898337C08EE190E09C838B83222389F07C
:1047700080E0E81680E0F80680E0080780E8180787
:1047800069F110950095F094E094E11CF11C011D75
:10479000111DED82FE820F831887C801B7010E94A8
:1047A000F6239C01215030401216130694F4022E79
:1047B00004C0EE0CFF1C001F111F0A94D2F7ED82FB
:1047C000FE820F8318878EE190E0821B930B9C83FF
:1047D0008B83CE0101960E94502404C060E070E0FB
:1047E00080E09FEC2896E6E00C947C29AF92BF9283
:1047F000CF92DF92EF92FF920F931F937B018C0178
:1048000080E0E81680E0F80681E0080780E01807FD
:1048100058F4EFEFEE16F1040105110509F090F4DC
:1048200080E090E0DC0117C0F0E0EF16F0E0FF065A
:10483000F0E00F07F1E01F0750F480E190E0A0E006
:10484000B0E009C088E090E0A0E0B0E004C088E1FA
:1048500090E0A0E0B0E020E230E040E050E0281B33
:10486000390B4A0B5B0B5701680104C0D694C794FF
:10487000B794A7948A95D2F7D601C50187579F4F61
:10488000FC018081281B310941095109C9011F918F
:104890000F91FF90EF90DF90CF90BF90AF90089571
:1048A000EF92FF920F931F93CF93DF93FC0124812C
:1048B00035814681578161818081823020F4406159
:1048C000EFEFF0E0A3C0843009F49BC0823009F41C
:1048D00092C0211531054105510509F48FC00280B0
:1048E000F381E02D8FEFE238F8070CF05AC0C2E8F0
:1048F000DFEFCE1BDF0BCA31D1056CF579018A01E0
:104900000C2E04C016950795F794E7940A94D2F7F5
:1049100081E090E0A0E0B0E00C2E04C0880F991F69
:10492000AA1FBB1F0A94D2F70197A109B1098223DC
:104930009323A423B52321E030E040E050E000972A
:10494000A105B10519F420E030E0A9012E293F2985
:10495000402B512B03C020E030E0A901DA01C9014E
:104960008F779070A070B07080349105A105B1056B
:1049700039F427FF09C0205C3F4F4F4F5F4F04C001
:10498000215C3F4F4F4F5F4FE1E0F0E0203080E08F
:10499000380780E0480780E4580728F5E0E0F0E0B9
:1049A00022C0E038F1056CF5E158FF4FDA01C9018A
:1049B0008F779070A070B07080349105A105B1051B
:1049C00039F427FF09C0205C3F4F4F4F5F4F04C0B1
:1049D000215C3F4F4F4F5F4F57FF05C0569547959E
:1049E00037952795319687E05695479537952795C2
:1049F0008A95D1F70BC0E0E0F0E005C0E0E0F0E020
:104A000005C0EFEFF0E020E030E0A9018E2F8795A0
:104A100088278795942F9F77679566276795E695F2
:104A2000E22EA92FA82BFE2FF62B622F732F8A2F91
:104A30009F2FCDB7DEB7E6E00C947C29DC01FB01AB
:104A40002C9111963C91119712968C911297482FA8
:104A50004F7750E0982F991F9927991F13966C91C3
:104A60001397862F880F892B90E0661F6627661F95
:104A70006183009739F5211531054105510511F480
:104A800082E029C082E89FEF9383828367E0220F50
:104A9000331F441F551F6A95D1F783E0808309C0F7
:104AA000220F331F441F551F8281938101979383E7
:104AB0008283203080E0380780E0480780E4580790
:104AC00078F320C08F3F910579F421153105410518
:104AD000510519F484E08083089544FF03C081E008
:104AE000808310C010820EC08F57904093838283C2
:104AF00083E0808387E0220F331F441F551F8A9570
:104B0000D1F7506424833583468357830895FC018D
:104B1000DB019081923008F449C08C91823008F416
:104B200045C0943051F461818430B1F511962C91D7
:104B3000119730E0261B310941C0843021F09230BA
:104B400041F48230B1F111968C9111978823A1F133
:104B50002DC06181823001F111968C9111976817F7
:104B6000D9F42281338112968D919C9113978217EB
:104B7000930794F028173907BCF0248135814681CA
:104B8000578114968D919D910D90BC91A02D821707
:104B90009307A407B50718F4662341F00DC0281742
:104BA00039074A075B0728F4662331F021E030E03B
:104BB00005C020E030E002C02FEF3FEFC9010895AB
:104BC000ACE0B0E0E6EEF5E20C9458296C013B0154
:104BD0008A01FC0117821682838181FD03C01EC1F8
:104BE000850104C04E010894811C911CF601E380EC
:104BF000F301E3FC8591E3FE81913F01882309F4F1
:104C000009C1853251F4E3FC2591E3FE21913F0176
:104C1000253211F0FF2423C085E290E0B6010E9406
:104C2000BF2A5801DDCF222309F489C085E491E031
:104C3000622F70E02C870E94722A2C85009749F41D
:104C4000233219F4F0E1FF2A04C02C3669F420E87D
:104C5000F22AF301E3FC2591E3FE21913F01F7FEE7
:104C6000E2CF222309F43FC08EE391E0622F70E08F
:104C70002C870E94722A2C85009741F064E0A62EB2
:104C8000B12CA00EB11E8FE390E00FC0233629F0A7
:104C9000233789F0233529F50CC052E0A52EB12C1D
:104CA000A00EB11EF80180819181B6010E94BF2A39
:104CB00097CFF1E0FF2A42E0A42EB12CA00EB11E46
:104CC000F8010081118104C090E0B6010E94BF2A62
:104CD000F801F0FC8591F0FE81918F018823A1F706
:104CE0007FCF243611F0293651F5F7FE0BC034E0A2
:104CF000A32EB12CA00EB11EF801608171818281BA
:104D000093810CC022E0A22EB12CA00EB11EF8019E
:104D100060817181882777FD8095982FFFEEFF22B3
:104D200097FF09C090958095709561957F4F8F4F43
:104D30009F4F20E4F22AA4012AE030E03BC0203754
:104D400099F0213730F42835B1F02F3609F062C0E0
:104D500017C0253721F0283709F05CC007C08FEE57
:104D6000F8222AE030E00EC0E0E1FE2AF4E2FF2A59
:104D700020E130E007C024E0F22A20E132E002C066
:104D800028E030E0F7FE0BC094E0A92EB12CA00E75
:104D9000B11EF80160817181828193810AC082E035
:104DA000A82EB12CA00EB11EF8016081718180E0A7
:104DB00090E0A4010E94062BE82EE8180F2D10E0C9
:104DC000F6FE05C08DE290E0B6010E94BF2A04FF06
:104DD00015C0FE01EE0DF11D8081803379F080E376
:104DE00090E0B6010E94BF2A02FF08C0C80180728D
:104DF0009070885A9F4FB6010E94BF2AEA94F4012E
:104E0000EE0DF11D808190E0B6010E94BF2AEE20D8
:104E1000A9F7E6CEF6012681378102C02FEF3FEFDA
:104E2000C9012C96EEE00C94742920FD09C0FC0108
:104E300023FD05C022FF02C0738362835183408338
:104E40000895EF92FF920F931F9344FD10C046FD0B
:104E500010C0DB01FC01AA0FBB1FEE1FFF1F109447
:104E6000D1F76A0F7B1F8E1F9F1F31E003C033E015
:104E700001C034E0660F771F881F991F3150D1F7AA
:104E80007B018C01E20EF11C011D111DA80197018F
:104E9000B701CA011F910F91FF90EF900895EF9213
:104EA000FF920F931F93CF93DF938C01C8010E9451
:104EB0007D2AEC0197FD09C00E946A2A0097B1F78C
:104EC0007E01CE01B8010E94EB2ACE01CDB7DEB73C
:104ED000E6E00C947C298F929F92AF92BF92DF9272
:104EE000EF92FF920F931F93DF93CF930F92CDB763
:104EF000DEB74C01D62E5A01122F0E947D2A8B322A
:104F000019F08D3249F41068DA9409F46CC0C401C8
:104F10000E947D2A97FD67C0312F3D7F232F20738C
:104F2000F1F48033E1F4DA9409F448C0C401398320
:104F30000E947D2A398197FD41C03260883711F087
:104F4000883559F43064DA94C9F1C40139830E9478
:104F50007D2A398197FF03C031C036FF3061EE24CE
:104F6000FF248701282F2053283090F034FD09C0FA
:104F70002A3070F036FF05C02F7D422F4151463058
:104F800030F0B40139830E94EB2A398114C02750D4
:104F9000C801B701432F39830E9421277B018C016F
:104FA00039813260DA9469F0C40139830E947D2A24
:104FB000398197FFD7CF31FD04C015C0EE24FF24FF
:104FC000870137FF08C010950095F094E094E11C2C
:104FD000F11C011D111DC501B801A701232F0E945D
:104FE000152781E001C080E00F90CF91DF911F91E4
:104FF0000F91FF90EF90DF90BF90AF909F908F90B8
:1050000008954F925F926F927F929F92AF92BF925C
:10501000CF92DF92EF92FF920F931F93DF93CF9384
:105020000F92CDB7DEB78C015B013A01FC0117820C
:105030001682EE24E6C08F2D90E00E946A2A009727
:1050400021F0C8010E944F27DCC0FF2DF53251F43A
:10505000F501C3FC3591C3FE31915F01353271F426
:1050600055E2F52EC8010E947D2A97FDD6C0F8169C
:1050700009F4C7C0B8010E94EB2AD1C03A3241F40A
:10508000C3FC3591C3FE31915F01FF24F39401C04D
:10509000FF24992410C0F2E0FF2A692D70E080E01F
:1050A00090E040E20E942127962EF501C3FC359145
:1050B000C3FE31915F01232F20532A3060F3F1FEAC
:1050C00003C0992019F4ABC099249A94383619F08A
:1050D0003C3699F40AC0F501C3FC3591C3FE319109
:1050E0005F01383651F4F8E0FF2A44E0F42AF50174
:1050F000C3FC3591C3FE31915F01332309F48FC0A6
:1051000085E591E0632F70E039830E94722A39812E
:10511000009709F484C08F2DF0FC08C0F301408093
:10512000518042E050E0640E751E02C044245524B4
:105130003E3651F4F8014681578160E070E0C201CB
:105140002F2D0E9415275DC0333691F481FD02C0DA
:1051500099249394C8010E947D2A97FD5EC0411452
:10516000510419F0F20181932F019A9499F747C0E5
:10517000C80139830E944F27398197FD4EC03F36C1
:1051800061F1303728F4343629F1393649F52AC02F
:10519000333719F0353721F51DC0C8010E947D2A2B
:1051A0006C0197FD11C00E946A2A009729F0C60180
:1051B000B8010E94EB2A08C04114510419F0F20111
:1051C000C1922F019A9449F741145104C1F0F201A0
:1051D000108215C0F0E2FF2A05C040E1F42A02C0A7
:1051E00050E4F52AC801692DA2012F2D0E946B27DA
:1051F000882329F4F8018381807379F410C0F0FECC
:10520000E394F801C380F501C3FCF590C3FEF1906F
:105210005F01FF2009F00FCF02C0EE2019F02E2D04
:1052200030E002C02FEF3FEFC9010F90CF91DF9127
:105230001F910F91FF90EF90DF90CF90BF90AF90B4
:105240009F907F906F905F904F90089597FB092EED
:1052500007260AD077FD04D05ED006D000201AF4CD
:10526000709561957F4F0895F6F7909581959F4FC2
:10527000089597FB092E05260ED057FD04D05FD068
:105280000AD0001C38F450954095309521953F4F39
:105290004F4F5F4F0895F6F7909580957095619503
:1052A0007F4F8F4F9F4F08952F923F924F925F9263
:1052B0006F927F928F929F92AF92BF92CF92DF9226
:1052C000EF92FF920F931F93CF93DF93CDB7DEB78B
:1052D000CA1BDB0B0FB6F894DEBF0FBECDBF09941F
:1052E0002A88398848885F846E847D848C849B8476
:1052F000AA84B984C884DF80EE80FD800C811B8184
:10530000AA81B981CE0FD11D0FB6F894DEBF0FBEB2
:10531000CDBFED010895AA1BBB1B51E107C0AA1F19
:10532000BB1FA617B70710F0A61BB70B881F991F46
:105330005A95A9F780959095BC01CD010895A1E2F9
:105340001A2EAA1BBB1BFD010DC0AA1FBB1FEE1FFF
:10535000FF1FA217B307E407F50720F0A21BB30B4A
:10536000E40BF50B661F771F881F991F1A9469F7C6
:1053700060957095809590959B01AC01BD01CF0122
:105380000895A0E0B0E0E7ECF9E20C945C29EC01B0
:10539000688179818A819B816115710581059105FB
:1053A00021F464E279ED8BE597E02DE133EF41E004
:1053B00050E00E94392979018A0127EA31E440E06E
:1053C00050E00E94E32B5B016C01C801B7012CEE99
:1053D00034EF4FEF5FEF0E94E32B6A0D7B1D8C1DB6
:1053E0009D1D97FF04C061507040804090486883C5
:1053F00079838A839B837F77CB01CDB7DEB7EAE0E1
:105400000C9478290E94C129089589E891E00E94AE
:10541000C1290895A0E0B0E08093890190938A01AA
:10542000A0938B01B0938C010895A0E0B0E0EBE174
:10543000FAE20C945C29EC01688179818A819B8174
:10544000611571058105910521F464E279ED8BE523
:1054500097E02DE133EF41E050E00E9439297901D6
:105460008A0127EA31E440E050E00E94E32B5B012F
:105470006C01C801B7012CEE34EF4FEF5FEF0E94D3
:10548000E32B9B01AC012A0D3B1D4C1D5D1D57FFFD
:1054900004C02150304040405048288339834A831B
:1054A0005B835F77B901CA01CDB7DEB7EAE00C9440
:1054B00078290E94152A08958DE891E00E94152A06
:1054C000089560938D0170938E0180938F01909366
:1054D0009001089591113AC1803219F08950855098
:1054E000D0F70895FC010590061621F00020D9F7A9
:1054F000C00108953197CF010895CF93DF93EC0158
:105500003B8130FF36C036FF09C03F7B3B838E8135
:105510009F8101969F838E832A8129C032FF0FC00D
:10552000E881F9818081992787FD9095009719F48A
:1055300030623B831EC03196F983E88311C0EA854F
:10554000FB85CE01099597FF0BC02B813FEF8F3F65
:10555000930711F480E101C080E2822B8B8309C0A4
:105560002E813F812F5F3F4F3F832E83282F30E0D6
:1055700002C02FEF3FEFC901DF91CF9108950F9344
:105580001F93CF93DF938C01EB018B8181FF1BC0B5
:1055900082FF0DC02E813F818C819D8128173907A4
:1055A00064F4E881F9810193F983E88306C0E88512
:1055B000F985802F0995009731F48E819F8101969E
:1055C0009F838E8302C00FEF1FEFC801DF91CF9141
:1055D0001F910F910895FB01238120FF13C026FD29
:1055E00011C03FEF8F3F930769F0828320642F7DC6
:1055F0002383268137812150304037832683282F0B
:1056000030E002C02FEF3FEFC9010895FA01AA2749
:10561000283051F1203181F1E8946F936E7F6E5FF5
:105620007F4F8F4F9F4FAF4FB1E03ED0B4E03CD0A3
:10563000670F781F891F9A1FA11D680F791F8A1F86
:10564000911DA11D6A0F711D811D911DA11D20D0ED
:1056500009F468943F912AE0269F11243019305DA7
:105660003193DEF6CF010895462F4770405D419398
:10567000B3E00FD0C9F7F6CF462F4F70405D4A33E5
:1056800018F0495D31FD4052419302D0A9F7EACFAD
:10569000B4E0A6959795879577956795BA95C9F7DC
:1056A00000976105710508959B01AC010A2E0694CF
:1056B0005795479537952795BA95C9F7620F731F88
:1056C000841F951FA01D089511F40EF450C041C011
:1056D00060D0D0F39923D9F3CEF39F57550B87FFB2
:1056E00049D00024A0E640EA90018058569597954D
:1056F00028F4805C660F771F881F20F02617370775
:10570000480730F4621B730B840B202931294A2B84
:10571000A69517940794202531254A2758F7660F38
:10572000771F881F20F026173707480730F4620BD1
:10573000730B840B200D311D411DA09581F7B9011C
:10574000842F9158880F96958795089599278827D3
:1057500008959F3F31F0915020F487957795679594
:10576000B795880F911D9695879597F908959FEFA6
:1057700080EC089591505040660F771F881FD2F734
:10578000089557FD9058440F551F59F05F3F71F031
:105790004795880F97FB991F61F09F3F79F0879598
:1057A0000895121613061406551FF2CF4695F1DF21
:1057B00008C0161617061806991FF1CF86957105B1
:1057C000610508940895629FD001739FF001829F44
:1057D000E00DF11D649FE00DF11D929FF00D839F80
:1057E000F00D749FF00D659FF00D9927729FB00D1D
:1057F000E11DF91F639FB00DE11DF91FBD01CF0130
:0858000011240895F894FFCF74
:105808004545535445432057484154275320594F41
:1058180055522050524F46455353494F4E3F000171
:105828000000000000000000000001020203030362
:10583800030404040404040404050505050505051A
:1058480005050505050505050506060606060606F9
:1058580006060606060606060606060606060606E0
:1058680006060606060606060607070707070707C9
:1058780007070707070707070707070707070707B0
:1058880007070707070707070707070707070707A0
:105898000707070707070707070707070707070790
:1058A8000707070707070707070808080808080879
:1058B8000808080808080808080808080808080860
:1058C8000808080808080808080808080808080850
:1058D8000808080808080808080808080808080840
:1058E8000808080808080808080808080808080830
:1058F8000808080808080808080808080808080820
:10590800080808080808080808080808080808080F
:1059180008080808080808080808080808080808FF
:105928000808080808080808080100000001000025
:0259380000006D
:00000001FF
