:100000000C944A000C9467000C9467000C94040153
:100010000C9467000C9467000C9467000C946700C4
:100020000C9467000C9467000C94BA000C94670061
:100030000C9467000C9467000C9467000C946700A4
:100040000C9467000C9467000C9467000C94670094
:100050000C94670010080402010018040300000358
:100060000418000102040810020204080808080429
:10007000020245464765666700202B2D2E3031323F
:100080003334353637383968006364696E6F70739E
:100090007578580011241FBECFE5D8E0DEBFCDBF74
:1000A00010E0A0E6B0E0E8EEFFE102C005900D929E
:1000B000A436B107D9F710E0A4E6B0E001C01D9264
:1000C000AE3AB107E1F70E9468010C94F20F0C946C
:1000D000000020E030E040EA5FE005C0FA0131971F
:1000E000F1F72F5F3F4F28173907C4F308958FEFBB
:1000F0008ABB17BA84BB81BB1BBA15BA12BAC29AA3
:10010000979841E04093850032E03093860024E0E8
:100110002093870098E09093880080E18093890085
:100120008093A3009093A4002093A5003093A60091
:100130004093A7002093A9009093AA008093AB005E
:1001400080E28093AC0080E48093AD0012BE89B75A
:10015000826089BF8AE08CBF83B7846083BF83B726
:10016000886083BF8BB780628BBF84B78F7B84BF6F
:10017000789408951F920F920FB60F9211242F9327
:100180008F939F93EF93FF93E091A800F0E0E755E2
:10019000FF4F808182BB10926A001EC08091A80030
:1001A00090E020916A00FC01EE0FFF1FEE0FFF1F91
:1001B000E80FF91FE20FF11DE657FF4F80818BBB5F
:1001C000E0916A00F0E0ED55FF4F808185BB8091A2
:1001D0006A008F5F80936A0080916A008530F0F238
:1001E0008091A8008F5F8093A8008150843011F423
:1001F0001092A800FF91EF919F918F912F910F90F6
:100200000FBE0F901F9018951F920F920FB60F926E
:1002100011248F93809184008F5F8093840081509C
:10022000823011F4109284008F910F900FBE0F90C6
:100230001F901895813041F0813018F08230A9F478
:100240000CC00E941E0A089581E090E06AE070E010
:1002500044E650E00E94800A089581E090E06AE060
:1002600070E044E650E00E942B0A0895EF92FF925E
:100270000F931F93CF93DF938C01C0E0D0E080EA0F
:10028000E82E8FE0F82E8FE10E94120580E090E0CA
:1002900004C0F7013197F1F7019680179107CCF36D
:1002A00080E00E94120580E090E004C0F7013197E1
:1002B000F1F7019680179107CCF32196C430D10550
:1002C00011F7DF91CF911F910F91FF90EF9008955B
:1002D0001092A80010926A00109284000E94770089
:1002E00084EF91E00E943601809184000E941A01FF
:1002F000FBCFDC0185309105F8F477FD1DC065303A
:100300007105D4F457FD18C045305105ACF4FA011D
:10031000EE0FFF1FEE0FFF1FE40FF51FE60FF71F95
:10032000E657FF4F208181E090E002C0880F991FBF
:10033000AA95E2F7282B20830895DC0185309105EA
:1003400000F577FD1EC065307105DCF457FD19C05E
:1003500045305105B4F4FA01EE0FFF1FEE0FFF1FF9
:10036000E40FF51FE60FF71FE657FF4F208181E0EE
:1003700090E002C0880F991FAA95E2F7809582232A
:10038000808308959C0185309105F0F477FD1CC0B1
:1003900065307105CCF457FD17C045305105A4F404
:1003A000FA01EE0FFF1FEE0FFF1FE40FF51FE60F20
:1003B000F71FE657FF4F808190E002C09595879523
:1003C0002A95E2F78170089580E00895059778F402
:1003D00077FD0DC06530710554F457FD08C090E0FD
:1003E000453051050CF091E081E0982701C090E084
:1003F000892F0895DC012130310509F585309105FB
:1004000000F577FD1EC065307105DCF457FD19C09D
:1004100045305105B4F4FA01EE0FFF1FEE0FFF1F38
:10042000E40FF51FE60FF71FE657FF4F808102C06C
:10043000220F331FAA95E2F7822B808308950E9432
:100440009D010895DC0185309105F8F477FD1DC00C
:1004500065307105D4F457FD18C045305105ACF432
:10046000FA01EE0FFF1FEE0FFF1FE40FF51FE60F5F
:10047000F71FE657FF4F208181E090E002C0880F10
:10048000991FAA95E2F7282720830895FC01EE0F13
:10049000FF1FEE0FFF1FE80FF91FE657FF4F8FE119
:1004A000808381838283838384830895FC01EE0F9C
:1004B000FF1FEE0FFF1FE80FF91FE657FF4F1082D7
:1004C0001182128213821482089521E030E002C06A
:1004D000220F331F8A95E2F760E070E012C0FD0141
:1004E000E40FF51FE657FF4F8081822B80834F5F1B
:1004F0005F4F4530510599F76F5F7F4F653071054C
:1005000051F040E050E0DB01AA0FBB1FAA0FBB1F58
:10051000A60FB71FE4CF089521E030E002C0220FFC
:10052000331F8A95E2F7209560E070E012C0FD016C
:10053000E40FF51FE657FF4F8081822380834F5FD2
:100540005F4F4530510599F76F5F7F4F65307105FB
:1005500051F040E050E0DB01AA0FBB1FAA0FBB1F08
:10056000A60FB71FE4CF0895FC01E657FF4F8FE1B8
:100570008083858382878787848B0895FC01E65773
:10058000FF4F1082158212861786148A08958837C5
:1005900009F053C01416150664F081E090E002C023
:1005A000880F991F6A95E2F7982F909540E050E0E8
:1005B0003AC081E090E002C0880F991F6A95E2F787
:1005C000982F40E050E013C0FB01E20FF31FE65705
:1005D000FF4F8081892B80832F5F3F4F253031056E
:1005E00099F74F5F5F4F4530510509F459C020E03E
:1005F00030E0BA01660F771F660F771F640F751F13
:10060000E3CFFB01E20FF31FE657FF4F8081892301
:1006100080832F5F3F4F2530310599F74F5F5F4F44
:1006200045305105E9F120E030E0BA01660F771F4F
:10063000660F771F640F751FE4CF893799F4FB01AC
:10064000E657FF4F141615063CF48FE1808385832F
:1006500082878787848B0895108215821286178679
:10066000148A08958A37E1F4FB01EE0FFF1FEE0FA5
:10067000FF1F141615065CF4E60FF71FE657FF4F31
:100680008FE1808381838283838384830895E60F4F
:10069000F71FE657FF4F10821182128213821482D5
:1006A0000895AF92BF92CF92DF92EF92FF920F9395
:1006B0001F93CF93DF935C016B01790124173507FA
:1006C00014F47A01A901EA0107C0C501B601AE011F
:1006D00098010E94FA012196EC16FD06B4F7DF910D
:1006E000CF911F910F91FF90EF90DF90CF90BF902F
:1006F000AF900895AF92BF92CF92DF92EF92FF92A8
:100700000F931F93CF93DF935C016B017901241743
:10071000350714F47A01A901EA0107C0CE01B60138
:10072000A50198010E94FA012196EC16FD06B4F786
:10073000DF91CF911F910F91FF90EF90DF90CF90BD
:10074000BF90AF900895AF92BF92CF92DF92EF9299
:10075000FF920F931F93CF93DF935C016B0179019D
:100760002417350714F47A01A901EA0107C0C6016C
:10077000BE01A50198010E94FA012196EC16FD0622
:10078000B4F7DF91CF911F910F91FF90EF90DF9021
:10079000CF90BF90AF9008952F923F924F925F926B
:1007A0007F928F929F92AF92BF92CF92DF92EF9201
:1007B000FF920F931F93CF93DF93FC01702E841B46
:1007C000950B97FF03C0909581959F4FDB01A21B6E
:1007D000B30BB7FF03C0B095A195BF4FE417F50762
:1007E0003CF488248A94982CAA24AA94BA2C06C093
:1007F00001E0802E912C11E0A12EB12C621773071D
:100800003CF4CC24CA94DC2CEE24EA94FE2C06C0E2
:10081000F1E0CF2ED12CE1E0EE2EF12C8A179B07D0
:100820005CF0EC01D595C7958C011D012C01882445
:100830009924EE24FF240AC0ED01D595C7958D01BA
:100840001C012D01AA24BB24CC24DD24B901A0E085
:10085000B0E08AE7781611F54530510508F072C00E
:1008600077FD70C0653071050CF06CC0FB01E65778
:10087000FF4F248981E090E0042E02C0880F991F69
:100880000A94E2F7282B248B2785282B278722859B
:10089000282B22872581282B25832AC088E77816D4
:1008A00051F54530510508F04DC077FD4BC065301E
:1008B00071050CF047C0FB01EE0FFF1FEE0FFF1F8D
:1008C000E60FF71FE657FF4F248181E090E0042EEA
:1008D00002C0880F991F0A94E2F7282B24832381F2
:1008E000282B23832281282B22832181282B2183DB
:1008F0002081822B26C089E7781621F577FD22C05A
:1009000065307105FCF457FD1DC045305105D4F428
:10091000FA01EE0FFF1FEE0FFF1FE40FF51FE60FAA
:10092000F71FE657FF4F8081806180838081886058
:1009300080838081846080838081826080838081E5
:1009400081608083C20DD31DC017D10734F0C01B56
:10095000D10B480D591D6C0D7D1D11964A165B0675
:100960002CF04A0D5B1D6E0D7F1D73CFDF91CF9173
:100970001F910F91FF90EF90DF90CF90BF90AF90BD
:100980009F908F907F905F904F903F902F90089511
:1009900020E030E0F901EE0FFF1FEE0FFF1FE20F26
:1009A000F31FDF01A559BF4F8C91E657FF4F80839E
:1009B00011968C911197818312968C911297828354
:1009C00013968C911397838314968C9184832F5F55
:1009D0003F4F25303105F1F6089520E030E0F90170
:1009E000EE0FFF1FEE0FFF1FE20FF31FDF01A657F1
:1009F000BF4F8C91E559FF4F808311968C911197D1
:100A0000818312968C911297828313968C911397FF
:100A1000838314968C9184832F5F3F4F253031055B
:100A2000F1F6089520E030E0F901EE0FFF1FEE0F20
:100A3000FF1FE20FF31FE657FF4F808381838283FE
:100A4000838384832F5F3F4F2530310569F70895F5
:100A50000F931F93CF93DF93EC0180E090E0FC01B4
:100A6000EE0FFF1FEE0FFF1FE80FF91FE657FF4FB6
:100A700010821182128213821482019685309105B0
:100A800071F7C530D10500F577FD1EC065307105E1
:100A9000DCF457FD19C045305105B4F4FA01EE0FEE
:100AA000FF1FEE0FFF1FE40FF51FE60FF71FE657BE
:100AB000FF4F208181E090E00C2E02C0880F991F2B
:100AC0000A94E2F7282B2083DA011196C530D1056C
:100AD00000F577FD1EC065307105DCF4B7FD19C067
:100AE000A530B105B4F4FD01EE0FFF1FEE0FFF1F9F
:100AF000EA0FFB1FE60FF71FE657FF4F208181E04B
:100B000090E00C2E02C0880F991F0A94E2F7282B60
:100B100020838B010F5F1F4FC530D105D8F517FD1E
:100B200039C005301105B4F557FD19C045305105E0
:100B3000B4F4FA01EE0FFF1FEE0FFF1FE40FF51FD5
:100B4000E00FF11FE657FF4F208181E090E00C2E6F
:100B500002C0880F991F0A94E2F7282B2083B7FD63
:100B600019C0A530B105B4F4FD01EE0FFF1FEE0F63
:100B7000FF1FEA0FFB1FE00FF11FE657FF4F208119
:100B800081E090E00C2E02C0880F991F0A94E2F7D2
:100B9000282B20832196C530D10508F075C077FD3C
:100BA00039C065307105B4F557FD19C045305105A0
:100BB000B4F4FA01EE0FFF1FEE0FFF1FE40FF51F55
:100BC000E60FF71FE657FF4F208181E090E00C2EE3
:100BD00002C0880F991F0A94E2F7282B2083B7FDE3
:100BE00019C0A530B105B4F4FD01EE0FFF1FEE0FE3
:100BF000FF1FEA0FFB1FE60FF71FE657FF4F20818D
:100C000081E090E00C2E02C0880F991F0A94E2F751
:100C1000282B208317FD38C005301105ACF557FD92
:100C200019C045305105B4F4FA01EE0FFF1FEE0F65
:100C3000FF1FE40FF51FE00FF11FE657FF4F208164
:100C400081E090E00C2E02C0880F991F0A94E2F711
:100C5000282B2083B7FD18C0A530B105ACF4FD01E9
:100C6000EE0FFF1FEE0FFF1FEA0FFB1FE00FF11F3C
:100C7000E657FF4F208181E090E002C0880F991F66
:100C8000CA95E2F7282B2083DF91CF911F910F9116
:100C90000895AF92BF92CF92DF92EF92FF920F939F
:100CA0001F93CF93DF93C0E0D0E002C2FC01EE0FB0
:100CB000FF1FEE0FFF1FE80FF91FE657FF4F1082CF
:100CC000118212821382148201968530910571F788
:100CD0008091960084608093960080919C0084604F
:100CE00080939C0080919A00846080939A00809108
:100CF0009800846080939800809194008460809331
:100D00009400809192008460809392008091900082
:100D100084608093900080918C00846080938C002C
:100D200084E690E00E94690080E090E0FC01EE0F14
:100D3000FF1FEE0FFF1FE80FF91FE657FF4F10824E
:100D4000118212821382148201968530910571F707
:100D50008091960084608093960080918C008460DE
:100D600080938C0080919C00846080939C00809193
:100D70009A00846080939A008091980088608093A4
:100D800098008091940082608093940080919200FA
:100D900084608093920080919000846080939000A2
:100DA00084E690E00E94690080E090E0FC01EE0F94
:100DB000FF1FEE0FFF1FE80FF91FE657FF4F1082CE
:100DC000118212821382148201968530910571F787
:100DD0008091960084608093960080918C0084605E
:100DE00080938C0080919C00886080939C0080910F
:100DF0009A00826080939A0080919800806180932D
:100E0000980080919400816080939400809192007A
:100E1000886080939200809190008260809390001F
:100E200084E690E00E94690080E090E0FC01EE0F13
:100E3000FF1FEE0FFF1FE80FF91FE657FF4F10824D
:100E4000118212821382148201968530910571F706
:100E50008091960084608093960080918C008460DD
:100E600080938C0080919C00886080939C0080918E
:100E70009A00826080939A008091970080618093AD
:100E800097008091950081608093950080919200F9
:100E9000886080939200809190008260809390009F
:100EA00084E690E00E94690080E090E0FC01EE0F93
:100EB000FF1FEE0FFF1FE80FF91FE657FF4F1082CD
:100EC000118212821382148201968530910571F786
:100ED0008091960084608093960080918C0084605D
:100EE00080938C0080919B00886080939B00809110
:100EF0009B00826080939B0080919600806180932C
:100F00009600809196008160809396008091910078
:100F1000886080939100809191008260809391001D
:100F200084E690E00E94690080E090E0FC01EE0F12
:100F3000FF1FEE0FFF1FE80FF91FE657FF4F10824C
:100F4000118212821382148201968530910571F705
:100F50008091960084608093960080918C008460DC
:100F600080938C0080919B00886080939B0080918F
:100F70009B00826080939B008091950080618093AC
:100F800095008091970081608093970080919100F7
:100F9000886080939100809191008260809391009D
:100FA00084E690E00E94690080E090E0FC01EE0F92
:100FB000FF1FEE0FFF1FE80FF91FE657FF4F1082CC
:100FC000118212821382148201968530910571F785
:100FD0008091960084608093960080918C0084605C
:100FE00080938C0080919A00886080939A00809111
:100FF0009C00826080939C0080919400806180932B
:101000009400809198008160809398008091900076
:10101000886080939000809192008260809392001B
:1010200084E690E00E94690080E090E0FC01EE0F11
:10103000FF1FEE0FFF1FE80FF91FE657FF4F10824B
:10104000118212821382148201968530910571F704
:101050008091960084608093960080918C008460DB
:1010600080938C0080919A00886080939A00809190
:101070009C00826080939C008091940088608093A3
:1010800094008091980082608093980080919000F5
:10109000886080939000809192008260809392009B
:1010A00084E690E00E9469002196C730D10519F0CE
:1010B00080E090E0FBCD80E090E0FC01EE0FFF1FB0
:1010C000EE0FFF1FE80FF91FE657FF4F1082118246
:1010D00012821382148201968530910571F7EE24F5
:1010E000FF2444E0A42EB12C31E0C32ED12CF0C05B
:1010F0008091960095012C1B3D0BA60102C0440F68
:10110000551F2A95E2F79A01842B809396008091CF
:101110009C00842B80939C0080919A00842B809368
:101120009A0080919800842B80939800809194007D
:10113000842B8093940080919200842B8093920062
:1011400080919000842B8093900080918C00282BBC
:1011500020938C008091960096010C2E02C0220FE5
:10116000331F0A94E2F7822B8093960080919C00B3
:10117000822B80939C0080919A00822B80939A000E
:1011800080919800822B8093980080919400822B0C
:101190008093940080919200822B809392008091A2
:1011A0009000822B8093900080918C00282B2093BC
:1011B0008C0084E690E00E94690021975FEFCF3FAA
:1011C000D50709F095CFC0E0D0E085010C1B1D0BC1
:1011D000C80162E070E042E050E00E949D01C80159
:1011E00063E070E043E050E00E949D01C80161E0CF
:1011F00070E043E050E00E949D01C80164E070E0AF
:1012000042E050E00E949D01C80160E070E042E0D1
:1012100050E00E949D01C80163E070E041E050E0B1
:101220000E949D01C80161E070E041E050E00E9431
:101230009D01C80162E070E040E050E00E949D0125
:10124000CE0162E070E042E050E00E949D01CE01DC
:1012500063E070E043E050E00E949D01CE0161E058
:1012600070E043E050E00E949D01CE0164E070E038
:1012700042E050E00E949D01CE0160E070E042E05B
:1012800050E00E949D01CE0163E070E041E050E03B
:101290000E949D01CE0161E070E041E050E00E94BB
:1012A0009D01CE0162E070E040E050E00E949D01AF
:1012B00084E690E00E9469002196C330D10509F0D0
:1012C00084CF0894E11CF11C85E0E816F10419F0C4
:1012D000C2E0D0E00DCFDF91CF911F910F91FF9031
:1012E000EF90DF90CF90BF90AF900895EF92FF9274
:1012F0000F931F93CF93DF93C0E0D0E041E0E42E43
:10130000F12C6091660070916700409164005091EB
:10131000650080916800909169000E9428050E94F4
:101320002C0E8C010E942C0E63E070E00E942D0FA9
:101330009C01C80162E070E00E942D0F892B99F595
:101340002115310579F480916800909169009C0124
:101350002F5F3F4F2430310578F53093690020939B
:1013600068005CC02130310559F48091660090918D
:1013700067009C012F5F3F4F2430310588F536C050
:101380002230310509F04AC08091640090916500D7
:101390009C012F5F3F4F24303105B0F5309365003D
:1013A000209364003BC02115310589F480916800C9
:1013B00090916900009731F00197909369008093B4
:1013C00068002CC0F0926900E092680027C02130CC
:1013D000310589F48091660090916700009731F0A3
:1013E0000197909367008093660018C03093670060
:1013F0002093660013C02230310581F4809164008F
:1014000090916500009731F001979093650080936B
:10141000640004C0F0926500E09264008FE390E005
:101420000E9469002196C233D10509F06ACFDF918D
:10143000CF911F910F91FF90EF9008950E94760930
:1014400082E090E062E070E042E050E00E94280517
:101450000E9449060895CF92DF92EF92FF920F9378
:101460001F93CF93DF936B017A01C0E0D0E016C0E9
:10147000FD01EE0FFF1FEE0FFF1FEA0FFB1FE657E8
:10148000FF4F008311832283938384831196A530B9
:10149000B10571F7C7010E9469002196CC15DD05E1
:1014A00034F5CE0166E070E00E942D0FFC01EE0FD6
:1014B000FF1FEE0FFF1FE80FF91FCF018B5A9F4F41
:1014C0009F012A5A3F4FAF01495A5F4FBF01685AE7
:1014D0007F4FA0E0B0E0EC5AFF4F0491FC01149163
:1014E000F9012491FA019491FB018491C1CFDF911C
:1014F000CF911F910F91FF90EF90DF90CF900895C3
:10150000CF92DF92EF92FF920F931F93CF93DF93CF
:101510006B017A0100E010E043C0C0E0D0E0CE01F2
:10152000800F911F66E070E00E942D0F9C01220F3A
:10153000331F220F331F280F391FF901EC5AFF4FB9
:10154000E491DE01AA0FBB1FAA0FBB1FAC0FBD1F8A
:10155000A657BF4FEC93F901EB5AFF4FE491119658
:10156000EC931197F901EA5AFF4FE4911296EC932C
:101570001297F901E95AFF4FE4911396EC931397F0
:10158000285A3F4FF901849114968C932196C530C7
:10159000D10509F0C4CFC7010E9469000F5F1F4F3A
:1015A0000C151D050CF4B9CFDF91CF911F910F9150
:1015B000FF90EF90DF90CF900895ABE0B0E0E3EEC6
:1015C000FAE00C94440F5C014B017A01FC01178294
:1015D0001682838181FD08C06FEF7FEF08C142E072
:1015E00050E0E40EF51E04C03E010894611C711C1D
:1015F000F501D380F401D3FC8591D3FE81914F0195
:10160000882309F4F1C0853259F4D3FC6591D3FEE7
:1016100061914F01653219F0062F10E01BC085E281
:1016200090E02BC0002309F4DFC089E790E0602F31
:1016300070E00E943C0E892B39F4033211F41061E2
:1016400003C00C3661F41068F401D3FC0591D3FE9D
:1016500001914F0117FFE6CF002309F4C5C082E7CF
:1016600090E0602F70E00E943C0E892B51F044E026
:1016700050E0E40EF51E8FE390E0B5010E94890E64
:10168000B7CF033629F0033779F00335F1F40BC0F7
:1016900087010E5F1F4FF70180819181B5010E9484
:1016A000890E7801A5CF1160F701C080D18004C0F8
:1016B00090E0B5010E94890EF60110FD859110FFA2
:1016C00081916F018823A1F78ACF043611F0093682
:1016D00039F517FF08C0F70120813181428153811C
:1016E00084E090E00AC0F701808191819C01442749
:1016F00037FD4095542F82E090E0E80EF91E1F7EE2
:1017000057FF08C050954095309521953F4F4F4F5A
:101710005F4F1064CA01B901A3012AE030E034C070
:101720000037A9F0013730F40835B1F00F3609F071
:101730005BC006C0053739F0083709F055C008C04E
:1017400028E030E00CC01F7E2AE030E008C01061C5
:10175000146220E130E003C0146020E132E017FFA2
:1017600008C0F701608171818281938144E050E07B
:1017700008C0F70180819181BC0180E090E042E0E7
:1017800050E0E40EF51EA3010E94CF0ED82ED6180D
:10179000012F10E006FF05C08DE290E0B5010E9428
:1017A000890E04FF15C0FE01ED0DF11D808180330F
:1017B00079F080E390E0B5010E94890E02FF08C035
:1017C00000721070C801885A9F4FB5010E94890E9F
:1017D000DA94F301ED0DF11D808190E0B5010E94D6
:1017E000890EDD20A9F704CFF50166817781CB0151
:1017F0002B96EEE00C94600FFC0120FD08C023FD49
:1018000005C022FF02C07383628351834083089521
:10181000EF92FF920F931F9344FF02C033E011C079
:1018200046FF02C034E00DC0DB01FC01AA0FBB1F64
:10183000EE1FFF1F1094D1F76A0F7B1F8E1F9F1F93
:1018400031E0660F771F881F991F3150D1F77B0158
:101850008C01E20EF11C011D111DA8019701B701B9
:10186000CA011F910F91FF90EF9008950F931F935E
:10187000CF93DF938C01C8010E94470EEC0197FDC6
:1018800008C00E948B0F892BB1F7CE01B8010E94CE
:10189000B50ECE01DF91CF911F910F910895A0E079
:1018A000B0E0E5E5FCE00C94480FEC01C62E5A01CF
:1018B000122F0E94470EAC018B3219F08D3251F479
:1018C0001068CA9409F46DC0CE010E94470EAC01A5
:1018D00097FD67C06DEFD62ED1228D2D807301F557
:1018E0004033F1F4CA9409F447C0CE010E94470E78
:1018F000AC0197FD41C082E0D82A483711F0483545
:1019000059F480E4D82ACA94B9F1CE010E94470E56
:10191000AC0199232CF430C0D6FC02C080E1D82A57
:10192000EE24FF248701242F2053283088F0D4FC94
:1019300009C02A3068F0D6FE05C02F7D822F815164
:10194000863028F0CA01BE010E94B50E12C0275091
:10195000C801B7014D2D0E94080C7B018C0182E06B
:10196000D82ACA9461F0CE010E94470EAC0197FFBD
:10197000DACFD1FC04C015C0EE24FF248701D7FEC6
:1019800008C010950095F094E094E11CF11C011D35
:10199000111DC501B801A7012D2D0E94FC0B81E08E
:1019A00001C080E0CDB7DEB7EAE00C94640FA0E0A0
:1019B000B0E0EDEDFCE00C94440F5C016B013A01EA
:1019C000FC01178216828824DDC0812F90E00E94DE
:1019D0008B0F892B21F0C5010E94360CD3C0153224
:1019E00049F4F601F3FC6591F3FE61916F016532F4
:1019F00069F415E2C5010E94470E97FDCFC0181784
:101A000009F4C0C0B5010E94B50ECDC06A3219F00C
:101A1000162F00E006C0F3FC1591F3FE11916F0143
:101A200001E099240FC00260692D70E080E090E031
:101A300040E20E94080C962EF601F3FC1591F3FE8D
:101A400011916F01212F20532A3068F301FD03C04B
:101A500099249A9403C0992009F4A5C0183621F05E
:101A60001C3699F4F6010BC0F601F3FC6591F3FE08
:101A70006191683619F06F01162F07C00860046085
:101A8000F3FC1591F3FE11916F01112309F48BC042
:101A900089E890E0612F70E00E943C0E892B09F4E8
:101AA00082C0802F00FF03C0EE24FF2407C0F30193
:101AB000E080F18022E030E0620E731E1E3651F4A9
:101AC000F5014681578160E070E0C701202F0E9438
:101AD000FC0B58C0133691F481FD02C099249394F5
:101AE000C5010E94470E97FD59C0E114F10419F099
:101AF000F70181937F019A9499F742C0C5010E9432
:101B0000360C97FD4BC01F3659F1103728F41436A8
:101B100029F1193639F527C0133719F0153711F5A2
:101B20001DC0C5010E94470EEC0197FD11C00E9427
:101B30008B0F892B29F0CE01B5010E94B50E08C08C
:101B4000E114F10419F0F701C1937F019A9449F768
:101B5000E114F104A9F0F701108212C0006203C081
:101B6000006101C00064C501692DA701202F0E94FA
:101B70004F0C882329F4F5018381807379F413C015
:101B800000FF8394F501F380F601F3FC1591F3FE59
:101B900011916F01112309F018CF05C0882019F4A5
:101BA0002FEF3FEF02C0282D30E0C901CDB7DEB7DF
:101BB000EEE00C94600FA0E0B0E0E1EEFDE00C94EC
:101BC000480FEC01A880B980CA80DB80A114B10461
:101BD000C104D10441F484E2A82E89EDB82E8BE52E
:101BE000C82E87E0D82EC601B5012DE133EF41E0C4
:101BF00050E00E94B50F27EA31E440E050E00E9437
:101C0000960F7B018C01C601B5012DE133EF41E058
:101C100050E00E94B50FCA01B9012CEE34EF4FEF2E
:101C20005FEF0E94960F6E0D7F1D801F911F97FF23
:101C300004C06150704080409048688379838A83F3
:101C40009B839B013F77C901CDB7DEB7EAE00C94D7
:101C5000640F0E94DB0D089580E690E00E94DB0D8A
:101C60000895A0E0B0E08093600090936100A0939D
:101C70006200B09363000895FC010590061621F000
:101C80000020D9F7C00108953197CF010895CF936F
:101C9000DF93EC014B8140FF1AC046FF0AC04F7B27
:101CA0004B838E819F8101969F838E838A81282F0B
:101CB0002BC042FF13C0E881F9818081282F332790
:101CC00027FD30952115310529F440624B832FEF14
:101CD0003FEF1BC03196F983E88311C0EA85FB858D
:101CE000CE0109959C0197FF0AC09B812F5F3F4F52
:101CF00011F080E201C080E1892B8B83E8CF8E81D7
:101D00009F8101969F838E8330E0C901DF91CF913F
:101D100008950F931F93CF93DF938C01EB018B8179
:101D200081FF1BC082FF0DC02E813F818C819D8170
:101D30002817390764F4E881F9810193F983E8836E
:101D400006C0E885F985802F0995892B31F48E81AD
:101D50009F8101969F838E8302C00FEF1FEFC80102
:101D6000DF91CF911F910F9108959C01FB01838119
:101D700080FF11C086FD0FC09FEF2F3F390759F03C
:101D8000228380648F7D83838681978101979783E7
:101D9000868330E002C02FEF3FEFC9010895FA01BA
:101DA000AA27283051F1203181F1E8946F936E7F9A
:101DB0006E5F7F4F8F4F9F4FAF4FB1E03ED0B4E08B
:101DC0003CD0670F781F891F9A1FA11D680F791FCC
:101DD0008A1F911DA11D6A0F711D811D911DA11DDD
:101DE00020D009F468943F912AE0269F11243019ED
:101DF000305D3193DEF6CF010895462F4770405D88
:101E00004193B3E00FD0C9F7F6CF462F4F70405D36
:101E10004A3318F0495D31FD4052419302D0A9F791
:101E2000EACFB4E0A6959795879577956795BA958B
:101E3000C9F700976105710508959B01AC010A2E51
:101E400006945795479537952795BA95C9F7620F28
:101E5000731F841F951FA01D089597FB092E072649
:101E60000AD077FD04D043D006D000201AF4709534
:101E700061957F4F0895F6F7909581959F4F08954E
:101E80002F923F924F925F926F927F928F929F928A
:101E9000AF92BF92CF92DF92EF92FF920F931F9378
:101EA000CF93DF93CDB7DEB7CA1BDB0B0FB6F89429
:101EB000DEBF0FBECDBF09942A88398848885F8469
:101EC0006E847D848C849B84AA84B984C884DF80DA
:101ED000EE80FD800C811B81AA81B981CE0FD11DBE
:101EE0000FB6F894DEBF0FBECDBFED010895AA1B5B
:101EF000BB1B51E107C0AA1FBB1FA617B70710F0F5
:101F0000A61BB70B881F991F5A95A9F78095909526
:101F1000BC01CD010895911106C0803219F089509D
:101F20008550D0F70895992788270895629FD0019A
:101F3000739FF001829FE00DF11D649FE00DF11D84
:101F4000929FF00D839FF00D749FF00D659FF00D33
:101F50009927729FB00DE11DF91F639FB00DE11D20
:101F6000F91FBD01CF011124089597FB092E052605
:101F70000ED057FD04D014D00AD0001C38F4509570
:101F80004095309521953F4F4F4F5F4F0895F6F79D
:101F900090958095709561957F4F8F4F9F4F0895D5
:101FA000A1E21A2EAA1BBB1BFD010DC0AA1FBB1F5D
:101FB000EE1FFF1FA217B307E407F50720F0A21BCF
:101FC000B30BE40BF50B661F771F881F991F1A943C
:101FD00069F760957095809590959B01AC01BD0166
:081FE000CF010895F894FFCF32
:041FE80001000000F4
:00000001FF
