:100000000C9464000C9481000C9481000C941E01EB
:100010000C9481000C9481000C9481000C9481005C
:100020000C9481000C9481000C94D4000C948100F9
:100030000C9481000C9481000C9481000C9481003C
:100040000C9481000C9481000C9481000C9481002C
:100050000C9481009D08B808D608F5080E092B09F4
:100060004A0969098509A009C009DD09F609130AC9
:10007000320A4F0A6D0A8D0AAD0ACE0AED0A0B0B41
:100080002A0B4A0B6A0B8A0B1008040201001804A1
:10009000030000030418000102040810020204080F
:1000A00008080804020245464765666700202B2DB4
:1000B0002E3031323334353637383968006364696D
:1000C0006E6F70737578580011241FBECFE5D8E0AD
:1000D000DEBFCDBF10E0A0E6B0E0EEE4FEE202C07D
:1000E00005900D92A436B107D9F711E0A4E6B0E06F
:1000F00001C01D92AC37B107E1F70E9474010C9466
:1001000025170C94000020E030E040EA5FE005C0D5
:10011000FA013197F1F72F5F3F4F28173907C4F3E2
:1001200008958FEF8ABB17BA84BB81BB1BBA15BA7F
:1001300012BAC29A979841E040937F0032E0309320
:10014000800024E02093810098E09093820080E179
:100150008093830080939F009093A0002093A10040
:100160003093A2004093A3002093A5009093A60093
:100170008093A70080E28093A80080E48093A90088
:1001800012BE89B7826089BF8AE08CBF83B7846062
:1001900083BF83B7886083BF8BB780628BBF84B710
:1001A0008F7B84BF789408951F920F920FB60F92A1
:1001B00011242F938F939F93EF93FF93E091A400CB
:1001C000F0E0EB55FF4F808182BB109264001EC0AF
:1001D0008091A40090E020916400FC01EE0FFF1FCD
:1001E000EE0FFF1FE80FF91FE20FF11DEC57FF4F55
:1001F00080818BBBE0916400F0E0E156FF4F80818D
:1002000085BB809164008F5F80936400809164005F
:100210008530F0F28091A4008F5F8093A40081501C
:10022000843011F41092A400FF91EF919F918F916F
:100230002F910F900FBE0F901F9018951F920F9245
:100240000FB60F9211248F939F9380919D009091F0
:100250009E00019690939E0080939D0080919D004A
:1002600090919E00039721F410929E0010929D00A1
:100270009F918F910F900FBE0F901F9018950E9425
:1002800064110895EF92FF920F931F93CF93DF9322
:100290008C01C0E0D0E080EAE82E8FE0F82E8FE1FC
:1002A0000E94210580E090E004C0F7013197F1F74A
:1002B000019680179107CCF380E00E94210580E031
:1002C00090E004C0F7013197F1F70196801791078C
:1002D000CCF32196C430D10511F7DF91CF911F9156
:1002E0000F91FF90EF9008951092A4001092640077
:1002F00083E080937E000E94910010929E001092F5
:100300009D0084EF91E00E9442010E946411FDCFA4
:10031000DC0185309105F8F477FD1DC0653071056D
:10032000D4F457FD18C045305105ACF4FA01EE0F76
:10033000FF1FEE0FFF1FE40FF51FE60FF71FEC572F
:10034000FF4F208181E090E002C0880F991FAA959D
:10035000E2F7282B20830895DC018530910500F514
:1003600077FD1EC065307105DCF457FD19C04530BE
:100370005105B4F4FA01EE0FFF1FEE0FFF1FE40F5B
:10038000F51FE60FF71FEC57FF4F208181E090E04B
:1003900002C0880F991FAA95E2F780958223808377
:1003A00008959C0185309105F0F477FD1CC06530FF
:1003B0007105CCF457FD17C045305105A4F4FA017E
:1003C000EE0FFF1FEE0FFF1FE40FF51FE60FF71FE5
:1003D000EC57FF4F808190E002C0959587952A9554
:1003E000E2F78170089580E00895059778F477FD2D
:1003F0000DC06530710554F457FD08C090E04530DC
:1004000051050CF091E081E0982701C090E0892F20
:100410000895DC012130310509F58530910500F59D
:1004200077FD1EC065307105DCF457FD19C04530FD
:100430005105B4F4FA01EE0FFF1FEE0FFF1FE40F9A
:10044000F51FE60FF71FEC57FF4F808102C0220F08
:10045000331FAA95E2F7822B808308950E94AC0196
:100460000895DC0185309105F8F477FD1DC06530F5
:100470007105D4F457FD18C045305105ACF4FA01AC
:10048000EE0FFF1FEE0FFF1FE40FF51FE60FF71F24
:10049000EC57FF4F208181E090E002C0880F991F48
:1004A000AA95E2F7282720830895FC01EE0FFF1F8D
:1004B000EE0FFF1FE80FF91FEC57FF4F8FE180830E
:1004C00081838283838384830895FC01EE0FFF1F61
:1004D000EE0FFF1FE80FF91FEC57FF4F108211823C
:1004E000128213821482089521E030E002C0220FAC
:1004F000331F8A95E2F760E070E012C0FD01E40F5F
:10050000F51FEC57FF4F8081822B80834F5F5F4F39
:100510004530510599F76F5F7F4F6530710551F098
:1005200040E050E0DB01AA0FBB1FAA0FBB1FA60FC4
:10053000B71FE4CF089521E030E002C0220F331F3F
:100540008A95E2F7209560E070E012C0FD01E40FAB
:10055000F51FEC57FF4F8081822380834F5F5F4FF1
:100560004530510599F76F5F7F4F6530710551F048
:1005700040E050E0DB01AA0FBB1FAA0FBB1FA60F74
:10058000B71FE4CF0895FC01EC57FF4F8FE1808344
:10059000858382878787848B0895FC01EC57FF4F02
:1005A0001082158212861786148A0895883709F0FA
:1005B00053C01416150664F081E090E002C0880F65
:1005C000991F6A95E2F7982F909540E050E03AC065
:1005D00081E090E002C0880F991F6A95E2F7982F9A
:1005E00040E050E013C0FB01E20FF31FEC57FF4F58
:1005F0008081892B80832F5F3F4F2530310599F70C
:100600004F5F5F4F4530510509F459C020E030E09D
:10061000BA01660F771F660F771F640F751FE3CF50
:10062000FB01E20FF31FEC57FF4F8081892380838A
:100630002F5F3F4F2530310599F74F5F5F4F4530B2
:100640005105E9F120E030E0BA01660F771F660F2F
:10065000771F640F751FE4CF893799F4FB01EC57BE
:10066000FF4F141615063CF48FE180838583828743
:100670008787848B08951082158212861786148AC4
:1006800008958A37E1F4FB01EE0FFF1FEE0FFF1F05
:10069000141615065CF4E60FF71FEC57FF4F8FE1B9
:1006A000808381838283838384830895E60FF71F89
:1006B000EC57FF4F10821182128213821482089528
:1006C000AF92BF92CF92DF92EF92FF920F931F9360
:1006D000CF93DF935C016B0179012417350714F484
:1006E0007A01A901EA0107C0C501B601AE0198016E
:1006F0000E9409022196EC16FD06B4F7DF91CF9116
:100700001F910F91FF90EF90DF90CF90BF90AF902F
:100710000895AF92BF92CF92DF92EF92FF920F9324
:100720001F93CF93DF935C016B0179012417350789
:1007300014F47A01A901EA0107C0CE01B601A501AE
:1007400098010E9409022196EC16FD06B4F7DF918C
:10075000CF911F910F91FF90EF90DF90CF90BF90BE
:10076000AF900895AF92BF92CF92DF92EF92FF9237
:100770000F931F93CF93DF935C016B0179012417D3
:10078000350714F47A01A901EA0107C0C601BE01C8
:10079000A50198010E9409022196EC16FD06B4F706
:1007A000DF91CF911F910F91FF90EF90DF90CF904D
:1007B000BF90AF9008952F923F925F926F927F9279
:1007C0008F929F92AF92BF92CF92DF92EF92FF9261
:1007D0000F931F93CF93DF93FC01502E841B950B37
:1007E00097FF03C0909581959F4FDB01A21BB30B30
:1007F000B7FF03C0B095A195BF4FE417F5073CF4D0
:1008000066246A94762C88248A94982C06C001E089
:10081000602E712C11E0812E912C621773073CF42D
:10082000AA24AA94BA2CCC24CA94DC2C06C0F1E0E9
:10083000AF2EB12CE1E0CE2ED12C8A179B075CF0B5
:10084000EC01D595C7951D01DC017C016624772458
:10085000CC24DD2409C0ED01D595C7951C017D018F
:1008600088249924AA24BB24B90100E010E08AE777
:10087000581611F54530510508F072C077FD70C06B
:10088000653071050CF06CC0FB01EC57FF4F2489FB
:1008900081E090E0042E02C0880F991F0A94E2F7CD
:1008A000282B248B2785282B27872285282B2287F6
:1008B0002581282B25832AC088E7581651F5453015
:1008C000510508F04DC077FD4BC0653071050CF047
:1008D00047C0FB01EE0FFF1FEE0FFF1FE60FF71FD4
:1008E000EC57FF4F248181E090E0042E02C0880F76
:1008F000991F0A94E2F7282B24832381282B238332
:100900002281282B22832181282B21832081822B65
:1009100026C089E7581621F577FD22C0653071059C
:10092000FCF457FD1DC045305105D4F4FA01EE0F1B
:10093000FF1FEE0FFF1FE40FF51FE60FF71FEC5729
:10094000FF4F808180618083808188608083808187
:1009500084608083808182608083808181608083E5
:10096000C20DD31DCE15DF0534F0CE19DF09460DBB
:10097000571D6A0D7B1D0F5F1F4FA017B1072CF08D
:10098000480D591D6C0D7D1D72CFDF91CF911F91C8
:100990000F91FF90EF90DF90CF90BF90AF909F901E
:1009A0008F907F906F905F903F902F90089520E000
:1009B00030E0F901EE0FFF1FEE0FFF1FE20FF31FF4
:1009C000DF01AB59BF4F8C91EC57FF4F80831196DD
:1009D0008C911197818312968C9112978283139632
:1009E0008C911397838314968C9184832F5F3F4F50
:1009F00025303105F1F6089520E030E0F901EE0FE1
:100A0000FF1FEE0FFF1FE20FF31FDF01AC57BF4FB9
:100A10008C91EB59FF4F808311968C9111978183B4
:100A200012968C911297828313968C9113978383DD
:100A300014968C9184832F5F3F4F25303105F1F65A
:100A4000089520E030E0F901EE0FFF1FEE0FFF1FC9
:100A5000E20FF31FEC57FF4F8083818382838383F0
:100A600084832F5F3F4F2530310569F7089520E0DB
:100A700030E0F901EE0FFF1FEE0FFF1FE20FF31F33
:100A8000EC57FF4F108211821282138214822F5F63
:100A90003F4F2530310569F7FC01EC57FF4F8EE0E1
:100AA000848B91E197878FE1828795839083089566
:100AB00020E030E0F901EE0FFF1FEE0FFF1FE20F05
:100AC000F31FEC57FF4F108211821282138214829F
:100AD0002F5F3F4F2530310569F7FC01EC57FF4F81
:100AE0008FE0848B91E19787828795838083089537
:100AF00020E030E0F901EE0FFF1FEE0FFF1FE20FC5
:100B0000F31FEC57FF4F108211821282138214825E
:100B10002F5F3F4F2530310569F7FC01EC57FF4F40
:100B20008EE18083848B81E0878782878583089527
:100B300020E030E0F901EE0FFF1FEE0FFF1FE20F84
:100B4000F31FEC57FF4F108211821282138214821E
:100B50002F5F3F4F2530310569F7FC01EC57FF4F00
:100B60009FE0948B81E187878287858390830895B6
:100B700020E030E0F901EE0FFF1FEE0FFF1FE20F44
:100B8000F31FEC57FF4F10821182128213821482DE
:100B90002F5F3F4F2530310569F7FC01EC57FF4FC0
:100BA0002FE1248B91E0978787E0828795832083CC
:100BB000089520E030E0F901EE0FFF1FEE0FFF1F58
:100BC000E20FF31FEC57FF4F108211821282138243
:100BD00014822F5F3F4F2530310569F7FC01EC5738
:100BE000FF4F8FE1848B91E0978787E08287958321
:100BF0009083089520E030E0F901EE0FFF1FEE0F23
:100C0000FF1FE20FF31FEC57FF4F10821182128279
:100C1000138214822F5F3F4F2530310569F7FC01A5
:100C2000EC57FF4F9EE0948B81E087878DE18287B0
:100C300081E185839083089520E030E0F901EE0F93
:100C4000FF1FEE0FFF1FE20FF31FEC57FF4F108245
:100C500011821282138214822F5F3F4F253031059B
:100C600069F7FC01EC57FF4F91E1948B97878FE177
:100C7000828795839083089520E030E0F901EE0F9C
:100C8000FF1FEE0FFF1FE20FF31FEC57FF4F108205
:100C900011821282138214822F5F3F4F253031055B
:100CA00069F7FC01EC57FF4F9FE1948B84E0878745
:100CB000828785839083089520E030E0F901EE0F6C
:100CC000FF1FEE0FFF1FE20FF31FEC57FF4F1082C5
:100CD00011821282138214822F5F3F4F253031051B
:100CE00069F7FC01EC57FF4F8FE1848B80E1878728
:100CF000828781E185838EE08083089520E030E063
:100D0000F901EE0FFF1FEE0FFF1FE20FF31FEC576D
:100D1000FF4F108211821282138214822F5F3F4F85
:100D20002530310569F7FC01EC57FF4F29E0248B92
:100D300095E0978783E0828795832083089520E05C
:100D400030E0F901EE0FFF1FEE0FFF1FE20FF31F60
:100D5000EC57FF4F108211821282138214822F5F90
:100D60003F4F2530310569F7FC01EC57FF4F81E01B
:100D7000848B8787828785838FE18083089520E035
:100D800030E0F901EE0FFF1FEE0FFF1FE20FF31F20
:100D9000EC57FF4F108211821282138214822F5F50
:100DA0003F4F2530310569F7FC01EC57FF4F91E1CA
:100DB000948B8BE1878785E1828795839083089563
:100DC00020E030E0F901EE0FFF1FEE0FFF1FE20FF2
:100DD000F31FEC57FF4F108211821282138214828C
:100DE0002F5F3F4F2530310569F7FC01EC57FF4F6E
:100DF00091E1948B83E1878785E1828789E185830F
:100E00009083089520E030E0F901EE0FFF1FEE0F10
:100E1000FF1FE20FF31FEC57FF4F10821182128267
:100E2000138214822F5F3F4F2530310569F7FC0193
:100E3000EC57FF4F9EE0948B81E187878287858303
:100E40009083089520E030E0F901EE0FFF1FEE0FD0
:100E5000FF1FE20FF31FEC57FF4F10821182128227
:100E6000138214822F5F3F4F2530310569F7FC0153
:100E7000EC57FF4F9FE0948B81E18787928781E059
:100E800085838083089520E030E0F901EE0FFF1F95
:100E9000EE0FFF1FE20FF31FEC57FF4F108211827E
:100EA0001282138214822F5F3F4F2530310569F77C
:100EB000FC01EC57FF4F86E0848B89E087878287AF
:100EC0008EE0858380E18083089520E030E0F901A1
:100ED000EE0FFF1FEE0FFF1FE20FF31FEC57FF4F48
:100EE000108211821282138214822F5F3F4F2530AD
:100EF000310569F7FC01EC57FF4F9FE0948B81E1CE
:100F00008787928785E0858389E08083089520E044
:100F100030E0F901EE0FFF1FEE0FFF1FE20FF31F8E
:100F2000EC57FF4F108211821282138214822F5FBE
:100F30003F4F2530310569F7FC01EC57FF4F8EE13B
:100F4000848B81E087878EE0828780E185838FE0D4
:100F50008083089520E030E0F901EE0FFF1FEE0FCF
:100F6000FF1FE20FF31FEC57FF4F10821182128216
:100F7000138214822F5F3F4F2530310569F7FC0142
:100F8000EC57FF4F84E080838583828787878FE1DA
:100F9000848B089520E030E0F901EE0FFF1FEE0F83
:100FA000FF1FE20FF31FEC57FF4F108211821282D6
:100FB000138214822F5F3F4F2530310569F7FC0102
:100FC000EC57FF4F81E1848B8787828785838FE190
:100FD0008083089520E030E0F901EE0FFF1FEE0F4F
:100FE000FF1FE20FF31FEC57FF4F10821182128296
:100FF000138214822F5F3F4F2530310569F7FC01C2
:10100000EC57FF4F91E1948B978785E182878BE1C5
:1010100085839083089520E030E0F901EE0FFF1FF3
:10102000EE0FFF1FE20FF31FEC57FF4F10821182EC
:101030001282138214822F5F3F4F2530310569F7EA
:10104000FC01EC57FF4F81E1848B878782878AE020
:10105000858384E08083089520E030E0F901EE0F7D
:10106000FF1FEE0FFF1FE20FF31FEC57FF4F108221
:1010700011821282138214822F5F3F4F2530310577
:1010800069F7FC01EC57FF4F21E1248B9AE0978729
:1010900084E0828795832083089520E030E0F90181
:1010A000EE0FFF1FEE0FFF1FE20FF31FEC57FF4F76
:1010B000108211821282138214822F5F3F4F2530DB
:1010C000310569F7FC01EC57FF4F81E1848B8AE021
:1010D000878784E0828785838083089520E030E0DD
:1010E000F901EE0FFF1FEE0FFF1FE20FF31FEC578A
:1010F000FF4F108211821282138214822F5F3F4FA2
:101100002530310569F7FC01EC57FF4F9FE1948BC7
:1011100088E0878784E0828782E0858390830895D2
:10112000FC018A31910508F015C3E65DFF4FEE0F13
:10113000FF1F0590F491E02D099480E090E0FC0100
:10114000EE0FFF1FEE0FFF1FE80FF91FEC57FF4FC9
:1011500010821182128213821482019685309105C9
:1011600071F7FB01EC57FF4F8EE0848B91E1CAC011
:1011700080E090E0FC01EE0FFF1FEE0FFF1FE80F75
:10118000F91FEC57FF4F10821182128213821482D2
:1011900001968530910571F7FB01EC57FF4F8FE009
:1011A000848B91E1978782879583B2C280E090E03B
:1011B000FC01EE0FFF1FEE0FFF1FE80FF91FEC57AA
:1011C000FF4F1082118212821382148201968530A1
:1011D000910571F7FB01EC57FF4F8EE18083848B03
:1011E00081E0878782878583089580E090E0FC0115
:1011F000EE0FFF1FEE0FFF1FE80FF91FEC57FF4F19
:101200001082118212821382148201968530910518
:1012100071F7FB01EC57FF4F9FE03CC180E090E08D
:10122000FC01EE0FFF1FEE0FFF1FE80FF91FEC5739
:10123000FF4F108211821282138214820196853030
:10124000910571F7FB01EC57FF4F2FE1248B91E0E3
:10125000978787E03BC280E090E0FC01EE0FFF1F24
:10126000EE0FFF1FE80FF91FEC57FF4F108211829E
:1012700012821382148201968530910571F7FB0169
:10128000EC57FF4F8FE1848B91E0978787E082874F
:101290009583FEC180E090E0FC01EE0FFF1FEE0F92
:1012A000FF1FE80FF91FEC57FF4F108211821282C7
:1012B0001382148201968530910571F7FB01EC577A
:1012C000FF4F9EE0948B81E087878DE1828781E1EB
:1012D000DEC180E090E0FC01EE0FFF1FEE0FFF1F6C
:1012E000E80FF91FEC57FF4F108211821282138210
:1012F000148201968530910571F7FB01EC57FF4F81
:1013000091E1948B97878FE1C2CF80E090E0FC0160
:10131000EE0FFF1FEE0FFF1FE80FF91FEC57FF4FF7
:1013200010821182128213821482019685309105F7
:1013300071F7FB01EC57FF4F9FE1948B84E0ACC049
:1013400080E090E0FC01EE0FFF1FEE0FFF1FE80FA3
:10135000F91FEC57FF4F1082118212821382148200
:1013600001968530910571F7FB01EC57FF4F8FE136
:10137000848B80E18787828781E185838EE0C8C185
:1013800080E090E0FC01EE0FFF1FEE0FFF1FE80F63
:10139000F91FEC57FF4F10821182128213821482C0
:1013A00001968530910571F7FB01EC57FF4F29E05D
:1013B000248B95E0978783E089C180E090E0FC0171
:1013C000EE0FFF1FEE0FFF1FE80FF91FEC57FF4F47
:1013D0001082118212821382148201968530910547
:1013E00071F7FB01EC57FF4F81E00FC180E090E007
:1013F000FC01EE0FFF1FEE0FFF1FE80FF91FEC5768
:10140000FF4F10821182128213821482019685305E
:10141000910571F7FB01EC57FF4F91E1948B8BE144
:10142000878785E134CF80E090E0FC01EE0FFF1F5D
:10143000EE0FFF1FE80FF91FEC57FF4F10821182CC
:1014400012821382148201968530910571F7FB0197
:10145000EC57FF4F91E1948B83E1878785E1828789
:1014600089E115C180E090E0FC01EE0FFF1FEE0F57
:10147000FF1FE80FF91FEC57FF4F108211821282F5
:101480001382148201968530910571F7FB01EC57A8
:10149000FF4F9EE0948B81E187878287F8C080E0D0
:1014A00090E0FC01EE0FFF1FEE0FFF1FE80FF91F8A
:1014B000EC57FF4F10821182128213821482019620
:1014C0008530910571F7FB01EC57FF4F9FE0948B3E
:1014D00081E18787928781E01AC180E090E0FC017A
:1014E000EE0FFF1FEE0FFF1FE80FF91FEC57FF4F26
:1014F0001082118212821382148201968530910526
:1015000071F7FB01EC57FF4F86E0848B89E08787FA
:1015100082878EE0858380E1FBC080E090E0FC0163
:10152000EE0FFF1FEE0FFF1FE80FF91FEC57FF4FE5
:1015300010821182128213821482019685309105E5
:1015400071F7FB01EC57FF4F9FE0948B81E1878798
:10155000928785E0858389E0DBC080E090E0FC0134
:10156000EE0FFF1FEE0FFF1FE80FF91FEC57FF4FA5
:1015700010821182128213821482019685309105A5
:1015800071F7FB01EC57FF4F8EE1848B81E0878779
:101590008EE0828780E185838FE0BAC080E090E0B2
:1015A000FC01EE0FFF1FEE0FFF1FE80FF91FEC57B6
:1015B000FF4F1082118212821382148201968530AD
:1015C000910571F7FB01EC57FF4F84E08083858321
:1015D000828787878FE1848B089580E090E0FC010B
:1015E000EE0FFF1FEE0FFF1FE80FF91FEC57FF4F25
:1015F0001082118212821382148201968530910525
:1016000071F7FB01EC57FF4F81E1848B878782875D
:1016100085838FE17DC080E090E0FC01EE0FFF1F2D
:10162000EE0FFF1FE80FF91FEC57FF4F10821182DA
:1016300012821382148201968530910571F7FB01A5
:10164000EC57FF4F81E1848B878782878AE085830F
:1016500084E05EC080E090E0FC01EE0FFF1FEE0F23
:10166000FF1FE80FF91FEC57FF4F10821182128203
:101670001382148201968530910571F7FB01EC57B6
:10168000FF4F91E1948B978785E182878BE185837A
:101690009083089580E090E0FC01EE0FFF1FEE0FB5
:1016A000FF1FE80FF91FEC57FF4F108211821282C3
:1016B0001382148201968530910571F7FB01EC5776
:1016C000FF4F21E1248B9AE0978784E082879583FE
:1016D0002083089580E090E0FC01EE0FFF1FEE0FE5
:1016E000FF1FE80FF91FEC57FF4F10821182128283
:1016F0001382148201968530910571F7FB01EC5736
:10170000FF4F81E1848B8AE0878784E0828785832D
:101710008083089580E090E0FC01EE0FFF1FEE0F44
:10172000FF1FE80FF91FEC57FF4F10821182128242
:101730001382148201968530910571F7FB01EC57F5
:10174000FF4F9FE1948B88E0878784E0828782E067
:10175000858390830895282F30E021543040C901BB
:101760000895EF92FF920F931F93CF93DF93EE2490
:10177000FF242FC0C701B801AE010E94D101882308
:10178000A9F0209739F4C701B80140E050E00E9469
:10179000AC010CC0C701B801AE010E94AC01AE01A2
:1017A00041505040C701B8010E9488012196C530C0
:1017B000D10501F70F5F1F4F0530110519F0C0E08B
:1017C000D0E0D8CF0894E11CF11C85E0E816F104C4
:1017D00019F000E010E0F3CFDF91CF911F910F914E
:1017E000FF90EF9008950F931F930E945F158C0157
:1017F0000E945F159C01C80165E070E00E946016C0
:10180000FC01C90165E070E00E946016BC01CF01D7
:1018100044E050E00E9488011F910F91089580E0FC
:101820000E9421050E94F30B8AE590E00E9483004C
:101830000E94B10BF7CF80E00E94210584E893E07D
:101840000E9483000895FF920F931F93CF93DF931D
:10185000C0E0D0E00FE111E087E0F82E80E00E94C8
:101860002105FE01EC57FF4F00831583F286178791
:10187000048B84EF91E00E9483002196C530D1054E
:1018800069F7DF91CF911F910F91FF900895CF924B
:10189000DF92EF92FF920F931F93CF93DF936B0131
:1018A0007A01C0E0D0E016C0FD01EE0FFF1FEE0F81
:1018B000FF1FEA0FFB1FEC57FF4F008311832283AA
:1018C000938384831196A530B10571F7C7010E94F7
:1018D00083002196CC15DD0534F5CE0166E070E07D
:1018E0000E946016FC01EE0FFF1FEE0FFF1FE80FB6
:1018F000F91FCF0187579F4F9F0126573F4FAF01D9
:1019000045575F4FBF0164577F4FA0E0B0E0E857F5
:10191000FF4F0491FC011491F9012491FA01949173
:10192000FB018491C1CFDF91CF911F910F91FF9067
:10193000EF90DF90CF900895CF92DF92EF92FF92D9
:101940000F931F93CF93DF936B017A0100E010E0B8
:1019500043C0C0E0D0E0CE01800F911F66E070E090
:101960000E9460169C01220F331F220F331F280F85
:10197000391FF901E857FF4FE491DE01AA0FBB1FA1
:10198000AA0FBB1FAC0FBD1FAC57BF4FEC93F901A3
:10199000E757FF4FE4911196EC931197F901E65741
:1019A000FF4FE4911296EC931297F901E557FF4F20
:1019B000E4911396EC93139724573F4FF9018491C8
:1019C00014968C932196C530D10509F0C4CFC70178
:1019D0000E9483000F5F1F4F0C151D050CF4B9CF3B
:1019E000DF91CF911F910F91FF90EF90DF90CF90FB
:1019F00008950F931F93CF93DF9390E00E94AB0B5A
:101A00008C01C0E0D0E0C801BE010E94900880E5D2
:101A100090E00E9483002196C430D105A1F7C8014F
:101A200064E070E00E94900884EF91E00E948300DF
:101A3000DF91CF911F910F91089585E40E94F90CD9
:101A400085E40E94F90C83E50E94F90C84E50E946C
:101A5000F90C85E40E94F90C83E40E94F90C0E94C1
:101A60001B0C8CE40E94F90C83E40E94F90C0E9488
:101A70001B0C8BE40E94F90C82E50E94F90C81E4B6
:101A80000E94F90C8BE40E94F90C8FE40E94F90C7F
:101A900087E50E94F90C089586E40E94F90C89E418
:101AA0000E94F90C8CE40E94F90C82E50E94F90C6A
:101AB0008FE40E94F90C83E50E94F90C0E941B0C34
:101AC00082E50E94F90C85E50E94F90C8CE40E94E5
:101AD000F90C8AE50E94F90C089585E40E94F90C3E
:101AE00085E40E94F90C83E50E94F90C84E50E94CC
:101AF000F90C85E40E94F90C83E40E94F90C089526
:101B00000F931F93CF93DF938C01C0E0D0E0C80107
:101B1000BE010E94900880E590E00E94830021961B
:101B2000C430D105A1F7C80164E070E00E949008BC
:101B300084EF91E00E948300DF91CF911F910F917C
:101B40000895CF93DF93C0E0D0E0CE0164E070E071
:101B50000E9490088CEB92E00E9483002196C8318D
:101B6000D10599F7DF91CF9108950F931F93CF93EC
:101B7000DF93C0E0D0E000E010E00530110511F483
:101B800000E010E0C630D10519F4C0E0D0E01EC07E
:101B9000C230D10599F0C330D10534F42097B1F0AB
:101BA000C130D105D1F412C0C430D10579F0C430B0
:101BB000D10544F0C530D10581F40CC0C8010E94A4
:101BC00087070BC0C8010E94AA0707C0C8010E946E
:101BD000B80503C0C8010E94780521960F5F1F4F0A
:101BE00084EF91E00E948300C8CF80E090E02FEF67
:101BF0003FEFFC01EE0FFF1FE80FF91FEE0FFF1F75
:101C0000DF01A655BF4F11963C932E93E455FF4F2D
:101C10003183208315963C932E93149701968E3131
:101C2000910539F708958F929F92AF92BF92CF920C
:101C3000DF92EF92FF920F931F93DF93CF9300D029
:101C400000D000D0CDB7DEB78091B0009091B10048
:101C50008F5F9F4F09F47BC18091B0009091B100DC
:101C60009A8389838091B6009091B7009093B100D8
:101C70008093B0008091B2009091B3009C838B83DD
:101C80008091B8009091B9009093B3008093B20016
:101C90008091B4009091B5009E838D838091BA00AD
:101CA0009091BB009093B5008093B40082E090E0E7
:101CB0005E010894A11CB11C42C0D701A40FB51F3E
:101CC000AA0FBB1FA655BF4F8D919C9111978F5F97
:101CD0009F4F09F1F601808191814801840E951E84
:101CE000880C991CEAEAF0E08E0E9F1EF4019183A5
:101CF00080838D919C911197F601819391936F014F
:101D0000F4018081918111969C938E934F5F5F4F78
:101D10004330510591F6FB01EE0FFF1FE60FF71F51
:101D2000E40FF51FEE0FFF1FE655FF4F80819181F5
:101D30008F5F9F4FC1F06E31710599F0CB019C010F
:101D4000650140E050E0BC016F5F7F4F7B01EE0C0E
:101D5000FF1CE60EF71E8C01000F111F080F191F44
:101D6000ACCF2EE130E080919D0090919E008130BB
:101D7000910589F08230910509F1892B89F5C90116
:101D80000196FC01EE0FFF1FE80FF91FEE0FFF1F7A
:101D9000E655FF4F0BC0C9010196FC01EE0FFF1F76
:101DA000E80FF91FEE0FFF1FE455FF4F808191816F
:101DB0009183808301969183808312C0C90101962B
:101DC000FC01EE0FFF1FE80FF91FEE0FFF1FE65596
:101DD000FF4F8481958195838483019695838483C5
:101DE000A9014F5F5F4FFA01EE0FFF1FE40FF51FD0
:101DF000EE0FFF1FE655FF4F8081918105975CF044
:101E0000F901EE0FFF1FE20FF31FEE0FFF1FE65564
:101E1000FF4F11821082FA01EE0FFF1FE40FF51F32
:101E2000EE0FFF1FE455FF4F8081918105975CF015
:101E3000F901EE0FFF1FE20FF31FEE0FFF1FE45536
:101E4000FF4F11821082FA01EE0FFF1FE40FF51F02
:101E5000EE0FFF1FE655FF4F8481958105975CF0DB
:101E6000F901EE0FFF1FE20FF31FEE0FFF1FE65504
:101E7000FF4F15821482FA01EE0FFF1FE40FF51FCA
:101E8000EE0FFF1FE655FF4F8081918197FF0DC038
:101E9000F901EE0FFF1FE20FF31FEE0FFF1FE655D4
:101EA000FF4F84E090E091838083FA01EE0FFF1FE3
:101EB000E40FF51FEE0FFF1FE455FF4F8081918166
:101EC00097FF0DC0F901EE0FFF1FE20FF31FEE0F9A
:101ED000FF1FE455FF4F84E090E091838083FA0177
:101EE000EE0FFF1FE40FF51FEE0FFF1FE655FF4F2C
:101EF0008481958197FF0DC0F901EE0FFF1FE20F5E
:101F0000F31FEE0FFF1FE655FF4F84E090E095832F
:101F10008483FA01EE0FFF1FE40FF51FEE0FFF1F82
:101F2000DF01A655BF4F8D919C9111979093710140
:101F300080937001E455FF4F8081918190937301EC
:101F40008093720114968D919C91159795C0809104
:101F50009D0090919E0082309105B9F183309105EA
:101F600034F4009771F0019709F074C01AC08430FE
:101F70009105F9F08430910554F0059709F06AC095
:101F80002CC0EAEAF0E080819181019607C0EAEA7C
:101F9000F0E0808191819183808301979183808398
:101FA00025C0ECEAF0E080819181918380830196E5
:101FB00007C0ECEAF0E080819181918380830197F2
:101FC00091838083EAEAF0E011C0EAEAF0E08481DC
:101FD000958195838483019607C0EAEAF0E08481C5
:101FE00095819583848301979583848380819181F2
:101FF000059714F011821082ECEAF0E08081918163
:10200000059714F011821082EAEAF0E0848195814C
:10201000059714F015821482EAEAF0E0808191813C
:1020200097FF04C084E090E091838083ECEAF0E0C5
:102030008081918197FF04C084E090E09183808348
:10204000EAEAF0E08481958197FF04C084E090E0A3
:1020500095838483EAEAF0E0808191819093710115
:10206000809370018091AC009091AD0090937301CA
:10207000809372018481958190937501809374019E
:1020800026960FB6F894DEBF0FBECDBFCF91DF917D
:102090001F910F91FF90EF90DF90CF90BF90AF9086
:1020A0009F908F9008950E94130E0895CF93DF9311
:1020B000EC0120E030E0F901EE0FFF1FE20FF31F0B
:1020C000EE0FFF1FE655FF4F808191818F5F9F4F7D
:1020D00029F02F5F3F4F2E31310569F788819981B3
:1020E000F901EE0FFF1FE20FF31FEE0FFF1FDF01DD
:1020F000A655BF4F11969C938E938A819B81E45580
:10210000FF4F918380838C819D8115969C938E9344
:102110001497DF91CF91089580919D0090919E003A
:102120008130910551F08230910571F0892BA1F435
:1021300080E090E060E070E004C080E090E064E067
:1021400070E040E050E006C080E090E060E070E0C9
:1021500044E050E00E94880182E390E00E94830006
:102160000895EF92FF920F931F93CF93DF93EE2486
:10217000FF2426C082E090E00BC0F80180819181AD
:1021800068817981448155810E94880183E090E0D3
:10219000F701EE0FFF1FEE0DFF1DE80FF91FEE0F09
:1021A000FF1FE655FF4F808191818F5F9F4F09F49C
:1021B00041C00894E11CF11C2EE1E216F104D1F1BA
:1021C000B701660F771F6E0D7F1D8B01000F111F6A
:1021D00006551F4FF801808191818F5F9F4F19F441
:1021E00080E090E0D5CFF80180819181EB01CC0FA8
:1021F000DD1FC455DF4F68817981448155810E947C
:102200008801888199818F5F9F4F19F481E090E068
:10221000BFCFF801808191816881798144815581A6
:102220000E948801F801848195818F5F9F4F09F09A
:10223000A4CFA0CFDF91CF911F910F91FF90EF908E
:102240000895CF92DF92EF92FF920F931F930E9417
:102250005F1565E070E00E946016D82EC92E0E94BE
:102260005F1565E070E00E946016F82EE92E0E946E
:102270005F1565E070E00E946016182F092F8D2D04
:102280009C2D6F2D7E2D412F502F0E94D10181302A
:10229000F1F2EAE6F1E0D0926A01C0926B01F092AD
:1022A0006C01E38210936E0105838D2D9C2D6F2DA3
:1022B0007E2D412F502F0E9488011F910F91FF907A
:1022C000EF90DF90CF90089510926101109260011D
:1022D00010926301109262011092650110926401E4
:1022E00080E090E02FEF3FEFFC01EE0FFF1FE80FC3
:1022F000F91FEE0FFF1FDF01A655BF4F11963C934C
:102300002E93E455FF4F3183208315963C932E93F3
:10231000149701968E31910539F780916001909163
:1023200061019093AB008093AA008091620190912B
:1023300063019093AD008093AC0080916401909113
:1023400065019093AF008093AE0080916001909101
:102350006101E0916801F09169019183808380912E
:10236000620190916301E0917A01F0917B01918388
:1023700080838091640190916501E0915E01F0910C
:102380005F0191838083E0917601F09177018091E4
:102390006A0190916B0191838083E0917801F091C3
:1023A000790180916C0190916D0191838083E0911E
:1023B0006601F091670180916E0190916F019183A8
:1023C00080830E94211180E00E9421050E948C10D0
:1023D00084EF91E00E948300F6CFFB012091700111
:1023E000309171018081918128173907C1F42091C2
:1023F000720130917301828193812817390779F432
:1024000020917401309175018481958128173907D5
:1024100031F40E94211180E791E00E945610089546
:10242000ABE0B0E0E6E1F2E10C9477165C014B0121
:102430007A01FC0117821682838181FD08C06FEF4B
:102440007FEF08C142E050E0E40EF51E04C03E01FB
:102450000894611C711CF501D380F401D3FC8591B3
:10246000D3FE81914F01882309F4F1C0853259F4DC
:10247000D3FC6591D3FE61914F01653219F0062FAF
:1024800010E01BC085E290E02BC0002309F4DFC000
:102490008DEA90E0602F70E00E946F15892B39F46F
:1024A000033211F4106103C00C3661F41068F401BA
:1024B000D3FC0591D3FE01914F0117FFE6CF002316
:1024C00009F4C5C086EA90E0602F70E00E946F15A5
:1024D000892B51F044E050E0E40EF51E8FE390E0CC
:1024E000B5010E94BC15B7CF033629F0033779F048
:1024F0000335F1F40BC087010E5F1F4FF701808198
:102500009181B5010E94BC157801A5CF1160F7013A
:10251000C080D18004C090E0B5010E94BC15F601D6
:1025200010FD859110FF81916F018823A1F78ACF5B
:10253000043611F0093639F517FF08C0F70120817C
:1025400031814281538184E090E00AC0F7018081AB
:1025500091819C01442737FD4095542F82E090E003
:10256000E80EF91E1F7E57FF08C050954095309524
:1025700021953F4F4F4F5F4F1064CA01B901A3012E
:102580002AE030E034C00037A9F0013730F40835D4
:10259000B1F00F3609F05BC006C0053739F00837D7
:1025A00009F055C008C028E030E00CC01F7E2AE0CA
:1025B00030E008C01061146220E130E003C0146014
:1025C00020E132E017FF08C0F7016081718182814C
:1025D000938144E050E008C0F70180819181BC0103
:1025E00080E090E042E050E0E40EF51EA3010E947E
:1025F0000216D82ED618012F10E006FF05C08DE276
:1026000090E0B5010E94BC1504FF15C0FE01ED0D60
:10261000F11D8081803379F080E390E0B5010E9464
:10262000BC1502FF08C000721070C801885A9F4F85
:10263000B5010E94BC15DA94F301ED0DF11D808106
:1026400090E0B5010E94BC15DD20A9F704CFF5018B
:1026500066817781CB012B96EEE00C949316FC01FA
:1026600020FD08C023FD05C022FF02C073836283E2
:10267000518340830895EF92FF920F931F9344FF7D
:1026800002C033E011C046FF02C034E00DC0DB01E0
:10269000FC01AA0FBB1FEE1FFF1F1094D1F76A0F9A
:1026A0007B1F8E1F9F1F31E0660F771F881F991FAA
:1026B0003150D1F77B018C01E20EF11C011D111D7F
:1026C000A8019701B701CA011F910F91FF90EF90E8
:1026D00008950F931F93CF93DF938C01C8010E943D
:1026E0007A15EC0197FD08C00E94BE16892BB1F740
:1026F000CE01B8010E94E815CE01DF91CF911F9164
:102700000F910895A0E0B0E0E8E8F3E10C947B16A7
:10271000EC01C62E5A01122F0E947A15AC018B32A1
:1027200019F08D3251F41068CA9409F46DC0CE01CD
:102730000E947A15AC0197FD67C06DEFD62ED122AD
:102740008D2D807301F54033F1F4CA9409F447C02C
:10275000CE010E947A15AC0197FD41C082E0D82AD3
:10276000483711F0483559F480E4D82ACA94B9F1B1
:10277000CE010E947A15AC0199232CF430C0D6FC0E
:1027800002C080E1D82AEE24FF248701242F2053A1
:10279000283088F0D4FC09C02A3068F0D6FE05C085
:1027A0002F7D822F8151863028F0CA01BE010E9400
:1027B000E81512C02750C801B7014D2D0E943B13E8
:1027C0007B018C0182E0D82ACA9461F0CE010E947C
:1027D0007A15AC0197FFDACFD1FC04C015C0EE2406
:1027E000FF248701D7FE08C010950095F094E0946F
:1027F000E11CF11C011D111DC501B801A7012D2D02
:102800000E942F1381E001C080E0CDB7DEB7EAE07F
:102810000C949716A0E0B0E0E0E1F4E10C94771698
:102820005C016B013A01FC01178216828824DDC02D
:10283000812F90E00E94BE16892B21F0C5010E94D5
:102840006913D3C0153249F4F601F3FC6591F3FE28
:1028500061916F01653269F415E2C5010E947A1534
:1028600097FDCFC0181709F4C0C0B5010E94E81544
:10287000CDC06A3219F0162F00E006C0F3FC1591A6
:10288000F3FE11916F0101E099240FC00260692DE0
:1028900070E080E090E040E20E943B13962EF6014B
:1028A000F3FC1591F3FE11916F01212F20532A3073
:1028B00068F301FD03C099249A9403C0992009F498
:1028C000A5C0183621F01C3699F4F6010BC0F601AC
:1028D000F3FC6591F3FE6191683619F06F01162FD4
:1028E00007C008600460F3FC1591F3FE11916F01BD
:1028F000112309F48BC08DEB90E0612F70E00E94F2
:102900006F15892B09F482C0802F00FF03C0EE24CD
:10291000FF2407C0F301E080F18022E030E0620E86
:10292000731E1E3651F4F5014681578160E070E058
:10293000C701202F0E942F1358C0133691F481FD38
:1029400002C099249394C5010E947A1597FD59C03D
:10295000E114F10419F0F70181937F019A9499F73A
:1029600042C0C5010E94691397FD4BC01F3659F143
:10297000103728F4143629F1193639F527C01337E2
:1029800019F0153711F51DC0C5010E947A15EC012B
:1029900097FD11C00E94BE16892B29F0CE01B5010A
:1029A0000E94E81508C0E114F10419F0F701C19381
:1029B0007F019A9449F7E114F104A9F0F70110821C
:1029C00012C0006203C0006101C00064C501692D2E
:1029D000A701202F0E948213882329F4F501838107
:1029E000807379F413C000FF8394F501F380F6013E
:1029F000F3FC1591F3FE11916F01112309F018CF2B
:102A000005C0882019F42FEF3FEF02C0282D30E0D9
:102A1000C901CDB7DEB7EEE00C949316A0E0B0E0AC
:102A2000E4E1F5E10C947B16EC01A880B980CA8042
:102A3000DB80A114B104C104D10441F484E2A82EC6
:102A400089EDB82E8BE5C82E87E0D82EC601B501DA
:102A50002DE133EF41E050E00E94E81627EA31E42F
:102A600040E050E00E94C9167B018C01C601B5010F
:102A70002DE133EF41E050E00E94E816CA01B901B0
:102A80002CEE34EF4FEF5FEF0E94C9166E0D7F1DE5
:102A9000801F911F97FF04C0615070408040904894
:102AA000688379838A839B839B013F77C901CDB774
:102AB000DEB7EAE00C9497160E940E15089580E6A2
:102AC00090E00E940E150895A0E0B0E080936000B1
:102AD00090936100A0936200B09363000895FC019D
:102AE0000590061621F00020D9F7C001089531970E
:102AF000CF010895CF93DF93EC014B8140FF1AC0C3
:102B000046FF0AC04F7B4B838E819F8101969F8336
:102B10008E838A81282F2BC042FF13C0E881F98160
:102B20008081282F332727FD30952115310529F481
:102B300040624B832FEF3FEF1BC03196F983E88350
:102B400011C0EA85FB85CE0109959C0197FF0AC05B
:102B50009B812F5F3F4F11F080E201C080E1892B04
:102B60008B83E8CF8E819F8101969F838E8330E097
:102B7000C901DF91CF9108950F931F93CF93DF93F6
:102B80008C01EB018B8181FF1BC082FF0DC02E8168
:102B90003F818C819D812817390764F4E881F98190
:102BA0000193F983E88306C0E885F985802F0995AC
:102BB000892B31F48E819F8101969F838E8302C081
:102BC0000FEF1FEFC801DF91CF911F910F91089573
:102BD0009C01FB01838180FF11C086FD0FC09FEF28
:102BE0002F3F390759F0228380648F7D838386814C
:102BF000978101979783868330E002C02FEF3FEFE4
:102C0000C9010895FA01AA27283051F1203181F134
:102C1000E8946F936E7F6E5F7F4F8F4F9F4FAF4FE4
:102C2000B1E03ED0B4E03CD0670F781F891F9A1FF7
:102C3000A11D680F791F8A1F911DA11D6A0F711DAB
:102C4000811D911DA11D20D009F468943F912AE0B7
:102C5000269F11243019305D3193DEF6CF0108959F
:102C6000462F4770405D4193B3E00FD0C9F7F6CFD0
:102C7000462F4F70405D4A3318F0495D31FD405298
:102C8000419302D0A9F7EACFB4E0A695979587952E
:102C900077956795BA95C9F700976105710508950D
:102CA0009B01AC010A2E06945795479537952795B9
:102CB000BA95C9F7620F731F841F951FA01D089551
:102CC00097FB092E07260AD077FD04D043D006D003
:102CD00000201AF4709561957F4F0895F6F790954E
:102CE00081959F4F08952F923F924F925F926F92DE
:102CF0007F928F929F92AF92BF92CF92DF92EF928C
:102D0000FF920F931F93CF93DF93CDB7DEB7CA1B0C
:102D1000DB0B0FB6F894DEBF0FBECDBF09942A8837
:102D2000398848885F846E847D848C849B84AA84DF
:102D3000B984C884DF80EE80FD800C811B81AA816C
:102D4000B981CE0FD11D0FB6F894DEBF0FBECDBF37
:102D5000ED010895AA1BBB1B51E107C0AA1FBB1FB1
:102D6000A617B70710F0A61BB70B881F991F5A9517
:102D7000A9F780959095BC01CD010895911106C0E9
:102D8000803219F089508550D0F708959927882707
:102D90000895629FD001739FF001829FE00DF11DA5
:102DA000649FE00DF11D929FF00D839FF00D749FC5
:102DB000F00D659FF00D9927729FB00DE11DF91F71
:102DC000639FB00DE11DF91FBD01CF0111240895CE
:102DD00097FB092E05260ED057FD04D014D00AD03B
:102DE000001C38F450954095309521953F4F4F4F3A
:102DF0005F4F0895F6F790958095709561957F4F98
:102E00008F4F9F4F0895A1E21A2EAA1BBB1BFD01F5
:102E10000DC0AA1FBB1FEE1FFF1FA217B307E407B9
:102E2000F50720F0A21BB30BE40BF50B661F771F11
:102E3000881F991F1A9469F76095709580959095F1
:0E2E40009B01AC01BD01CF010895F894FFCFB6
:042E4E00010000007F
:04000003000022C80F
:00000001FF
