:100000000C9468000C9485000C9485000C942201DB
:100010000C9485000C9485000C9485000C9485004C
:100020000C9485000C9485000C94D8000C948500E9
:100030000C9485000C9485000C9485000C9485002C
:100040000C9485000C9485000C9485000C9485001C
:100050000C9485001008040201001804030000033A
:1000600004180001020408101F020408080808040C
:1000700002021F1111111F1F1111111F1F11111148
:100080001F1F1111111F1F1111111F1F1111111FFE
:10009000000000000F000000000000000000000051
:1000A00000000000000000000000000000004546C5
:1000B0004765666700202B2D2E30313233343536BC
:1000C00037383968006364696E6F707375785800EB
:1000D00011241FBECFE5D8E0DEBFCDBF10E0A0E603
:1000E000B0E0ECE8F5E102C005900D92A036B10752
:1000F000D9F710E0A0E6B0E001C01D92A43AB10724
:10010000E1F70E944F010C94C40A0C94000020E017
:1001100030E040EA5FE005C0FA013197F1F72F5F68
:100120003F4F28173907C4F308958FEF8ABB17BADA
:1001300084BB81BB1BBA15BA12BAC29A979841E028
:1001400040937B0032E030937C0024E020937D00DC
:1001500098E090937E0080E180937F0080939900E7
:1001600090939A0020939B0030939C0040939D00B5
:1001700020939F009093A0008093A10080E2809341
:10018000A20080E48093A30012BE89B7826089BF79
:100190008AE08CBF83B7846083BF83B7886083BFE6
:1001A0008BB780628BBF84B78F7B84BF78940895B0
:1001B0001F920F920FB60F9211242F938F939F933C
:1001C000EF93FF93E0919E00F0E0E156FF4F8081B6
:1001D00082BB109260001EC080919E0090E0209132
:1001E0006000FC01EE0FFF1FEE0FFF1FE80FF91F6D
:1001F000E20FF11DE058FF4F80818BBBE091600062
:10020000F0E0E756FF4F808185BB809160008F5FF3
:1002100080936000809160008530F0F280919E00B4
:100220008F5F80939E008150843011F410929E0065
:10023000FF91EF919F918F912F910F900FBE0F9093
:100240001F9018951F920F920FB60F9211248F9343
:1002500080917A008F5F80937A008150823011F410
:1002600010927A008F910F900FBE0F901F901895EB
:10027000813019F0823091F409C081E090E068EE9D
:1002800073E044E150E00E94F705089581E090E0BA
:100290006AE070E042E350E00E94F7050895CF93D2
:1002A000DF9310929E001092600010927A000E94DC
:1002B0009500C0E0D0E0CE0164E670E04AE050E096
:1002C0000E94F7052196F7CFEF92FF920F931F93AD
:1002D000CF93DF938C01C0E0D0E080EAE82E8FE07E
:1002E000F82E8FE10E942F0580E090E004C0F70116
:1002F0003197F1F7019680179107CCF380E00E94C7
:100300002F0580E090E004C0F7013197F1F70196E6
:1003100080179107CCF32196C430D10511F7DF91F6
:10032000CF911F910F91FF90EF900895DC018530E0
:100330009105F8F477FD1DC065307105D4F457FDC3
:1003400018C045305105ACF4FA01EE0FFF1FEE0F57
:10035000FF1FE40FF51FE60FF71FE058FF4F208146
:1003600081E090E002C0880F991FAA95E2F7282B40
:1003700020830895DC018530910500F577FD1EC0CE
:1003800065307105DCF457FD19C045305105B4F4F2
:10039000FA01EE0FFF1FEE0FFF1FE40FF51FE60F30
:1003A000F71FE058FF4F208181E090E002C0880FE6
:1003B000991FAA95E2F780958223808308959C0176
:1003C00085309105F0F477FD1CC065307105CCF4E3
:1003D00057FD17C045305105A4F4FA01EE0FFF1F79
:1003E000EE0FFF1FE40FF51FE60FF71FE058FF4F5A
:1003F000808190E002C0959587952A95E2F78170FB
:10040000089580E00895059778F477FD0DC0653074
:10041000710554F457FD08C090E0453051050CF0CB
:1004200091E081E0982701C090E0892F0895DC01D8
:100430002130310509F58530910500F577FD1EC0A5
:1004400065307105DCF457FD19C045305105B4F431
:10045000FA01EE0FFF1FEE0FFF1FE40FF51FE60F6F
:10046000F71FE058FF4F808102C0220F331FAA956B
:10047000E2F7822B808308950E94BA010895DC017F
:1004800085309105F8F477FD1DC065307105D4F411
:1004900057FD18C045305105ACF4FA01EE0FFF1FAF
:1004A000EE0FFF1FE40FF51FE60FF71FE058FF4F99
:1004B000208181E090E002C0880F991FAA95E2F7A1
:1004C000282720830895FC01EE0FFF1FEE0FFF1F6A
:1004D000E80FF91FE058FF4F8FE18083818382830B
:1004E000838384830895FC01EE0FFF1FEE0FFF1F2F
:1004F000E80FF91FE058FF4F108211821282138219
:100500001482089521E030E002C0220F331F8A9543
:10051000E2F760E070E012C0FD01E40FF51FE05863
:10052000FF4F8081822B80834F5F5F4F45305105A5
:1005300099F76F5F7F4F6530710551F040E050E0F3
:10054000DB01AA0FBB1FAA0FBB1FA60FB71FE4CF6B
:10055000089521E030E002C0220F331F8A95E2F7B0
:10056000209560E070E012C0FD01E40FF51FE05837
:10057000FF4F8081822380834F5F5F4F453051055D
:1005800099F76F5F7F4F6530710551F040E050E0A3
:10059000DB01AA0FBB1FAA0FBB1FA60FB71FE4CF1B
:1005A0000895FC01E058FF4F8FE1808385838287A7
:1005B0008787848B0895FC01E058FF4F10821582D5
:1005C00012861786148A0895883709F053C01416C6
:1005D000150664F081E090E002C0880F991F6A95CB
:1005E000E2F7982F909540E050E03AC081E090E02B
:1005F00002C0880F991F6A95E2F7982F40E050E0FB
:1006000013C0FB01E20FF31FE058FF4F8081892BDD
:1006100080832F5F3F4F2530310599F74F5F5F4F44
:100620004530510509F459C020E030E0BA01660FA9
:10063000771F660F771F640F751FE3CFFB01E20F73
:10064000F31FE058FF4F8081892380832F5F3F4F46
:100650002530310599F74F5F5F4F45305105E9F17E
:1006600020E030E0BA01660F771F660F771F640F36
:10067000751FE4CF893799F4FB01E058FF4F14163A
:1006800015063CF48FE18083858382878787848B7E
:1006900008951082158212861786148A08958A3763
:1006A000E1F4FB01EE0FFF1FEE0FFF1F14161506FE
:1006B0005CF4E60FF71FE058FF4F8FE180838183E2
:1006C0008283838384830895E60FF71FE058FF4FEA
:1006D000108211821282138214820895AF92BF9207
:1006E000CF92DF92EF92FF920F931F93CF93DF93FE
:1006F0005C016B0179012417350714F47A01A90113
:10070000EA0107C0C501B601AE0198010E941702B7
:100710002196EC16FD06B4F7DF91CF911F910F9152
:10072000FF90EF90DF90CF90BF90AF900895AF9281
:10073000BF92CF92DF92EF92FF920F931F93CF93CE
:10074000DF935C016B0179012417350714F47A01FA
:10075000A901EA0107C0CE01B601A50198010E94D6
:1007600017022196EC16FD06B4F7DF91CF911F9189
:100770000F91FF90EF90DF90CF90BF90AF900895D2
:10078000AF92BF92CF92DF92EF92FF920F931F939F
:10079000CF93DF935C016B0179012417350714F4C3
:1007A0007A01A901EA0107C0C601BE01A5019801AD
:1007B0000E9417022196EC16FD06B4F7DF91CF9147
:1007C0001F910F91FF90EF90DF90CF90BF90AF906F
:1007D00008952F923F924F925F927F928F929F92B5
:1007E000AF92BF92CF92DF92EF92FF920F931F933F
:1007F000CF93DF93FC01702E841B950B97FF03C0F2
:10080000909581959F4FDB01A21BB30BB7FF03C0EF
:10081000B095A195BF4FE417F5073CF488248A945E
:10082000982CAA24AA94BA2C06C001E0802E912C00
:1008300011E0A12EB12C621773073CF4CC24CA94AA
:10084000DC2CEE24EA94FE2C06C0F1E0CF2ED12C55
:10085000E1E0EE2EF12C8A179B075CF0EC01D595B8
:10086000C7958C011D012C01EE24FF2488249924B6
:100870000AC0ED01D595C7958D011C012D01CC2431
:10088000DD24AA24BB24B901A0E0B0E08AE77816F1
:1008900011F54530510508F072C077FD70C0653024
:1008A00071050CF06CC0FB01E058FF4F248981E01A
:1008B00090E0042E02C0880F991F0A94E2F7282BBB
:1008C000248B2785282B27872285282B2287258183
:1008D000282B25832AC088E7781651F54530510525
:1008E00008F04DC077FD4BC0653071050CF047C076
:1008F000FB01EE0FFF1FEE0FFF1FE60FF71FE05883
:10090000FF4F248181E090E0042E02C0880F991FE0
:100910000A94E2F7282B24832381282B2383228126
:10092000282B22832181282B21832081822B26C002
:1009300089E7781621F577FD22C065307105FCF452
:1009400057FD1DC045305105D4F4FA01EE0FFF1FCD
:10095000EE0FFF1FE40FF51FE60FF71FE058FF4FE4
:1009600080818061808380818860808380818460D1
:100970008083808182608083808181608083C20DDA
:10098000D31DC017D10734F0C01BD10B480D591D22
:100990006C0D7D1D11964A165B062CF04A0D5B1DF1
:1009A0006E0D7F1D73CFDF91CF911F910F91FF903F
:1009B000EF90DF90CF90BF90AF909F908F907F90FF
:1009C0005F904F903F902F90089520E030E0F90124
:1009D000EE0FFF1FEE0FFF1FE20FF31FDF01AF59F6
:1009E000BF4F8C91E058FF4F808311968C911197E7
:1009F000818312968C911297828313968C91139710
:100A0000838314968C9184832F5F3F4F253031056B
:100A1000F1F6089520E030E0F901EE0FFF1FEE0F30
:100A2000FF1FE20FF31FDF01A058BF4F8C91EF595A
:100A3000FF4F808311968C911197818312968C9130
:100A40001297828313968C911397838314968C91BB
:100A500084832F5F3F4F25303105F1F6089520E064
:100A600030E0F901EE0FFF1FEE0FFF1FE20FF31F43
:100A7000E058FF4F808381838283838384832F5F49
:100A80003F4F2530310569F70895CF92DF92EF92FD
:100A9000FF920F931F93CF93DF936B017A01C0E016
:100AA000D0E016C0FD01EE0FFF1FEE0FFF1FEA0F93
:100AB000FB1FE058FF4F00831183228393838483BD
:100AC0001196A530B10571F7C7010E9487002196E4
:100AD000CC15DD0534F5CE0166E070E00E945B0ABE
:100AE000FC01EE0FFF1FEE0FFF1FE80FF91FCF01F4
:100AF0008B5A9F4F9F012A5A3F4FAF01495A5F4F70
:100B0000BF01685A7F4FA0E0B0E0EC5AFF4F04915C
:100B1000FC011491F9012491FA019491FB01849153
:100B2000C1CFDF91CF911F910F91FF90EF90DF9098
:100B3000CF900895CF92DF92EF92FF920F931F9381
:100B4000CF93DF936B017A0100E010E043C0C0E077
:100B5000D0E0CE01800F911F66E070E00E945B0A3A
:100B60009C01220F331F220F331F280F391FF90159
:100B7000E85AFF4FE491DE01AA0FBB1FAA0FBB1F6B
:100B8000AC0FBD1FA058BF4FEC93F901E95AFF4FBE
:100B9000E4911196EC931197F901EA5AFF4FE49111
:100BA0001296EC931297F901EB5AFF4FE4911396CA
:100BB000EC9313972C5A3F4FF901849114968C9320
:100BC0002196C530D10509F0C4CFC7010E94870026
:100BD0000F5F1F4F0C151D050CF4B9CFDF91CF919E
:100BE0001F910F91FF90EF90DF90CF900895CF92DB
:100BF000DF92EF92FF920F931F93CF93DF936A01DF
:100C0000892B09F5EE24FF241BC0C701B801AE01F2
:100C10000E949601C6010E9487002196C530D10529
:100C2000A1F70F5F1F4F0530110519F0C0E0D0E0AC
:100C3000ECCF0894E11CF11C85E0E816F10419F0F2
:100C400000E010E0F3CF80E090E060E070E040E092
:100C500050E00E94BA0180E090E060E070E041E086
:100C600050E00E94BA0180E090E060E070E042E075
:100C700050E00E94BA0180E090E060E070E043E064
:100C800050E00E94BA0180E090E060E070E044E053
:100C900050E00E94BA0180E090E061E070E044E042
:100CA00050E00E94BA0180E090E061E070E042E034
:100CB00050E00E94BA0180E090E062E070E043E022
:100CC00050E00E94BA01DF91CF911F910F91FF90E8
:100CD000EF90DF90CF900895ABE0B0E0E2E7F6E070
:100CE0000C94720A5C014B017A01FC011782168296
:100CF000838181FD08C06FEF7FEF08C142E050E0C3
:100D0000E40EF51E04C03E010894611C711CF5013F
:100D1000D380F401D3FC8591D3FE81914F018823C8
:100D200009F4F1C0853259F4D3FC6591D3FE619189
:100D30004F01653219F0062F10E01BC085E290E0EC
:100D40002BC0002309F4DFC085EB90E0602F70E03A
:100D50000E946A09892B39F4033211F4106103C02F
:100D60000C3661F41068F401D3FC0591D3FE0191B7
:100D70004F0117FFE6CF002309F4C5C08EEA90E0CB
:100D8000602F70E00E946A09892B51F044E050E026
:100D9000E40EF51E8FE390E0B5010E94B709B7CFCE
:100DA000033629F0033779F00335F1F40BC08701DE
:100DB0000E5F1F4FF70180819181B5010E94B70935
:100DC0007801A5CF1160F701C080D18004C090E008
:100DD000B5010E94B709F60110FD859110FF8191C0
:100DE0006F018823A1F78ACF043611F0093639F54F
:100DF00017FF08C0F701208131814281538184E0CF
:100E000090E00AC0F701808191819C01442737FD61
:100E10004095542F82E090E0E80EF91E1F7E57FFA8
:100E200008C050954095309521953F4F4F4F5F4FEB
:100E30001064CA01B901A3012AE030E034C00037D0
:100E4000A9F0013730F40835B1F00F3609F05BC076
:100E500006C0053739F0083709F055C008C028E04A
:100E600030E00CC01F7E2AE030E008C01061146240
:100E700020E130E003C0146020E132E017FF08C039
:100E8000F701608171818281938144E050E008C064
:100E9000F70180819181BC0180E090E042E050E068
:100EA000E40EF51EA3010E94FD09D82ED618012FCD
:100EB00010E006FF05C08DE290E0B5010E94B70981
:100EC00004FF15C0FE01ED0DF11D8081803379F026
:100ED00080E390E0B5010E94B70902FF08C00072EC
:100EE0001070C801885A9F4FB5010E94B709DA9463
:100EF000F301ED0DF11D808190E0B5010E94B7096D
:100F0000DD20A9F704CFF50166817781CB012B960F
:100F1000EEE00C948E0AFC0120FD08C023FD05C004
:100F200022FF02C073836283518340830895EF924E
:100F3000FF920F931F9344FF02C033E011C046FF9E
:100F400002C034E00DC0DB01FC01AA0FBB1FEE1F85
:100F5000FF1F1094D1F76A0F7B1F8E1F9F1F31E078
:100F6000660F771F881F991F3150D1F77B018C01C5
:100F7000E20EF11C011D111DA8019701B701CA0164
:100F80001F910F91FF90EF9008950F931F93CF93B0
:100F9000DF938C01C8010E947509EC0197FD08C020
:100FA0000E94B90A892BB1F7CE01B8010E94E3096A
:100FB000CE01DF91CF911F910F910895A0E0B0E095
:100FC000E4EEF7E00C94760AEC01C62E5A01122FDB
:100FD0000E947509AC018B3219F08D3251F4106802
:100FE000CA9409F46DC0CE010E947509AC0197FD49
:100FF00067C06DEFD62ED1228D2D807301F5403361
:10100000F1F4CA9409F447C0CE010E947509AC01FD
:1010100097FD41C082E0D82A483711F0483559F48D
:1010200080E4D82ACA94B9F1CE010E947509AC01B6
:1010300099232CF430C0D6FC02C080E1D82AEE24DB
:10104000FF248701242F2053283088F0D4FC09C0C6
:101050002A3068F0D6FE05C02F7D822F8151863060
:1010600028F0CA01BE010E94E30912C02750C8013E
:10107000B7014D2D0E9497077B018C0182E0D82A91
:10108000CA9461F0CE010E947509AC0197FFDACFD6
:10109000D1FC04C015C0EE24FF248701D7FE08C090
:1010A00010950095F094E094E11CF11C011D111DB8
:1010B000C501B801A7012D2D0E948B0781E001C059
:1010C00080E0CDB7DEB7EAE00C94920AA0E0B0E091
:1010D000ECE6F8E00C94720A5C016B013A01FC0149
:1010E000178216828824DDC0812F90E00E94B90A01
:1010F000892B21F0C5010E94C507D3C0153249F4E0
:10110000F601F3FC6591F3FE61916F01653269F4BC
:1011100015E2C5010E94750997FDCFC0181709F4A3
:10112000C0C0B5010E94E309CDC06A3219F0162F84
:1011300000E006C0F3FC1591F3FE11916F0101E090
:1011400099240FC00260692D70E080E090E040E2D9
:101150000E949707962EF601F3FC1591F3FE11916C
:101160006F01212F20532A3068F301FD03C0992419
:101170009A9403C0992009F4A5C0183621F01C36B2
:1011800099F4F6010BC0F601F3FC6591F3FE619151
:10119000683619F06F01162F07C008600460F3FC71
:1011A0001591F3FE11916F01112309F48BC085ECA9
:1011B00090E0612F70E00E946A09892B09F482C0D7
:1011C000802F00FF03C0EE24FF2407C0F301E0805E
:1011D000F18022E030E0620E731E1E3651F4F501FC
:1011E0004681578160E070E0C701202F0E948B0785
:1011F00058C0133691F481FD02C099249394C5011F
:101200000E94750997FD59C0E114F10419F0F70126
:1012100081937F019A9499F742C0C5010E94C50746
:1012200097FD4BC01F3659F1103728F4143629F1B9
:10123000193639F527C0133719F0153711F51DC0C8
:10124000C5010E947509EC0197FD11C00E94B90A01
:10125000892B29F0CE01B5010E94E30908C0E114F1
:10126000F10419F0F701C1937F019A9449F7E11451
:10127000F104A9F0F701108212C0006203C00061FE
:1012800001C00064C501692DA701202F0E94DE075F
:10129000882329F4F5018381807379F413C000FF5A
:1012A0008394F501F380F601F3FC1591F3FE11919F
:1012B0006F01112309F018CF05C0882019F42FEF12
:1012C0003FEF02C0282D30E0C901CDB7DEB7EEE018
:1012D0000C948E0AFC010590061621F00020D9F727
:1012E000C00108953197CF010895CF93DF93EC01AA
:1012F0004B8140FF1AC046FF0AC04F7B4B838E8153
:101300009F8101969F838E838A81282F2BC042FF65
:1013100013C0E881F9818081282F332727FD30957C
:101320002115310529F440624B832FEF3FEF1BC09D
:101330003196F983E88311C0EA85FB85CE010995D2
:101340009C0197FF0AC09B812F5F3F4F11F080E205
:1013500001C080E1892B8B83E8CF8E819F8101962C
:101360009F838E8330E0C901DF91CF9108950F9361
:101370001F93CF93DF938C01EB018B8181FF1BC007
:1013800082FF0DC02E813F818C819D8128173907F6
:1013900064F4E881F9810193F983E88306C0E88564
:1013A000F985802F0995892B31F48E819F810196D3
:1013B0009F838E8302C00FEF1FEFC801DF91CF9193
:1013C0001F910F9108959C01FB01838180FF11C043
:1013D00086FD0FC09FEF2F3F390759F022838064AD
:1013E0008F7D83838681978101979783868330E001
:1013F00002C02FEF3FEFC9010895FA01AA27283054
:1014000051F1203181F1E8946F936E7F6E5F7F4FD1
:101410008F4F9F4FAF4FB1E03ED0B4E03CD0670F4D
:10142000781F891F9A1FA11D680F791F8A1F911DA0
:10143000A11D6A0F711D811D911DA11D20D009F4F0
:1014400068943F912AE0269F11243019305D319332
:10145000DEF6CF010895462F4770405D4193B3E01B
:101460000FD0C9F7F6CF462F4F70405D4A3318F0C2
:10147000495D31FD4052419302D0A9F7EACFB4E073
:10148000A6959795879577956795BA95C9F700972B
:101490006105710508959B01AC010A2E06945795CC
:1014A000479537952795BA95C9F7620F731F841F23
:1014B000951FA01D089597FB092E07260AD077FDDA
:1014C00004D043D006D000201AF4709561957F4F68
:1014D0000895F6F7909581959F4F08952F923F922A
:1014E0004F925F926F927F928F929F92AF92BF9234
:1014F000CF92DF92EF92FF920F931F93CF93DF93E0
:10150000CDB7DEB7CA1BDB0B0FB6F894DEBF0FBE3C
:10151000CDBF09942A88398848885F846E847D8489
:101520008C849B84AA84B984C884DF80EE80FD808B
:101530000C811B81AA81B981CE0FD11D0FB6F89401
:10154000DEBF0FBECDBFED010895AA1BBB1B51E14D
:1015500007C0AA1FBB1FA617B70710F0A61BB70B23
:10156000881F991F5A95A9F780959095BC01CD01C8
:101570000895911106C0803219F089508550D0F736
:0C1580000895992788270895F894FFCF5C
:00000001FF
