:100000000C944A000C9467000C9467000C94040153
:100010000C9467000C9467000C9467000C946700C4
:100020000C9467000C9467000C94BA000C94670061
:100030000C9467000C9467000C9467000C946700A4
:100040000C9467000C9467000C9467000C94670094
:100050000C94670010080402010018040300000358
:100060000418000102040810020204080808080429
:10007000020245464765666700202B2D2E3031323F
:100080003334353637383968006364696E6F70739E
:100090007578580011241FBECFE5D8E0DEBFCDBF74
:1000A00011E0A0E6B0E0E4E3FCE202C005900D92AE
:1000B000AE36B107D9F711E0AEE6B1E001C01D924E
:1000C000A43BB107E1F70E9486010C9418160C942A
:1000D000000020E030E040EA5FE005C0FA0131971F
:1000E000F1F72F5F3F4F28173907C4F308958FEFBB
:1000F0008ABB17BA84BB81BB1BBA15BA12BAC29AA3
:10010000979841E040938B0132E030938C0124E0DA
:1001100020938D0198E090938E0180E180938F0170
:100120008093A9019093AA012093AB013093AC0175
:100130004093AD012093AF019093B0018093B10142
:1001400080E28093B20180E48093B30112BE89B74C
:10015000826089BF8AE08CBF83B7846083BF83B726
:10016000886083BF8BB780628BBF84B78F7B84BF6F
:10017000789408951F920F920FB60F9211242F9327
:100180008F939F93EF93FF93E091AE01F0E0E155E1
:10019000FE4F808182BB109270011EC08091AE0123
:1001A00090E020917001FC01EE0FFF1FEE0FFF1F8A
:1001B000E80FF91FE20FF11DE057FE4F80818BBB66
:1001C000E0917001F0E0E755FE4F808185BB8091A2
:1001D00070018F5F80937001809170018530F0F223
:1001E0008091AE018F5F8093AE018150843011F415
:1001F0001092AE01FF91EF919F918F912F910F90EF
:100200000FBE0F901F9018951F920F920FB60F926E
:1002100011248F9380918A018F5F80938A0181508E
:10022000843011F410928A018F910F900FBE0F90BD
:100230001F901895823049F1833028F4882351F0BB
:100240008130E9F519C0843091F1843038F185307E
:10025000B1F509C081E090E06AE070E04AE050E06A
:100260000E94550B089581E090E06AE070E04AE05A
:1002700050E00E94C606089581E090E06AE070E0D8
:1002800040E050E00E945509089581E090E06AE066
:1002900070E040E050E00E947F0A089581E090E025
:1002A0006AE070E042E751E00E940107089581E0B2
:1002B00090E06AE070E04AE050E00E94570608953E
:1002C000CF93DF93EC018FE10E94300520E030E016
:1002D00040EA5FE005C0CA010197F1F72F5F3F4F89
:1002E0002C173D07C4F380E00E94300520E030E089
:1002F00040EA5FE005C0CA010197F1F72F5F3F4F69
:100300002C173D07C4F3DF91CF9108951092AE01F1
:100310001092700110928A010E94770084EF91E0A0
:100320000E94600180918A010E941A01FBCFDC01CA
:1003300085309105F8F477FD1DC065307105D4F462
:1003400057FD18C045305105ACF4FA01EE0FFF1F00
:10035000EE0FFF1FE40FF51FE60FF71FE057FE4FEC
:10036000208181E090E002C0880F991FAA95E2F7F2
:10037000282B20830895DC018530910500F577FD59
:100380001EC065307105DCF457FD19C045305105BC
:10039000B4F4FA01EE0FFF1FEE0FFF1FE40FF51F7D
:1003A000E60FF71FE057FE4F208181E090E002C08A
:1003B000880F991FAA95E2F780958223808308957C
:1003C0009C0185309105F0F477FD1CC06530710506
:1003D000CCF457FD17C045305105A4F4FA01EE0FD7
:1003E000FF1FEE0FFF1FE40FF51FE60FF71FE0578B
:1003F000FE4F808190E002C0959587952A95E2F79F
:100400008170089580E00895059778F477FD0DC018
:100410006530710554F457FD08C090E04530510532
:100420000CF091E081E0982701C090E0892F0895B9
:10043000DC012130310509F58530910500F577FDA6
:100440001EC065307105DCF457FD19C045305105FB
:10045000B4F4FA01EE0FFF1FEE0FFF1FE40FF51FBC
:10046000E60FF71FE057FE4F808102C0220F331FB7
:10047000AA95E2F7822B808308950E94BB0108951C
:10048000DC0185309105F8F477FD1DC065307105FC
:10049000D4F457FD18C045305105ACF4FA01EE0F05
:1004A000FF1FEE0FFF1FE40FF51FE60FF71FE057CA
:1004B000FE4F208181E090E002C0880F991FAA952D
:1004C000E2F7282720830895FC01EE0FFF1FEE0FAF
:1004D000FF1FE80FF91FE057FE4F8FE180838183F4
:1004E0008283838384830895FC01EE0FFF1FEE0F48
:1004F000FF1FE80FF91FE057FE4F10821182128292
:1005000013821482089521E030E002C0220F331FCD
:100510008A95E2F760E070E012C0FD01E40FF51F7C
:10052000E057FE4F8081822B80834F5F5F4F4530C5
:10053000510599F76F5F7F4F6530710551F040E0CD
:1005400050E0DB01AA0FBB1FAA0FBB1FA60FB71FEE
:10055000E4CF089521E030E002C0220F331F8A95D6
:10056000E2F7209560E070E012C0FD01E40FF51F96
:10057000E057FE4F8081822380834F5F5F4F45307D
:10058000510599F76F5F7F4F6530710551F040E07D
:1005900050E0DB01AA0FBB1FAA0FBB1FA60FB71F9E
:1005A000E4CF0895FC01E057FE4F8FE180838583FF
:1005B00082878787848B0895FC01E057FE4F108265
:1005C000158212861786148A0895883709F053C059
:1005D0001416150664F081E090E002C0880F991FA0
:1005E0006A95E2F7982F909540E050E03AC081E09C
:1005F00090E002C0880F991F6A95E2F7982F40E0BB
:1006000050E013C0FB01E20FF31FE057FE4F808163
:10061000892B80832F5F3F4F2530310599F74F5F3E
:100620005F4F4530510509F459C020E030E0BA0170
:10063000660F771F660F771F640F751FE3CFFB01EF
:10064000E20FF31FE057FE4F8081892380832F5FE5
:100650003F4F2530310599F74F5F5F4F45305105CA
:10066000E9F120E030E0BA01660F771F660F771FCF
:10067000640F751FE4CF893799F4FB01E057FE4FF3
:10068000141615063CF48FE1808385838287878763
:10069000848B08951082158212861786148A089515
:1006A0008A37E1F4FB01EE0FFF1FEE0FFF1F141658
:1006B00015065CF4E60FF71FE057FE4F8FE18083CD
:1006C00081838283838384830895E60FF71FE05735
:1006D000FE4F108211821282138214820895AF920B
:1006E000BF92CF92DF92EF92FF920F931F93CF931F
:1006F000DF935C016B0179012417350714F47A014B
:10070000A901EA0107C0C501B601AE0198010E9426
:1007100018022196EC16FD06B4F7DF91CF911F91D8
:100720000F91FF90EF90DF90CF90BF90AF90089522
:10073000AF92BF92CF92DF92EF92FF920F931F93EF
:10074000CF93DF935C016B0179012417350714F413
:100750007A01A901EA0107C0CE01B601A5019801FD
:100760000E9418022196EC16FD06B4F7DF91CF9196
:100770001F910F91FF90EF90DF90CF90BF90AF90BF
:100780000895AF92BF92CF92DF92EF92FF920F93B4
:100790001F93CF93DF935C016B0179012417350719
:1007A00014F47A01A901EA0107C0C601BE01A5013E
:1007B00098010E9418022196EC16FD06B4F7DF910D
:1007C000CF911F910F91FF90EF90DF90CF90BF904E
:1007D000AF9008952F923F925F926F927F928F9287
:1007E0009F92AF92BF92CF92DF92EF92FF920F93C0
:1007F0001F93CF93DF93FC01502E841B950B97FF23
:1008000003C0909581959F4FDB01A21BB30BB7FFEF
:1008100003C0B095A195BF4FE417F5073CF46624DB
:100820006A94762C88248A94982C06C001E0602E65
:10083000712C11E0812E912C621773073CF4AA24CD
:10084000AA94BA2CCC24CA94DC2C06C0F1E0AF2EBA
:10085000B12CE1E0CE2ED12C8A179B075CF0EC0185
:10086000D595C7951D01DC017C0166247724CC2435
:10087000DD2409C0ED01D595C7951C017D018824B3
:100880009924AA24BB24B90100E010E08AE7581695
:1008900011F54530510508F072C077FD70C0653024
:1008A00071050CF06CC0FB01E057FE4F248981E01C
:1008B00090E0042E02C0880F991F0A94E2F7282BBB
:1008C000248B2785282B27872285282B2287258183
:1008D000282B25832AC088E7581651F54530510545
:1008E00008F04DC077FD4BC0653071050CF047C076
:1008F000FB01EE0FFF1FEE0FFF1FE60FF71FE05784
:10090000FE4F248181E090E0042E02C0880F991FE1
:100910000A94E2F7282B24832381282B2383228126
:10092000282B22832181282B21832081822B26C002
:1009300089E7581621F577FD22C065307105FCF472
:1009400057FD1DC045305105D4F4FA01EE0FFF1FCD
:10095000EE0FFF1FE40FF51FE60FF71FE057FE4FE6
:1009600080818061808380818860808380818460D1
:100970008083808182608083808181608083C20DDA
:10098000D31DCE15DF0534F0CE19DF09460D571DF6
:100990006A0D7B1D0F5F1F4FA017B1072CF0480D8C
:1009A000591D6C0D7D1D72CFDF91CF911F910F915D
:1009B000FF90EF90DF90CF90BF90AF909F908F907F
:1009C0007F906F905F903F902F90089520E030E0EF
:1009D000F901EE0FFF1FEE0FFF1FE20FF31FDF0104
:1009E000AF58BE4F8C91E057FE4F808311968C918B
:1009F0001197818312968C911297828313968C9112
:100A00001397838314968C9184832F5F3F4F2530F7
:100A10003105F1F6089520E030E0F901EE0FFF1FF7
:100A2000EE0FFF1FE20FF31FDF01A057BE4F8C91A7
:100A3000EF58FE4F808311968C9111978183129607
:100A40008C911297828313968C91139783831496BB
:100A50008C9184832F5F3F4F25303105F1F6089547
:100A600020E030E0F901EE0FFF1FEE0FFF1FE20F55
:100A7000F31FE057FE4F80838183828383838483C7
:100A80002F5F3F4F2530310569F708950895CF92C4
:100A9000DF92EF92FF920F931F93CF93DF936B013F
:100AA0007A01C0E0D0E016C0FD01EE0FFF1FEE0F8F
:100AB000FF1FEA0FFB1FE057FE4F008311832283C5
:100AC000938384831196A530B10571F7C7010E9405
:100AD00069002196CC15DD0534F5CE0166E070E0A5
:100AE0000E94C914FC01EE0FFF1FEE0FFF1FE80F5D
:100AF000F91FCF018B5A9F4F9F012A5A3F4FAF01D9
:100B0000495A5F4FBF01685A7F4FA0E0B0E0EC5AEE
:100B1000FF4F0491FC011491F9012491FA01949181
:100B2000FB018491C1CFDF91CF911F910F91FF9075
:100B3000EF90DF90CF900895CF92DF92EF92FF92E7
:100B40000F931F93CF93DF936B017A0100E010E0C6
:100B500043C0C0E0D0E0CE01800F911F66E070E09E
:100B60000E94C9149C01220F331F220F331F280F2C
:100B7000391FF901EC5AFF4FE491DE01AA0FBB1FA8
:100B8000AA0FBB1FAC0FBD1FA057BE4FEC93F901BE
:100B9000EB5AFF4FE4911196EC931197F901EA5A41
:100BA000FF4FE4911296EC931297F901E95AFF4F27
:100BB000E4911396EC931397285A3F4FF9018491CF
:100BC00014968C932196C530D10509F0C4CFC70186
:100BD0000E9469000F5F1F4F0C151D050CF4B9CF63
:100BE000DF91CF911F910F91FF90EF90DF90CF9009
:100BF0000895EF92FF920F931F93CF93DF93EE240C
:100C0000FF241FC0C701B801AE010E94970184E113
:100C100090E00E94690080E00E9430052196C53076
:100C2000D10581F70F5F1F4F0530110519F0C0E0A6
:100C3000D0E0E8CF0894E11CF11C85E0E816F1044F
:100C400019F000E010E0F3CFDF91CF911F910F91E9
:100C5000FF90EF900895EF92FF920F931F93CF9321
:100C6000DF93EC0100E010E06AE0E62EF12CCE010B
:100C70006AE070E00E94C914EC018FE10E94300527
:100C8000CE010E94690080E00E943005C7018C1BE4
:100C90009D0B0E9469000F5F1F4F0A30110539F745
:100CA000DF91CF911F910F91FF90EF900895809168
:100CB0006E0190916F010E942B06809160009091CF
:100CC0006100019779F480916E0190916F01019616
:100CD00090936F0180936E01099721F41092610047
:100CE000109260008091600090916100892B89F4DE
:100CF00080916E0190916F01019790936F018093A5
:100D00006E01892B31F481E090E090936100809333
:100D100060000895EF92FF920F931F93CF93DF939C
:100D2000EE24FF2422C00E94CA1322E030E040E0FB
:100D300050E00E94DC14672B29F0C701B801AE0116
:100D40000E9497012196C530D10569F70F5F1F4FAB
:100D50000530110519F0C0E0D0E0E5CF0894E11CA2
:100D6000F11C85E0E816F10419F000E010E0F3CF83
:100D700088EE93E00E94690080E00E943005DF91D8
:100D8000CF911F910F91FF90EF900895EF92FF92F6
:100D90000F931F93CF93DF93EE24FF2428C00E946C
:100DA000CA1322E030E040E050E00E94DC14672BE0
:100DB00031F0C701B801AE010E94970105C0C7011B
:100DC000B801AE010E94BB012196C530D10539F7AB
:100DD0000F5F1F4F0530110519F0C0E0D0E0DFCFE5
:100DE0000894E11CF11C85E0E816F10419F000E01C
:100DF00010E0F3CFDF91CF911F910F91FF90EF9013
:100E00000895AF92BF92CF92DF92EF92FF920F932D
:100E10001F93CF93DF935A01EE24FF242DC0E601E8
:100E20006E010894C11CD11CC701B801A6010E9423
:100E3000E001882331F0C701B801AE010E9497019B
:100E400005C0C701B801AE010E94BB0184E0C8160D
:100E5000D10429F70F5F1F4F0530110519F0C0E0CD
:100E6000D0E0DECF0894E11CF11C85E0E816F10427
:100E700019F400E010E023C000E010E0F0CF0E9481
:100E8000CA1328E030E040E050E00E94DC14672BF9
:100E900039F4C801BE0144E050E00E94970106C049
:100EA000C801BE0144E050E00E94BB012196C5305C
:100EB000D10529F70F5F1F4F0530110519F0C0E06C
:100EC000D0E0DDCFC5010E946900DF91CF911F9175
:100ED0000F91FF90EF90DF90CF90BF90AF9008956B
:100EE0002F923F924F925F926F927F928F929F923A
:100EF000AF92BF92CF92DF92EF92FF920F931F9328
:100F0000DF93CF93CDB7DEB72C970FB6F894DEBF43
:100F10000FBECDBF89879A8778876F830F2EF0E049
:100F20008F2EF0E09F2EF4E3AF2EF2E4BF2EF02DD3
:100F300022243324C501B40120E030E040E251E432
:100F40000E94481069837A838B839C8389859A8564
:100F50009C012901EE24FF2465C08B859C850297A6
:100F6000889FB001899F700D989F700D1124029683
:100F70009C878B87660D771D882777FD8095982F36
:100F80000E9424110E94701529813A814B815C8155
:100F90000E94F410882324F0F6018081813039F416
:100FA000C701B8014B855C850E94970106C0C70147
:100FB000B8014B855C850E94BB018B859C850196A1
:100FC0009C878B870894C11CD11C059731F60F5F55
:100FD0001F4F05301105D9F002501040009F30011D
:100FE000019F700C109F700C11240E5F1F4FED813C
:100FF000FE816E0E7F1E6801CC0CDD1CCC0CDD1C4E
:10100000C00ED11EC40CD51C1C861B86A6CF08940E
:10101000E11CF11C89E190E0480E591E95E0E916AB
:10102000F104A1F0EEEFFFEFEE0EFF1EEE9CC0010B
:10103000EF9C900DFE9C900D11249E838D83E2E029
:10104000F0E0EE0EFF1E00E010E0C6CF8F81988525
:101050000E946900C501B40120E030E040E85FE390
:101060000E94EA0F4B015C010894211C311CFEE236
:101070002F16310409F05ECF2C960FB6F894DEBF20
:101080000FBECDBFCF91DF911F910F91FF90EF90D9
:10109000DF90CF90BF90AF909F908F907F906F9098
:1010A0005F904F903F902F9008952F923F924F92D4
:1010B0005F926F927F928F929F92AF92BF92CF92E8
:1010C000DF92EF92FF920F931F93DF93CF93CDB7F1
:1010D000DEB72A970FB6F894DEBF0FBECDBF788774
:1010E0006F830F2EF0E06F2EF0E07F2EF0E88F2E52
:1010F000F0E49F2EF02D0F2EF0E02F2EF0E03F2E8B
:10110000F0E04F2EF0E05F2EF02D1A821982B1C070
:1011100029853A8522503040229FB001239F700DCF
:10112000329F700D11242E5F3F4F3A8729878B81A4
:101130009C81680F791F882777FD8095982F0E94E2
:1011400024117B018C010E947015A20191010E9463
:10115000F41088233CF4C501B60149855A850E94E4
:10116000970106C0C501B60149855A850E94BB0199
:10117000C801B7010E9470157B018C01C201B10149
:1011800023E333E343E35FE30E94EA0F9B01AC01F7
:10119000C801B7010E94F410882334F4C501B601D8
:1011A00049855A850E94BB01E985FA853196FA87FF
:1011B000E987359709F0ACCF0894C11CD11CF5E044
:1011C000CF16D104C1F02EEF3FEFC20ED31ECC9C40
:1011D000C001CD9C900DDC9C900D1124E2E0F0E06C
:1011E000CE0EDF1E2D813E81820F931F9C838B8349
:1011F0001A8619868DCF0894A11CB11C35E0A31660
:10120000B104A1F08EEF9FEFA80EB91EAA9CF001C9
:10121000AB9CF00DBA9CF00D1124FE83ED8322E00F
:1012200030E0A20EB31ECC24DD24CDCF8F81988573
:101230000E946900C401B30120E030E040E85FE3B0
:101240000E941B107B018C0189819A8101969A83EF
:101250008983809789F0C401B30120E030E040E247
:1012600051E40E9448101B012C01C701D8013C0128
:101270004D01AA24BB24C6CF2A960FB6F894DEBF30
:101280000FBECDBFCF91DF911F910F91FF90EF90D7
:10129000DF90CF90BF90AF909F908F907F906F9096
:1012A0005F904F903F902F900895DF93CF93CDB7ED
:1012B000DEB7CD57D0400FB6F894DEBF0FBECDBF1E
:1012C00020E030E0A9E1B0E0BE016F5F7F4F0FC0CA
:1012D0001082118212821382148201963596853013
:1012E0009105B1F72F5F3F4F2530310561F02A9FFF
:1012F000F0012B9FF00D3A9FF00D1124E60FF71F20
:1013000080E090E0E5CFCE010196BA010E94550839
:10131000C358DF4F0FB6F894DEBF0FBECDBFCF91DD
:10132000DF9108952F923F924F925F926F927F923A
:101330008F929F92AF92BF92CF92DF92EF92FF92E5
:101340000F931F93DF93CF93CDB7DEB72C970FB6D4
:10135000F894DEBF0FBECDBF89879A8778876F83E9
:101360000F2EF0E08F2EF0E09F2EF0E0AF2EF0E099
:10137000BF2EF02D89829A82AB82BC822224332434
:101380009EC002501040009FB001019F700D109F41
:10139000700D11240E5F1F4F660D771D882777FD96
:1013A0008095982F0E9424110E94701529813A81FE
:1013B0004B815C810E94F410882324F0D6018C912B
:1013C000813039F4C7016B857C85A8010E949701A3
:1013D00006C0C7016B857C85A8010E94BB010F5F19
:1013E0001F4F0894C11CD11C0530110551F6EB8527
:1013F000FC853196FC87EB873597E9F08B859C85DA
:101400000297889F3001899F700C989F700C11245F
:1014100002969C878B87AD81BE816A0E7B1E6C0114
:10142000CC0CDD1CCC0CDD1CC80ED91EC40CD51C8C
:1014300000E010E0A6CF0894E11CF11CE9E1F0E027
:101440004E0E5F1EF5E0EF16F104A1F08EEF9FEF58
:10145000E80EF91EEE9CD001EF9CB00DFE9CB00D85
:101460001124BE83AD83E2E0F0E0EE0EFF1E1C8689
:101470001B86C4CF8F8198850E946900C501B40185
:1014800020E030E040E85FE30E941B107B018C010C
:101490000894211C311CFDE22F163104B9F0C5015E
:1014A000B40120E030E040E251E40E94481069833A
:1014B0007A838B839C83C701D8014C015D018985A8
:1014C0009A859C012901EE24FF24C0CF2C960FB6EB
:1014D000F894DEBF0FBECDBFCF91DF911F910F916A
:1014E000FF90EF90DF90CF90BF90AF909F908F9044
:1014F0007F906F905F904F903F902F9008952F9224
:101500003F924F925F926F927F928F929F92AF9293
:10151000BF92CF92DF92EF92FF920F931F93DF93D0
:10152000CF93CDB7DEB7CD57D0400FB6F894DEBF1E
:101530000FBECDBF4A0120E030E069E170E0AE01AE
:101540004F5F5F4F0FC0108211821282138214828C
:101550000196359685309105B1F72F5F3F4F2530C5
:10156000310561F0269FF001279FF00D369FF00DA9
:101570001124E40FF51F80E090E0E5CF8E010F5FAE
:101580001F4FC801B4010E949209AA24BB24A9E1FB
:101590002A2E312C280135C00E94CA1323E030E0E6
:1015A00040E050E00E94DC14672B21F481E0F80158
:1015B000808302C0F80110820894E11CF11C0F5FC7
:1015C0001F4FF5E0EF16F10439F70894C11CD11C48
:1015D00085E0C816D10471F08601000F111F000FBD
:1015E000111F0C0D1D1D060D171D040D151DEE24DC
:1015F000FF24D2CF0894A11CB11CE5E0AE16B104C3
:1016000051F0CC24DD24A29C3001A39C700CB29C30
:10161000700C1124E1CF8E010F5F1F4FC801B40180
:101620000E947007C801B4010E94920920E030E0D6
:1016300049E150E00FC0108211821282138214829D
:101640000196359685309105B1F72F5F3F4F2530D4
:10165000310561F0249FF001259FF00D349FF00DBE
:101660001124E00FF11F80E090E0E5CFCE0101965C
:10167000B4010E947007C358DF4F0FB6F894DEBF65
:101680000FBECDBFCF91DF911F910F91FF90EF90D3
:10169000DF90CF90BF90AF909F908F907F906F9092
:1016A0005F904F903F902F900895CF93DF93C0E0CD
:1016B000D0E081E090E06AE070E040E050E00E941D
:1016C00055092196C430D105A1F7C0E0D0E081E0F2
:1016D00090E06AE070E040E050E00E947F0A2196CE
:1016E000C430D105A1F7C0E0D0E081E090E06AE02D
:1016F00070E041E851E00E9401072196C031D10518
:10170000A1F7C0E0D0E081E090E06AE070E04AE05C
:1017100050E00E9457062196C034D105A1F7C0E0E1
:10172000D0E081E090E06AE070E04AE050E00E94A2
:10173000C6062196C038D105A1F7DF91CF91089553
:10174000ABE0B0E0E6EAFBE00C94FB145C014B017B
:101750007A01FC0117821682838181FD08C06FEF38
:101760007FEF08C142E050E0E40EF51E04C03E01E8
:101770000894611C711CF501D380F401D3FC8591A0
:10178000D3FE81914F01882309F4F1C0853259F4C9
:10179000D3FC6591D3FE61914F01653219F0062F9C
:1017A00010E01BC085E290E02BC0002309F4DFC0ED
:1017B00089E790E0602F70E00E94D813892B39F4FC
:1017C000033211F4106103C00C3661F41068F401A7
:1017D000D3FC0591D3FE01914F0117FFE6CF002303
:1017E00009F4C5C082E790E0602F70E00E94D81332
:1017F000892B51F044E050E0E40EF51E8FE390E0B9
:10180000B5010E942514B7CF033629F0033779F0CC
:101810000335F1F40BC087010E5F1F4FF701808184
:101820009181B5010E9425147801A5CF1160F701BF
:10183000C080D18004C090E0B5010E942514F6015B
:1018400010FD859110FF81916F018823A1F78ACF48
:10185000043611F0093639F517FF08C0F701208169
:1018600031814281538184E090E00AC0F701808198
:1018700091819C01442737FD4095542F82E090E0F0
:10188000E80EF91E1F7E57FF08C050954095309511
:1018900021953F4F4F4F5F4F1064CA01B901A3011B
:1018A0002AE030E034C00037A9F0013730F40835C1
:1018B000B1F00F3609F05BC006C0053739F00837C4
:1018C00009F055C008C028E030E00CC01F7E2AE0B7
:1018D00030E008C01061146220E130E003C0146001
:1018E00020E132E017FF08C0F70160817181828139
:1018F000938144E050E008C0F70180819181BC01F0
:1019000080E090E042E050E0E40EF51EA3010E946A
:101910006B14D82ED618012F10E006FF05C08DE2FB
:1019200090E0B5010E94251404FF15C0FE01ED0DE5
:10193000F11D8081803379F080E390E0B5010E9451
:10194000251402FF08C000721070C801885A9F4F0A
:10195000B5010E942514DA94F301ED0DF11D80818B
:1019600090E0B5010E942514DD20A9F704CFF50110
:1019700066817781CB012B96EEE00C941715FC0164
:1019800020FD08C023FD05C022FF02C073836283CF
:10199000518340830895EF92FF920F931F9344FF6A
:1019A00002C033E011C046FF02C034E00DC0DB01CD
:1019B000FC01AA0FBB1FEE1FFF1F1094D1F76A0F87
:1019C0007B1F8E1F9F1F31E0660F771F881F991F97
:1019D0003150D1F77B018C01E20EF11C011D111D6C
:1019E000A8019701B701CA011F910F91FF90EF90D5
:1019F00008950F931F93CF93DF938C01C8010E942A
:101A0000E313EC0197FD08C00E946415892BB1F720
:101A1000CE01B8010E945114CE01DF91CF911F91E8
:101A20000F910895A0E0B0E0E8E1FDE00C94FF1410
:101A3000EC01C62E5A01122F0E94E313AC018B3227
:101A400019F08D3251F41068CA9409F46DC0CE01BA
:101A50000E94E313AC0197FD67C06DEFD62ED12233
:101A60008D2D807301F54033F1F4CA9409F447C019
:101A7000CE010E94E313AC0197FD41C082E0D82A59
:101A8000483711F0483559F480E4D82ACA94B9F19E
:101A9000CE010E94E313AC0199232CF430C0D6FC94
:101AA00002C080E1D82AEE24FF248701242F20538E
:101AB000283088F0D4FC09C02A3068F0D6FE05C072
:101AC0002F7D822F8151863028F0CA01BE010E94ED
:101AD000511412C02750C801B7014D2D0E94CB0CE4
:101AE0007B018C0182E0D82ACA9461F0CE010E9469
:101AF000E313AC0197FFDACFD1FC04C015C0EE248C
:101B0000FF248701D7FE08C010950095F094E0945B
:101B1000E11CF11C011D111DC501B801A7012D2DEE
:101B20000E94BF0C81E001C080E0CDB7DEB7EAE0E3
:101B30000C941B15A0E0B0E0E0EAFDE00C94FB146F
:101B40005C016B013A01FC01178216828824DDC01A
:101B5000812F90E00E946415892B21F0C5010E941D
:101B6000F90CD3C0153249F4F601F3FC6591F3FE8C
:101B700061916F01653269F415E2C5010E94E313BA
:101B800097FDCFC0181709F4C0C0B5010E945114C9
:101B9000CDC06A3219F0162F00E006C0F3FC159193
:101BA000F3FE11916F0101E099240FC00260692DCD
:101BB00070E080E090E040E20E94CB0C962EF601AF
:101BC000F3FC1591F3FE11916F01212F20532A3060
:101BD00068F301FD03C099249A9403C0992009F485
:101BE000A5C0183621F01C3699F4F6010BC0F60199
:101BF000F3FC6591F3FE6191683619F06F01162FC1
:101C000007C008600460F3FC1591F3FE11916F01A9
:101C1000112309F48BC089E890E0612F70E00E94E5
:101C2000D813892B09F482C0802F00FF03C0EE2453
:101C3000FF2407C0F301E080F18022E030E0620E73
:101C4000731E1E3651F4F5014681578160E070E045
:101C5000C701202F0E94BF0C58C0133691F481FD9C
:101C600002C099249394C5010E94E31397FD59C0C3
:101C7000E114F10419F0F70181937F019A9499F727
:101C800042C0C5010E94F90C97FD4BC01F3659F1A7
:101C9000103728F4143629F1193639F527C01337CF
:101CA00019F0153711F51DC0C5010E94E313EC01B1
:101CB00097FD11C00E946415892B29F0CE01B50152
:101CC0000E94511408C0E114F10419F0F701C19306
:101CD0007F019A9449F7E114F104A9F0F701108209
:101CE00012C0006203C0006101C00064C501692D1B
:101CF000A701202F0E94120D882329F4F50183816A
:101D0000807379F413C000FF8394F501F380F6012A
:101D1000F3FC1591F3FE11916F01112309F018CF17
:101D200005C0882019F42FEF3FEF02C0282D30E0C6
:101D3000C901CDB7DEB7EEE00C941715A0E0B0E016
:101D4000E4EAFEE00C94F714DC012B01FA019C910B
:101D5000923008F439C1EB018881823008F433C134
:101D6000943069F4843009F02FC111969C91119739
:101D70008981981709F428C1A2E6B0E025C1843012
:101D800009F421C18230A9F4923009F01DC19A01F1
:101D9000AD0188E0EA010990AE01E90109929E01D6
:101DA0008150C1F7E201898111969C918923818339
:101DB00008C1923009F407C112962D903C901397F8
:101DC000EB018A819B811496AD90BD90CD90DC9003
:101DD0001797EC80FD800E811F819101281B390B24
:101DE000B90137FF04C066277727621B730B603287
:101DF00071050CF061C0121613066CF5370148012D
:101E0000062E04C096948794779467940A94D2F728
:101E100021E030E040E050E004C0220F331F441FB7
:101E2000551F6A95D2F721503040404050402E2136
:101E30003F2140235123211531054105510521F052
:101E400021E030E040E050E079018A01E628F728FF
:101E5000082919293CC0232BD1F1260E371E350144
:101E60004601062E04C096948794779467940A944A
:101E7000D2F721E030E040E050E004C0220F331FF1
:101E8000441F551F6A95D2F72150304040405040C2
:101E90002A213B214C215D212115310541055105A8
:101EA00021F021E030E040E050E059016A01A6282D
:101EB000B728C828D9280BC0821593052CF01C011F
:101EC000AA24BB24650103C0EE24FF2487011196D8
:101ED0009C91D20111968C91981709F445C09923D1
:101EE00039F0A80197012A193B094C095D0906C080
:101EF000A60195012E193F09400B510B57FD08C053
:101F000011823382228224833583468357831DC006
:101F100081E081833382228288279927DC01821B1A
:101F2000930BA40BB50B84839583A683B7830DC055
:101F3000220F331F441F551F248335834683578345
:101F400082819381019793838283248135814681A5
:101F50005781DA01C9010197A109B1098F5F9F4F2C
:101F6000AF4FBF4328F30BC0918333822282EA0C28
:101F7000FB1C0C1D1D1DE482F5820683178383E084
:101F80008083248135814681578157FF1AC0C9015A
:101F9000AA2797FDA095BA2F81709070A070B0709D
:101FA0005695479537952795822B932BA42BB52BC8
:101FB00084839583A683B7838281938101969383DB
:101FC0008283DF0101C0D201CD01CDB7DEB7E2E1EE
:101FD0000C941315A0E2B0E0E0EFFFE00C940315C1
:101FE00069837A838B839C832D833E834F835887B9
:101FF000E9E0EE2EF12CEC0EFD1ECE010196B701AC
:102000000E94A6128E010F5E1F4FCE010596B801E9
:102010000E94A6128A8991E089278A8BC701B8019C
:10202000AE01475E5F4F0E949E0E0E94D111A096A6
:10203000E6E00C941F15A0E2B0E0E1E2F0E10C94C0
:10204000031569837A838B839C832D833E834F831F
:102050005887F9E0EF2EF12CEC0EFD1ECE01019613
:10206000B7010E94A6128E010F5E1F4FCE0105968A
:10207000B8010E94A612C701B801AE01475E5F4FCA
:102080000E949E0E0E94D111A096E6E00C941F15AE
:10209000A8E1B0E0EEE4F0E10C94FF1469837A83E8
:1020A0008B839C832D833E834F835887B9E0EB2E2F
:1020B000F12CEC0EFD1ECE010196B7010E94A61276
:1020C0008E010F5E1F4FCE010596B8010E94A61229
:1020D0002985223008F47EC03989323010F4B801E5
:1020E0007CC08A859A8989278A87243011F022301A
:1020F00031F4231709F06EC062E670E06EC0343030
:1021000039F41D861E861F86188A1C861B8604C00D
:10211000323021F484E08987B7015FC02B853C858C
:102120008B899C89281B390B3C872B87ED84FE8487
:102130000F851889AD88BE88CF88D88CEA14FB0437
:102140000C051D0540F4EE0CFF1C001F111F215053
:1021500030403C872B8720E030E040E050E080E0DA
:1021600090E0A0E0B0E460E070E0EA14FB040C054D
:102170001D0540F0282B392B4A2B5B2BEA18FB0856
:102180000C091D09B695A79597958795EE0CFF1C30
:10219000001F111F6F5F7F4F6F31710531F7DA013B
:1021A000C9018F779070A070B07080349105A1053F
:1021B000B10561F427FD0AC0E114F1040105110520
:1021C00029F0205C3F4F4F4F5F4F20782D873E878F
:1021D0004F87588BBE01675F7F4FCB010E94D111A3
:1021E0006896EAE00C941B15A8E1B0E0EAEFF0E194
:1021F0000C94031569837A838B839C832D833E83A0
:102200004F83588789E0E82EF12CEC0EFD1ECE019D
:102210000196B7010E94A6128E010F5E1F4FCE01DC
:102220000596B8010E94A6128985823040F08989FE
:10223000823028F0C701B8010E941E1301C081E05E
:102240006896E6E00C941F15A8E0B0E0EAE2F1E140
:102250000C9400159B01AC0183E08983DA01C9016C
:102260008827B7FD83959927AA27BB27B82E211564
:1022700031054105510519F482E089833AC088236C
:10228000A9F0203080E0380780E0480780E8580750
:1022900029F460E070E080E09FEC30C0EE24FF2481
:1022A0008701E21AF30A040B150B02C079018A01B7
:1022B0008EE1C82ED12CDC82CB82ED82FE820F8390
:1022C0001887C801B7010E948211019718161906D4
:1022D00084F4082E04C0EE0CFF1C001F111F0A948A
:1022E000D2F7ED82FE820F831887C81AD90ADC82E2
:1022F000CB82BA82CE0101960E94D1112896E9E0E4
:102300000C941C15EF92FF920F931F937B018C018D
:1023100080E0E81680E0F80681E0080780E0180712
:1023200088F48FEFE816F1040105110531F028F06B
:1023300088E090E0A0E0B0E017C080E090E0A0E08E
:10234000B0E012C080E0E81680E0F80680E0080700
:1023500081E0180728F088E190E0A0E0B0E004C038
:1023600080E190E0A0E0B0E020E230E040E050E02A
:10237000281B390B4A0B5B0B04C016950795F79485
:10238000E7948A95D2F7F701E659FF4F8081281B21
:10239000310941095109C9011F910F91FF90EF9037
:1023A0000895DF92EF92FF920F931F93FC01E48058
:1023B000F58006811781D1808081823048F480E0E9
:1023C00090E0A0E1B0E0E82AF92A0A2B1B2BA5C077
:1023D000843009F49FC0823021F4EE24FF24870169
:1023E00005C0E114F1040105110519F4E0E0F0E085
:1023F00096C0628173819FEF623879070CF05BC0F1
:1024000022E83FEF261B370B2A3131052CF020E064
:1024100030E040E050E02AC0B801A701022E04C01D
:1024200076956795579547950A94D2F781E090E0A5
:10243000A0E0B0E004C0880F991FAA1FBB1F2A9517
:10244000D2F70197A109B1098E219F21A023B123C1
:102450000097A105B10521F081E090E0A0E0B0E097
:102460009A01AB01282B392B4A2B5B2BDA01C901CE
:102470008F779070A070B07080349105A105B10580
:1024800039F427FF09C0205C3F4F4F4F5F4F04C016
:10249000215C3F4F4F4F5F4FE0E0F0E02030A0E085
:1024A0003A07A0E04A07A0E45A0710F0E1E0F0E0A4
:1024B00079018A0127C06038710564F5FB01E15894
:1024C000FF4FD801C7018F779070A070B070803433
:1024D0009105A105B10539F4E7FE0DC080E490E057
:1024E000A0E0B0E004C08FE390E0A0E0B0E0E80E30
:1024F000F91E0A1F1B1F17FF05C016950795F794B5
:10250000E794319687E016950795F794E7948A95B6
:10251000D1F705C0EE24FF248701EFEFF0E06E2F26
:10252000679566276795902F9F77D794DD24D7947A
:102530008E2F8695492F462B582F5D29B701CA014A
:102540001F910F91FF90EF90DF900895FC01DB0148
:10255000408151812281622F6F7770E0221F2227F4
:10256000221F9381892F880F822B282F30E0991FFB
:102570009927991F11969C93119721153105A9F55B
:10258000411551056105710511F482E037C082E8FB
:102590009FEF13969C938E9312979A01AB0167E07D
:1025A000220F331F441F551F6A95D1F783E08C9388
:1025B0000DC0220F331F441F551F12968D919C9101
:1025C0001397019713969C938E931297203080E077
:1025D000380780E0480780E4580758F314962D9395
:1025E0003D934D935C93179708952F3F310579F4F0
:1025F000411551056105710519F484E08C93089526
:1026000064FF03C081E08C9312C01C9210C02F574E
:10261000304013963C932E93129783E08C9387E07F
:10262000440F551F661F771F8A95D1F77064149663
:102630004D935D936D937C93179708951F93DC01E1
:10264000FB019C91923008F447C08081823008F4ED
:1026500043C0943051F411961C91843099F58181D6
:10266000682F70E0611B71093FC0843021F0923007
:1026700031F48230B9F18181882389F12DC011961E
:102680001C9111978230F1F081811817D9F41296BC
:102690002D913C911397828193818217930794F037
:1026A00028173907BCF014968D919D910D90BC911F
:1026B000A02D2481358146815781281739074A0783
:1026C0005B0718F4112341F00AC082179307A4078F
:1026D000B50740F4112319F061E070E005C06FEF19
:1026E0007FEF02C060E070E0CB011F910895A0E091
:1026F000B0E0EDE7F3E10C94FF14EC01A880B980A1
:10270000CA80DB80A114B104C104D10441F484E285
:10271000A82E89EDB82E8BE5C82E87E0D82EC601ED
:10272000B5012DE133EF41E050E00E94DC1427EACF
:1027300031E440E050E00E94F9157B018C01C601B4
:10274000B5012DE133EF41E050E00E94DC14CA01F5
:10275000B9012CEE34EF4FEF5FEF0E94F9156E0DCB
:102760007F1D801F911F97FF04C061507040804003
:102770009048688379838A839B839B01AC015F7750
:10278000B901CA01CDB7DEB7EAE00C941B150E946F
:10279000771308958AE691E00E9477130895609375
:1027A0006A0170936B0180936C0190936D010895A1
:1027B000FC010590061621F00020D9F7C00108950C
:1027C0003197CF010895CF93DF93EC014B8140FF08
:1027D0001AC046FF0AC04F7B4B838E819F810196B2
:1027E0009F838E838A81282F2BC042FF13C0E881EC
:1027F000F9818081282F332727FD30952115310558
:1028000029F440624B832FEF3FEF1BC03196F983D1
:10281000E88311C0EA85FB85CE0109959C0197FFED
:102820000AC09B812F5F3F4F11F080E201C080E121
:10283000892B8B83E8CF8E819F8101969F838E8326
:1028400030E0C901DF91CF9108950F931F93CF938B
:10285000DF938C01EB018B8181FF1BC082FF0DC0D8
:102860002E813F818C819D812817390764F4E8818E
:10287000F9810193F983E88306C0E885F985802F03
:102880000995892B31F48E819F8101969F838E83D8
:1028900002C00FEF1FEFC801DF91CF911F910F9181
:1028A00008959C01FB01838180FF11C086FD0FC04C
:1028B0009FEF2F3F390759F0228380648F7D8383F8
:1028C0008681978101979783868330E002C02FEF3E
:1028D0003FEFC9010895FA01AA27283051F12031AC
:1028E00081F1E8946F936E7F6E5F7F4F8F4F9F4FA4
:1028F000AF4FB1E03ED0B4E03CD0670F781F891FE6
:102900009A1FA11D680F791F8A1F911DA11D6A0FB3
:10291000711D811D911DA11D20D009F468943F9166
:102920002AE0269F11243019305D3193DEF6CF0165
:102930000895462F4770405D4193B3E00FD0C9F72B
:10294000F6CF462F4F70405D4A3318F0495D31FD98
:102950004052419302D0A9F7EACFB4E0A6959795EB
:10296000879577956795BA95C9F7009761057105C1
:1029700008959B01AC010A2E06945795479537950B
:102980002795BA95C9F7620F731F841F951FA01D65
:10299000089597FB092E07260AD077FD04D05ED054
:1029A00006D000201AF4709561957F4F0895F6F7D0
:1029B000909581959F4F089597FB092E05260ED07F
:1029C00057FD04D05FD00AD0001C38F450954095D4
:1029D000309521953F4F4F4F5F4F0895F6F79095F3
:1029E0008095709561957F4F8F4F9F4F08952F92DF
:1029F0003F924F925F926F927F928F929F92AF928F
:102A0000BF92CF92DF92EF92FF920F931F93CF93DB
:102A1000DF93CDB7DEB7CA1BDB0B0FB6F894DEBF72
:102A20000FBECDBF09942A88398848885F846E8498
:102A30007D848C849B84AA84B984C884DF80EE80E2
:102A4000FD800C811B81AA81B981CE0FD11D0FB6EB
:102A5000F894DEBF0FBECDBFED010895AA1BBB1BCE
:102A600051E107C0AA1FBB1FA617B70710F0A61B8E
:102A7000B70B881F991F5A95A9F780959095BC01AF
:102A8000CD010895A1E21A2EAA1BBB1BFD010DC0AA
:102A9000AA1FBB1FEE1FFF1FA217B307E407F5070E
:102AA00020F0A21BB30BE40BF50B661F771F881FEA
:102AB000991F1A9469F760957095809590959B0180
:102AC000AC01BD01CF010895911154C0803219F0BD
:102AD00089508550D0F7089511F40EF45EC04DC0B2
:102AE0006ED0D0F39923D9F3CEF39F57550B87FFC0
:102AF00057D056959795B0E020F4660F771F881F42
:102B0000BB1F1F930F9300249001A0018001F001CF
:102B1000A0E80E0F1F1F0A1E511D601B710B8009BC
:102B2000B50B48F4600F711F801DB51F0E1B1F0BE6
:102B30000A0A510907C02E0F3F1F4A1F0E0F1F1F01
:102B40000A1E511D660F771F881FBB1FA695F7959C
:102B5000E795F8F60617170708065B07211D311DD4
:102B6000411D0F911F91B901842F9158880F96959F
:102B7000879508959927882708959F3F49F0915098
:102B800028F4869577956795B7959F5F80389F4F16
:102B9000880F9695879597F908959FEF80EC089593
:102BA00091505040660F771F881FD2F7089557FD48
:102BB0009058440F551F59F05F3F71F04795880FAB
:102BC00097FB991F61F09F3F79F087950895121642
:102BD00013061406551FF2CF4695F1DF08C01616EE
:102BE00017061806991FF1CF86957105610508949F
:102BF0000895629FD001739FF001829FE00DF11D47
:102C0000649FE00DF11D929FF00D839FF00D749F66
:102C1000F00D659FF00D9927729FB00DE11DF91F12
:102C2000639FB00DE11DF91FBD01CF01112408956F
:042C3000F894FFCF46
:102C34000100000000000000000000010202030384
:102C4400030304040404040404040505050505053C
:102C5400050505050505050505050606060606061A
:102C64000606060606060606060606060606060600
:102C740006060606060606060606070707070707EA
:102C840007070707070707070707070707070707D0
:102C940007070707070707070707070707070707C0
:102CA40007070707070707070707070707070707B0
:102CB400070707070707070707070808080808089A
:102CC4000808080808080808080808080808080880
:102CD4000808080808080808080808080808080870
:102CE4000808080808080808080808080808080860
:102CF4000808080808080808080808080808080850
:102D0400080808080808080808080808080808083F
:102D1400080808080808080808080808080808082F
:102D2400080808080808080808080808080808081F
:0E2D3400080808080808080808080100000040
:00000001FF
