:100000000C944A000C9467000C9467000C94450112
:100010000C9467000C9467000C9467000C946700C4
:100020000C9467000C9467000C94FB000C94670020
:100030000C9467000C9467000C9467000C946700A4
:100040000C9467000C9467000C9467000C94670094
:100050000C94670010080402010018040300000358
:100060000418000102040810020204080808080429
:10007000020245464765666700202B2D2E3031323F
:100080003334353637383968006364696E6F70739E
:100090007578580011241FBECFE5D8E0DEBFCDBF74
:1000A00010E0A4E6B0E001C01D92A83AB107E1F764
:1000B00010E0A0E6B0E0E8E2FFE102C005900D929A
:1000C000A436B107D9F70E94BB000C94920F0C9490
:1000D000000020E030E008C0EFE9FFE03197F1F7E1
:1000E00000C000002F5F3F4F28173907ACF3089579
:1000F0008FEF8ABB17BA84BB81BB1BBA15BA12BA81
:10010000C29A979831E030937F0042E0409380009C
:1001100024E02093810098E09093820080E1809316
:10012000830080939D0090939E0020939F004093B6
:10013000A0003093A1002093A3009093A40080938B
:10014000A50080E28093A60080E48093A70012BE01
:1001500089B7826089BF8AE08CBF83B7846083BF20
:1001600083B7886083BF8BB780628BBF84B78F7B78
:1001700084BF789408950F931F931092A200109259
:10018000640010927E000E94780082E090E062E0BD
:1001900070E040E050E024E030E001E010E00E9438
:1001A0008A0384E090E062E070E040E050E024E008
:1001B00030E00E948A0380E090E062E070E040E07E
:1001C00050E024E030E00E948A0382E090E064E0A6
:1001D00070E040E050E024E030E00E948A038AE0D2
:1001E00090E00E94690080E00E9469058AE090E04A
:1001F0000E946900CACF1F920F920FB60F9211246E
:100200002F938F939F93EF93FF93E091A200F0E0E1
:10021000ED55FF4F808182BB109264001EC080911B
:10022000A20090E020916400FC01EE0FFF1FEE0F92
:10023000FF1FE80FF91FE20FF11DEC57FF4F808100
:100240008BBBE0916400F0E0E356FF4F808185BBFB
:10025000809164008F5F809364008091640085309A
:10026000F0F28091A200982F9F5F9093A2008430BB
:1002700011F41092A200FF91EF919F918F912F9115
:100280000F900FBE0F901F9018951F920F920FB6F0
:100290000F9211248F939F9380917E00982F9F5FE0
:1002A00090937E008A3011F410927E009F918F917E
:1002B0000F900FBE0F901F901895CF93DF93EC0116
:1002C0008FE10E946905CE010E946900DF91CF9104
:1002D0000895CF93DF93853009F456C0863070F4CB
:1002E000823041F1833020F4813009F0B6C019C06A
:1002F0008330C1F1843009F0B0C03DC0883009F4CA
:100300005AC0893038F4863009F449C0873009F082
:10031000A4C04EC0893009F461C08A3009F09DC084
:100320009AC0CEE1D0E088E290E00E9408092197CF
:10033000D1F793C080E00E94690584E690E061E017
:1003400070E042E350E021E030E00E94450884E69E
:1003500090E061E070E042E350E020E030E00E9495
:1003600045087BC086E990E062E370E044E150E03C
:100370000E94590772C084E690E06BE470E044E6A6
:1003800050E00E947F0569C084E190E069E170E07F
:1003900044EF51E029E130E00E9438065EC081E080
:1003A00090E062E370E042E350E00E94DF0555C058
:1003B0000E942A0852C084E690E061E070E00E944A
:1003C000A00880ED97E00E94690084E690E060E07C
:1003D00070E00E94A00888EE93E03AC08AE761E0EE
:1003E00048EC50E00E944E0984EF91E00E946900C1
:1003F00089E761E048EC50E00E944E0984EF91E00B
:100400000E94690088E761E048EC50E00E944E09D4
:1004100084EF91E00E9469008AE760E048EC50E0D8
:100420000E944E0984EF91E00E94690089E760E034
:1004300048EC50E00E944E0984EF91E00E94690070
:1004400088E760E048EC50E00E944E0984EF91E0BC
:100450000E94690002C00E94D609DF91CF910895E1
:100460008530910558F477FD09C06530710534F485
:1004700057FD06C081E0453051051CF080E008952D
:1004800080E00895FF920F931F93CF93DF93F82E90
:100490008B01EA010E9430028823A1F0FE01EE0FD9
:1004A000FF1FEE0FFF1FEC0FFD1FE00FF11FEC57BA
:1004B000FF4F808190E002C095958795FA94E2F70E
:1004C000817001C080E0DF91CF911F910F91FF906B
:1004D0000895FF920F931F93CF93DF93F82E8B0114
:1004E000EA010E9430028823B1F0FE01EE0FFF1FE7
:1004F000EE0FFF1FEC0FFD1FE00FF11FEC57FF4F3A
:10050000208181E090E002C0880F991FFA94E2F701
:10051000809582238083DF91CF911F910F91FF906F
:100520000895FF920F931F93CF93DF93F82E8B01C3
:10053000EA010E9430028823A9F0FE01EE0FFF1F9E
:10054000EE0FFF1FEC0FFD1FE00FF11FEC57FF4FE9
:10055000208181E090E002C0880F991FFA94E2F7B1
:10056000282B2083DF91CF911F910F91FF90089549
:100570002130310519F40E94910208950E94690208
:100580000895FF920F931F93CF93DF93F82E8B0163
:10059000EA010E9430028823A9F0FE01EE0FFF1F3E
:1005A000EE0FFF1FEC0FFD1FE00FF11FEC57FF4F89
:1005B000208181E090E002C0880F991FFA94E2F751
:1005C00028272083DF91CF911F910F91FF900895ED
:1005D000FC01EE0FFF1FEE0FFF1FE80FF91FEC5796
:1005E000FF4F8FE180838183828383838483089597
:1005F000FC01EE0FFF1FEE0FFF1FE80FF91FEC5776
:10060000FF4F10821182128213821482089521E01A
:1006100030E002C0220F331F8A95E2F780E090E0BD
:1006200011C0FB01E40FF51FEC57FF4F3081322B57
:1006300030834F5F5F4F4530510599F70196853004
:10064000910551F040E050E0BC01660F771F660F46
:10065000771F680F791FE5CF089521E030E002C0D1
:10066000220F331F8A95E2F7209580E090E011C0B9
:10067000FB01E40FF51FEC57FF4F3081322330832D
:100680004F5F5F4F4530510599F7019685309105D1
:1006900051F040E050E0BC01660F771F660F771FF6
:1006A000680F791FE5CF0895FC01EC57FF4F8FE1EC
:1006B0008083858382878787848B0895FC01EC572C
:1006C000FF4F1082158212861786148A0895282FEC
:1006D000CB01283749F4141615061CF40E940703B1
:1006E00008950E942D030895293749F4141615061C
:1006F0001CF40E94540308950E945E0308952A3753
:1007000041F4141615061CF40E94E80208950E9494
:10071000F8020895AF92BF92CF92DF92EF92FF92CC
:100720000F931F93CF93DF935C016B017901241723
:10073000350734F4342F252FA701C901E92EF82EEF
:10074000EA0107C0C501B601AE0198010E94B802D6
:100750002196EC16FD06B4F7DF91CF911F910F9112
:10076000FF90EF90DF90CF90BF90AF900895AF9241
:10077000BF92CF92DF92EF92FF920F931F93CF938E
:10078000DF935C016B0179012417350734F4342FB2
:10079000252FA701C901E92EF82EEA0107C0CE01D5
:1007A000B601A50198010E94B8022196EC16FD063B
:1007B000B4F7DF91CF911F910F91FF90EF90DF90F1
:1007C000CF90BF90AF900895AF92BF92CF92DF923B
:1007D000EF92FF920F931F93CF93DF935C016B0116
:1007E00079012417350734F4342F252FA701C901C7
:1007F000E92EF82EEA0107C0C601BE01A501980145
:100800000E94B8022196EC16FD06B4F7DF91CF9155
:100810001F910F91FF90EF90DF90CF90BF90AF901E
:1008200008952F923F924F925F927F928F929F9264
:10083000AF92BF92CF92DF92EF92FF920F931F93EE
:10084000DF93CF9300D000D000D0CDB7DEB75A01F0
:100850003E832D83702EFC01E41BF50BF7FF03C0D4
:10086000F095E195FF4F9B014D815E81241B350B77
:1008700037FF03C0309521953F4F8A159B0524F023
:1008800011E0412E512C03C044244A94542C8D81F4
:100890009E816817790724F0B1E08B2E912C03C05C
:1008A00088248A94982CE217F3076CF07F01F59462
:1008B000E7943C832B836F015A824982222433249C
:1008C000442455240EC0C90162E070E00E94870DE7
:1008D0007B01FC83EB8369011401882499241A822B
:1008E00019828501AA24BB248EC0972D9A3711F551
:1008F000C8016D817E8144E050E00E949102C801F0
:100900006D817E8143E050E00E949102C8016D81BB
:100910007E8142E050E00E949102C8016D817E819B
:1009200041E050E00E949102C8016D817E8140E06B
:1009300050E049C0A72DA83711F5C80164E070E068
:100940004D815E810E949102C80163E070E04D819B
:100950005E810E949102C80162E070E04D815E817B
:100960000E949102C80161E070E04D815E810E94A9
:100970009102C80160E070E04D815E8124C0B72D16
:10098000B93719F584E090E06D817E81A8010E945D
:10099000910283E090E06D817E81A8010E94910226
:1009A00082E090E06D817E81A8010E94910281E049
:1009B00090E06D817E81A8010E94910280E090E02C
:1009C0006D817E81A8010E949102EB81FC81EE0E77
:1009D000FF1EEC14FD0454F0EC18FD08040D151D69
:1009E0004D815E81480D591D5E834D8389819A81B9
:1009F000080F191FAD81BE81A20DB31DBE83AD834B
:100A00000894A11CB11CCA14DB040CF06ECF26960E
:100A10000FB6F894DEBF0FBECDBFCF91DF911F910F
:100A20000F91FF90EF90DF90CF90BF90AF909F908D
:100A30008F907F905F904F903F902F90089580E02F
:100A400090E0FC01EE0FFF1FEE0FFF1FE80FF91FF4
:100A5000DF01AB59BF4F2C91EC57FF4F208311960C
:100A60002C911197218312962C9112972283139621
:100A70002C911397238314962C9114972483019619
:100A800085309105F1F6089580E090E0FC01EE0FCD
:100A9000FF1FEE0FFF1FE80FF91FDF01AC57BF4F1D
:100AA0002C91EB59FF4F208311962C9111972183A4
:100AB00012962C911297228313962C9113972383CD
:100AC00014962C9114972483019685309105F1F6A4
:100AD000089520E030E0F901EE0FFF1FEE0FFF1F39
:100AE000E20FF31FEC57FF4F808381838283838360
:100AF00084832F5F3F4F2530310569F70895CF92EA
:100B0000DF92EF92FF920F931F93CF93DF936B01CE
:100B10008A01C0E0D0E076E0E72EF12C43C020E06F
:100B200030E0C9018C0F9D1FB7010E94870DAC01F9
:100B3000440F551F440F551F480F591FFA01EC5A17
:100B4000FF4FE491D901AA0FBB1FAA0FBB1FA20F31
:100B5000B31FAC57BF4FEC93FA01EB5AFF4FE49130
:100B60001196EC931197FA01EA5AFF4FE49112960D
:100B7000EC931297FA01E95AFF4FE4911396EC9324
:100B80001397485A5F4FFA01449114964C93149767
:100B90002F5F3F4F2530310509F0C3CFC8010E94B8
:100BA00069002196CC15DD050CF4B9CFDF91CF910A
:100BB0001F910F91FF90EF90DF90CF900895BF921B
:100BC000CF92DF92EF92FF920F931F93CF93DF9319
:100BD0006B018A01C0E0D0E086E0E82EF12C16C05F
:100BE000FC01EE0FFF1FEE0FFF1FE80FF91FEC5780
:100BF000FF4FB082A18362834383248301968530B3
:100C0000910571F7C8010E9469002196CC15DD0598
:100C10002CF5CE01B7010E94870D9C01220F331FD6
:100C2000220F331F280F391FF901EC5AFF4FD9014A
:100C3000AB5ABF4FB9016A5A7F4FA901495A5F4F5A
:100C4000285A3F4F80E090E0B490FD01A491FB0151
:100C50006491FA014491F9012491C2CFDF91CF91BF
:100C60001F910F91FF90EF90DF90CF90BF9008956C
:100C70006F927F928F929F92AF92BF92CF92DF92AC
:100C8000EF92FF920F931F93CF93DF935C014B0181
:100C90003A01790180E00E94690500E010E085E0FA
:100CA000C82ED12C65C00E94290EEC010E94290E8D
:100CB000FC01CE01B6010E94870D9C01CF01B60157
:100CC0000E94870DBC01C90144E050E00E949102DE
:100CD000C3010E946900C1E0D0E03FC0DB01A20F68
:100CE000B31FAC57BF4F8C91DA01A20FB31FAC57A3
:100CF000BF4F8C932F5F3F4F2530310579F7CF01E0
:100D0000E430F10599F020E030E0FC013196BF01BC
:100D1000660F771F660F771F6E0F7F1FAC01440FA2
:100D2000551F440F551F480F591FD8CF10929800D8
:100D30001092990010929A0010929B0010929C00C1
:100D4000C701BE010E94870DCB018E0D9F1D0E9421
:100D500069002196C530D10519F080E090E0D3CF2D
:100D600080E00E946905C4010E9469000F5F1F4F67
:100D70000A151B050CF497CFDF91CF911F910F91AE
:100D8000FF90EF90DF90CF90BF90AF909F908F90AB
:100D90007F906F9008957F928F929F92AF92BF92B3
:100DA000CF92DF92EF92FF920F931F93CF93DF9337
:100DB000F82EE62E742E490105E010E025E0C22E43
:100DC000D12C94E0A92EB12CE601C01BD10B872DAC
:100DD000843041F4E80121978F2D90E06E2D70E072
:100DE000A80107C0A501401B510B8F2D90E06E2D6F
:100DF00070E00E9469028F2D90E06E2D70E0AE01D0
:100E00000E949102C4010E94690001501040E1F665
:100E1000DF91CF911F910F91FF90EF90DF90CF90D6
:100E2000BF90AF909F908F907F900895AF92BF92A8
:100E3000CF92DF92EF92FF920F931F93CF93DF93A6
:100E4000082F7B015A0180E00E946905802F90E005
:100E50000E94E80219E1C5E0D0E00E94290EBE011F
:100E60000E94870DC82E0E94290EBE010E94870D88
:100E7000D82E8C2D90E06D2D70E0402F50E00E9418
:100E80004202882351F38C2D6D2D402F97010E9433
:100E9000CB06C5010E9469001150F9F6DF91CF9190
:100EA0001F910F91FF90EF90DF90CF90BF90AF9088
:100EB00008954F925F926F927F929F92AF92BF92EE
:100EC000CF92DF92EF92FF920F931F93CF93DF9316
:100ED0002C015B013A0180E00E94690500E010E00E
:100EE0001CC00E94290E80FD05C0C801BE0140E063
:100EF00050E004C0C801BE0144E050E00E949102ED
:100F00002196C530D10569F70F5F1F4F05301105D8
:100F100021F400E0C5E0D0E030C0C0E0D0E0E1CF97
:100F20000E94290E7C010E94290EBE010E94870D9D
:100F3000D82E182F8C1501F1C701BE010E94870D14
:100F4000E82EF82E8915C1F090E06D2D70E040E09C
:100F500050E00E944202882321F08E2D6D2D40E04A
:100F600003C08E2D6D2D44E095010E94CB06C30178
:100F70000E946900C12E9F2C0F5F802F90E0841586
:100F8000950574F2DF91CF911F910F91FF90EF9033
:100F9000DF90CF90BF90AF909F907F906F905F90C9
:100FA0004F9008954F925F926F927F928F929F928F
:100FB000AF92BF92CF92DF92EF92FF920F931F9367
:100FC000CF93DF934C013B012A0100E010E035E0B4
:100FD000E32EF12C28C00E94290E6C010E94290EDC
:100FE0005C010E94290EFC01C601B7010E94870D19
:100FF0009C01C501B7010E94870D6C01CF01B701AB
:101000000E94870DAC01C901B6010E949102219690
:101010006C167D0604F7C2010E94690080E00E9400
:1010200069050F5F1F4F081519051CF4C0E0D0E0DB
:10103000EFCFDF91CF911F910F91FF90EF90DF9055
:10104000CF90BF90AF909F908F907F906F905F9068
:101050004F900895CF93DF93C1E0D0E085E090E01A
:10106000BE0144EF51E00E94D2072196C931D1055B
:10107000A9F785E090E0BE0144EF51E00E94D2075D
:101080002197B9F7DF91CF9108952F923F924F9218
:101090005F926F927F928F929F92AF92BF92CF9208
:1010A000DF92EF92FF920F931F93CF93DF934C0148
:1010B0003B012A01190100E010E045E0E42EF12C8B
:1010C00026C00E94290E6C010E94290E5C010E941C
:1010D000290EFC01C601B7010E94870D9C01C501C4
:1010E000B7010E94870D6C01CF01B7010E94870DE7
:1010F000AC01C901B60191010E94B80221966C169B
:101100007D06FCF6C2010E9469000F5F1F4F0815A3
:1011100019051CF4C0E0D0E0F2CFDF91CF911F9110
:101120000F91FF90EF90DF90CF90BF90AF909F9086
:101130008F907F906F905F904F903F902F90089589
:101140002F923F924F925F926F927F928F929F92D7
:10115000AF92BF92CF92DF92EF92FF920F931F93C5
:10116000CF93DF931C01EB0100E010E055E0E52E8A
:10117000F12C0E94290EB7010E94870D5C01782E88
:101180006B2C0E94290EB7010E94870D6C01582E0E
:101190004D2C0E94290EB7010E94870DAC01982E9C
:1011A000852E209739F4C501B6010E944202813094
:1011B000C1F409C0C130D105A1F4C501B6010E9436
:1011C0004202882371F4872D962D652D742D492DAB
:1011D000582D9E010E94B802C1010E9469000F5F54
:1011E0001F4F0C3711052CF2DF91CF911F910F91FA
:1011F000FF90EF90DF90CF90BF90AF909F908F9037
:101200007F906F905F904F903F902F90089508953A
:10121000FF920F931F93CF93DF938C0180E00E9486
:101220006905C0E0D0E0FF24FA94FE01EE0FFF1F35
:10123000EE0FFF1FEC0FFD1FEC57FF4FF082F18206
:10124000F282F382F482C8010E9469002196C530BF
:10125000D10559F7C801880F991F800F911F0E946F
:101260006900C0E0D0E0FE01EE0FFF1FEE0FFF1F90
:10127000EC0FFD1FEC57FF4F108211821282138278
:101280001482C8010E9469002196C530D10559F722
:10129000DF91CF911F910F91FF900895AF92BF9270
:1012A000CF92DF92EF92FF920F931F93CF93DF9332
:1012B000F82EE62E5A0180E00E94690500E010E059
:1012C00084E0C82ED12CEE2021F0E601C01BD10B0A
:1012D00001C0E8018F2DBE0141E050E00E9467038C
:1012E000C5010E9469008F2DBE0140E050E00E94C0
:1012F00067030F5F1F4F0530110529F703E010E06A
:10130000B4E0CB2ED12CEE2021F0E601C01BD10B96
:1013100001C0E8018F2DBE0141E050E00E9467034B
:10132000C5010E9469008F2DBE0140E050E00E947F
:101330006703015010408FEF0F3F180721F7DF912F
:10134000CF911F910F91FF90EF90DF90CF90BF90C2
:10135000AF900895CF93DF9380E00E94690580ED00
:1013600097E00E946900C4E0D0E08FE10E94690527
:1013700082E390E00E94690080E00E9469058CEDA4
:1013800095E00E9469008FE10E9469058EE190E07E
:101390000E94690080E00E94690588E59BE10E9447
:1013A0006900219711F7DF91CF910895AF92BF9215
:1013B000CF92DF92EF92FF920F931F93CF93DF9321
:1013C00080E00E94690505E010E036EFE32E3FEF74
:1013D000F32E28EEC22E23E0D22E9FEEA92E92E00D
:1013E000B92E41C080E00E946905CE010E946900CB
:1013F0008FE10E94690584E690E00E946900CE01B9
:10140000B7010E94870DC6010E94870D6F50704082
:10141000C60FD71F1C161D062CF388EE93E00E9402
:101420006900CEEED2E080E00E946905C5018C1B08
:101430009D0B0E9469008FE10E94690584E690E09F
:101440000E946900CE01B7010E94870DC6010E946B
:10145000870D6F507040C60FD71F1C161D061CF35A
:101460000150104019F0CEEED2E0BCCFDF91CF9109
:101470001F910F91FF90EF90DF90CF90BF90AF90B2
:101480000895ACE0B0E0E7E4FAE00C949E0D6C0146
:101490003B018A01FC0117821682838181FD03C012
:1014A0001EC1850104C04E010894811C911CF601E7
:1014B000E380F301E3FC8591E3FE81913F01882302
:1014C00009F409C1853251F4E3FC2591E3FE219131
:1014D0003F01253211F0FF2423C085E290E0B601E0
:1014E0000E948E0E5801DDCF222309F489C089E7BE
:1014F00090E0622F70E02C870E94410E2C850097AF
:1015000049F4233219F4F0E1FF2A04C02C3669F4BF
:1015100020E8F22AF301E3FC2591E3FE21913F014B
:10152000F7FEE2CF222309F43FC082E790E0622F6A
:1015300070E02C870E94410E2C85009741F064E0FA
:10154000A62EB12CA00EB11E8FE390E00FC0233663
:1015500029F0233789F0233529F50CC052E0A52E58
:10156000B12CA00EB11EF80180819181B6010E94BC
:101570008E0E97CFF1E0FF2A42E0A42EB12CA00EF0
:10158000B11EF8010081118104C090E0B6010E94F3
:101590008E0EF801F0FC8591F0FE81918F01882379
:1015A000A1F77FCF243611F0293651F5F7FE0BC095
:1015B00034E0A32EB12CA00EB11EF8016081718120
:1015C000828193810CC022E0A22EB12CA00EB11E0C
:1015D000F80160817181882777FD8095982FFFEE53
:1015E000FF2297FF09C090958095709561957F4F78
:1015F0008F4F9F4F20E4F22AA4012AE030E03BC045
:10160000203799F0213730F42835B1F02F3609F022
:1016100062C017C0253721F0283709F05CC007C029
:101620008FEEF8222AE030E00EC0E0E1FE2AF4E27C
:10163000FF2A20E130E007C024E0F22A20E132E076
:1016400002C028E030E0F7FE0BC094E0A92EB12CD8
:10165000A00EB11EF80160817181828193810AC060
:1016600082E0A82EB12CA00EB11EF801608171811C
:1016700080E090E0A4010E94D50EE82EE8180F2D1E
:1016800010E0F6FE05C08DE290E0B6010E948E0EDD
:1016900004FF15C0FE01EE0DF11D8081803379F04D
:1016A00080E390E0B6010E948E0E02FF08C0C801E0
:1016B00080729070885A9F4FB6010E948E0EEA94F5
:1016C000F401EE0DF11D808190E0B6010E948E0EB6
:1016D000EE20A9F7E6CEF6012681378102C02FEF72
:1016E0003FEFC9012C96EEE00C94BA0D20FD09C025
:1016F000FC0123FD05C022FF02C073836283518376
:1017000040830895EF92FF920F931F9344FD10C002
:1017100046FD10C0DB01FC01AA0FBB1FEE1FFF1F1F
:101720001094D1F76A0F7B1F8E1F9F1F31E003C0FB
:1017300033E001C034E0660F771F881F991F3150D6
:10174000D1F77B018C01E20EF11C011D111DA801D6
:101750009701B701CA011F910F91FF90EF90089573
:10176000EF92FF920F931F93CF93DF938C01C801E9
:101770000E944C0EEC0197FD09C00E94390E0097A3
:10178000B1F77E01CE01B8010E94BA0ECE01CDB7ED
:10179000DEB7E6E00C94C20D8F929F92AF92BF929B
:1017A000DF92EF92FF920F931F93DF93CF930F92ED
:1017B000CDB7DEB74C01D62E5A01122F0E944C0E27
:1017C0008B3219F08D3249F41068DA9409F46CC048
:1017D000C4010E944C0E97FD67C0312F3D7F232F1F
:1017E0002073F1F48033E1F4DA9409F448C0C401C1
:1017F00039830E944C0E398197FD41C03260883791
:1018000011F0883559F43064DA94C9F1C401398390
:101810000E944C0E398197FF03C031C036FF306102
:10182000EE24FF248701282F2053283090F034FD28
:1018300009C02A3070F036FF05C02F7D422F41517C
:10184000463030F0B40139830E94BA0E398114C099
:101850002750C801B701432F39830E94820B7B01B7
:101860008C0139813260DA9469F0C40139830E94B5
:101870004C0E398197FFD7CF31FD04C015C0EE243F
:10188000FF24870137FF08C010950095F094E0947D
:10189000E11CF11C011D111DC501B801A701232F79
:1018A0000E94760B81E001C080E00F90CF91DF9124
:1018B0001F910F91FF90EF90DF90BF90AF909F909E
:1018C0008F9008954F925F926F927F929F92AF9206
:1018D000BF92CF92DF92EF92FF920F931F93DF930D
:1018E000CF930F92CDB7DEB78C015B013A01FC01BB
:1018F00017821682EE24E6C08F2D90E00E94390EEA
:10190000009721F0C8010E94B00BDCC0FF2DF5321A
:1019100051F4F501C3FC3591C3FE31915F013532BD
:1019200071F455E2F52EC8010E944C0E97FDD6C009
:10193000F81609F4C7C0B8010E94BA0ED1C03A32F5
:1019400041F4C3FC3591C3FE31915F01FF24F39450
:1019500001C0FF24992410C0F2E0FF2A692D70E035
:1019600080E090E040E20E94820B962EF501C3FCDD
:101970003591C3FE31915F01232F20532A3060F34C
:10198000F1FE03C0992019F4ABC099249A9438361B
:1019900019F03C3699F40AC0F501C3FC3591C3FE39
:1019A00031915F01383651F4F8E0FF2A44E0F42A1F
:1019B000F501C3FC3591C3FE31915F01332309F476
:1019C0008FC089E890E0632F70E039830E94410E58
:1019D0003981009709F484C08F2DF0FC08C0F30111
:1019E0004080518042E050E0640E751E02C04424E5
:1019F00055243E3651F4F8014681578160E070E08D
:101A0000C2012F2D0E94760B5DC0333691F481FD0B
:101A100002C099249394C8010E944C0E97FD5EC0A9
:101A20004114510419F0F20181932F019A9499F70E
:101A300047C0C80139830E94B00B398197FD4EC061
:101A40003F3661F1303728F4343629F1393649F51B
:101A50002AC0333719F0353721F51DC0C8010E945F
:101A60004C0E6C0197FD11C00E94390E009729F0B1
:101A7000C601B8010E94BA0E08C04114510419F001
:101A8000F201C1922F019A9449F741145104C1F017
:101A9000F201108215C0F0E2FF2A05C040E1F42AED
:101AA00002C050E4F52AC801692DA2012F2D0E9421
:101AB000CC0B882329F4F8018381807379F410C05A
:101AC000F0FEE394F801C380F501C3FCF590C3FE7A
:101AD000F1905F01FF2009F00FCF02C0EE2019F056
:101AE0002E2D30E002C02FEF3FEFC9010F90CF91B4
:101AF000DF911F910F91FF90EF90DF90CF90BF90FB
:101B0000AF909F907F906F905F904F90089597FB5C
:101B1000092E07260AD077FD04D043D006D0002036
:101B20001AF4709561957F4F0895F6F79095819519
:101B30009F4F08952F923F924F925F926F927F92A4
:101B40008F929F92AF92BF92CF92DF92EF92FF92CD
:101B50000F931F93CF93DF93CDB7DEB7CA1BDB0B79
:101B60000FB6F894DEBF0FBECDBF09942A8839881E
:101B700048885F846E847D848C849B84AA84B98425
:101B8000C884DF80EE80FD800C811B81AA81B98131
:101B9000CE0FD11D0FB6F894DEBF0FBECDBFED0145
:101BA0000895AA1BBB1B51E107C0AA1FBB1FA617A4
:101BB000B70710F0A61BB70B881F991F5A95A9F7F6
:101BC00080959095BC01CD010895A0E0B0E0EBEECA
:101BD000FDE00C94A20DEC01688179818A819B81E2
:101BE000611571058105910521F464E279ED8BE5BC
:101BF00097E02DE133EF41E050E00E94550F79016D
:101C00008A0127EA31E440E050E00E94360F5B0190
:101C10006C01C801B7012CEE34EF4FEF5FEF0E946B
:101C2000360F6A0D7B1D8C1D9D1D97FF04C06150F2
:101C3000704080409048688379838A839B837F7754
:101C4000CB01CDB7DEB7EAE00C94BE0D0E94E50DE6
:101C5000089580E690E00E94E50D0895A0E0B0E0D0
:101C60008093600090936100A0936200B093630042
:101C700008959111F8C0803219F089508550D0F73D
:101C80000895FC010590061621F00020D9F7C00147
:101C900008953197CF010895CF93DF93EC013B81F5
:101CA00030FF36C036FF09C03F7B3B838E819F816A
:101CB00001969F838E832A8129C032FF0FC0E8815D
:101CC000F9818081992787FD9095009719F43062FA
:101CD0003B831EC03196F983E88311C0EA85FB85FA
:101CE000CE01099597FF0BC02B813FEF8F3F9307E4
:101CF00011F480E101C080E2822B8B8309C02E8128
:101D00003F812F5F3F4F3F832E83282F30E002C05B
:101D10002FEF3FEFC901DF91CF9108950F931F93EC
:101D2000CF93DF938C01EB018B8181FF1BC082FF7E
:101D30000DC02E813F818C819D812817390764F465
:101D4000E881F9810193F983E88306C0E885F98584
:101D5000802F0995009731F48E819F8101969F8392
:101D60008E8302C00FEF1FEFC801DF91CF911F914B
:101D70000F910895FB01238120FF13C026FD11C0A0
:101D80003FEF8F3F930769F0828320642F7D238389
:101D9000268137812150304037832683282F30E039
:101DA00002C02FEF3FEFC9010895FA01AA2728309A
:101DB00051F1203181F1E8946F936E7F6E5F7F4F18
:101DC0008F4F9F4FAF4FB1E03ED0B4E03CD0670F94
:101DD000781F891F9A1FA11D680F791F8A1F911DE7
:101DE000A11D6A0F711D811D911DA11D20D009F437
:101DF00068943F912AE0269F11243019305D319379
:101E0000DEF6CF010895462F4770405D4193B3E061
:101E10000FD0C9F7F6CF462F4F70405D4A3318F008
:101E2000495D31FD4052419302D0A9F7EACFB4E0B9
:101E3000A6959795879577956795BA95C9F7009771
:101E40006105710508959B01AC010A2E0694579512
:101E5000479537952795BA95C9F7620F731F841F69
:101E6000951FA01D0895992788270895629FD00186
:101E7000739FF001829FE00DF11D649FE00DF11D45
:101E8000929FF00D839FF00D749FF00D659FF00DF4
:101E90009927729FB00DE11DF91F639FB00DE11DE1
:101EA000F91FBD01CF011124089597FB092E0526C6
:101EB0000ED057FD04D014D00AD0001C38F4509531
:101EC0004095309521953F4F4F4F5F4F0895F6F75E
:101ED00090958095709561957F4F8F4F9F4F089596
:101EE000A1E21A2EAA1BBB1BFD010DC0AA1FBB1F1E
:101EF000EE1FFF1FA217B307E407F50720F0A21B90
:101F0000B30BE40BF50B661F771F881F991F1A94FC
:101F100069F760957095809590959B01AC01BD0126
:081F2000CF010895F894FFCFF2
:041F280001000000B4
:00000001FF
